:100000000C9421010C9449010C9449010C949F0912
:100010000C949F090C949F090C9449010C9449017C
:100020000C9449010C94170A0C9449010C94490151
:100030000C9449010C9449010C9449010C94490118
:100040000C943A080C9449010C9408080C94E207AB
:100050000C9449010C9449010C9449010C944901F8
:100060000C9484080C94490108000000BE922449B5
:10007000123EABAAAA2ABECDCCCC4C3E00000080DA
:10008000BEABAAAAAA3E00000000BF000000803F4D
:100090000000000000084178D3BB4387D1133D190D
:1000A0000E3CC3BD4282AD2B3E68EC8276BED98F3A
:1000B000E1A93E4C80EFFFBE01C4FF7F3F0000007E
:1000C000000007634236B79BD8A71A39685618AEA6
:1000D000BAAB558C1D3CB7CC5763BD6DEDFD753E7D
:1000E000F6177231BF000000803F00407A10F35ACB
:1000F00000A0724E18090010A5D4E80000E8764868
:10010000170000E40B54020000CA9A3B000000E113
:10011000F505000080969800000040420F000000A6
:10012000A08601000000102700000000E803000086
:1001300000006400000000000A0000000000010050
:10014000000000002C76D888DC674F0823DFC1DF71
:10015000AE59E1B1B796E5E3E453C63AE651997674
:1001600096E8E6C28426EB898C9B62ED407C6FFCAE
:10017000EFBC9C9F40F2BAA56FA5F490055A2AF7F0
:100180005C936B6CF9676DC11BFCE0E40D47FEF5F9
:1001900020E6B500D0ED902E030094357705008061
:1001A000841E080000204E0A000000C80C333333C0
:1001B000330F986E12831141EF8D2114893BE65560
:1001C00016CFFEE6DB18D1844B381BF77C1D901D43
:1001D000A4BBE424203284725E228100C9F124ECA5
:1001E000A1E53D2700000000240027002A000000B0
:1001F00000080002010000030407000000000000E6
:10020000000000000000230026002900000000007C
:10021000250028002B000404040404040404020242
:100220000202020203030303030301020408102075
:100230004080010204081020010204081020760A00
:100240001F1111241FBECFEFD8E0DEBFCDBF24E0C9
:10025000A8E4B1E001C01D92AF30B207E1F711E0B0
:10026000A0E0B1E0E2E7F4E302C005900D92A8340B
:10027000B107D9F711E0C0E2D1E004C02197FE0137
:100280000E940A18CF31D107C9F70E94A50B0C9420
:100290002C1A0C940000E1E2F3E0A089B18982E01D
:1002A0008C93A485B5851C92A685B78580E18C9337
:1002B000108EA489B58986E08C93A289B3898C912C
:1002C00080618C93A289B3898C9188608C93A28978
:1002D000B3898C9180688C930288F389E02D8081AA
:1002E0008F7D808308950895AF92BF92CF92DF9261
:1002F000EF92FF920F931F93CF93DF936C017B01DB
:100300008B01040F151FEB015E01AE18BF08C0176B
:10031000D10759F06991D601ED91FC910190F081DE
:10032000E02DC6010995892B79F7C501DF91CF91A1
:100330001F910F91FF90EF90DF90CF90BF90AF9003
:100340000895FC01538D448D252F30E0842F90E0DB
:10035000821B930B541710F0CF96089501970895C0
:10036000FC01918D828D981761F0A28DAE0FBF2F89
:10037000B11D5D968C91928D9F5F9F73928F90E0DF
:1003800008958FEF9FEF0895FC01918D828D98174E
:1003900031F0828DE80FF11D858D90E008958FEF8B
:1003A0009FEF0895FC01918D228D892F90E0805C54
:1003B0009F4F821B91098F739927089581E293E0E3
:1003C0000E94D20121E0892B09F420E0822F0895B8
:1003D00080E090E0892B29F00E94DE0181110C94CD
:1003E00000000895FC01A48DA80FB92FB11DA35AD8
:1003F000BF4F2C91848D90E001968F739927848F45
:10040000A689B7892C93A089B1898C918370806467
:100410008C93938D848D981306C00288F389E02D08
:1004200080818F7D80830895EF92FF920F931F93B9
:10043000CF93DF93EC0181E0888F9B8D8C8D981397
:100440001AC0E889F989808185FF15C09FB7F894A3
:10045000EE89FF896083E889F989808183708064EF
:1004600080839FBF81E090E0DF91CF911F910F913A
:10047000FF90EF900895F62E0B8D10E00F5F1F4F49
:100480000F731127E02E8C8D8E110CC00FB607FC58
:10049000FACFE889F989808185FFF5CFCE010E94E6
:1004A000F201F1CFEB8DEC0FFD2FF11DE35AFF4F61
:1004B000F0829FB7F8940B8FEA89FB898081806274
:1004C000CFCFCF93DF93EC01888D8823B9F0AA8931
:1004D000BB89E889F9898C9185FD03C0808186FDFF
:1004E0000DC00FB607FCF7CF8C9185FFF2CF80814E
:1004F00085FFEDCFCE010E94F201E9CFDF91CF91D0
:10050000089581E293E00E946102E1E2F3E0A289B2
:10051000B3898C918F7E8C93A289B3898C91877FCC
:100520008C93A289B3898C918F778C93A289B3899C
:100530008C918F7D8C93828D818F089590E0FC014A
:10054000E251FE4F2491FC01E65DFD4F3491FC0128
:10055000EA5EFD4FE491EE23C9F0222339F0233007
:1005600001F1A8F4213019F1223029F1F0E0EE0F69
:10057000FF1FE45FFD4FA591B4918FB7F894EC9104
:10058000611126C030953E233C938FBF08952730DC
:10059000A9F02830C9F0243049F7809180008F7D80
:1005A00003C0809180008F7780938000DFCF84B577
:1005B0008F7784BDDBCF84B58F7DFBCF8091B0007A
:1005C0008F778093B000D2CF8091B0008F7DF9CF2C
:1005D0003E2BDACFCF93DF9390E0FC01E65DFD4F39
:1005E00024918A5E9D4FFC0184918823D1F090E094
:1005F000880F991FFC01EC51FE4FA591B491FC01AD
:10060000E45FFD4FC591D49161110EC09FB7F8947E
:100610008C91E22FE0958E238C932881E223E8834E
:100620009FBFDF91CF9108958FB7F894EC91E22BA3
:10063000EC938FBFF6CF8E3008F08E5087708064B9
:1006400080937C0080917A00806480937A0080910E
:100650007A0086FDFCCF8091780090917900089512
:100660003FB7F8948091050290910602A09107028D
:10067000B091080226B5A89B05C02F3F19F001963E
:10068000A11DB11D3FBFBA2FA92F982F8827BC01EC
:10069000CD01620F711D811D911D42E0660F771F14
:1006A000881F991F4A95D1F708958F929F92AF9214
:1006B000BF92CF92DF92EF92FF926B017C010E947A
:1006C00030034B015C01C114D104E104F104B9F021
:1006D0000E943003681979098A099B09683E7340B2
:1006E0008105910580F321E0C21AD108E108F108E3
:1006F00088EE880E83E0981EA11CB11CE4CFFF9009
:10070000EF90DF90CF90BF90AF909F908F90089523
:100710002091B601260F3327331F21323105ECF427
:100720002091DA01FC0190E080E0243069F082E061
:100730000895A091B6012191AC014A565E4FA40FD5
:10074000B52FB11D2C930196861798F38091B601B1
:10075000680F6093B60180E0089581E008950895E0
:100760008FEF9FEF08958FEF9FEF089580918F0196
:1007700090E09195819591090895CF93DF93CB01F6
:10078000EA01642F0E948803CE01DF91CF91089582
:10079000CF93DF931F92CDB7DEB7698361E0CE01BF
:1007A00001960E94880381E090E00F90DF91CF9145
:1007B000089520910B0230910C022817390771F42B
:1007C0009091090280910A02981741F0E091090284
:1007D000F0E0E15BFE4F808190E008958FEF9FEFA6
:1007E0000895EF92FF920F931F93CF93DF93DC0155
:1007F0005C96ED90FC905D97E114F10479F481E052
:1008000090E013969C938E93129790E080E0DF9196
:10081000CF911F910F91FF90EF9008955196ED9118
:10082000FC91529750968C915097982F90950FB7B6
:100830005E962C915E97122F127021FD6095F894B0
:100840002081112319F1282B2083E7012197F1F74B
:1008500028E0462F50E0308160FF1AC0382B3083EB
:10086000E7012197F1F7BA0175956795215089F74E
:10087000112381F08081892380830FBF5C968D9145
:100880009C910197F1F781E090E0C1CF2923DCCF63
:100890003923E5CF9081892BEFCF20910B02309146
:1008A0000C022817390771F480910A02209109027D
:1008B00090E0805C9F4F821B910960E470E00E9491
:1008C000F617089590E080E0089520910B02309192
:1008D0000C0228173907B9F49091090280910A0295
:1008E000981789F0E0910902F0E0E15BFE4F80810A
:1008F0002091090230E02F5F3F4F2F733327209361
:10090000090290E008958FEF9FEF089590E080E056
:1009100008954F925F926F927F92AF92BF92CF9263
:10092000DF92EF92FF920F931F93CF93DF93CDB798
:10093000DEB729970FB6F894DEBF0FBECDBF8A0190
:10094000AB01770F660B770B762F652F542F44275B
:10095000012E000C220B330B402B512B622B732BDF
:10096000092E000CAA0BBB0BDC0199278827842BCE
:10097000952BA62BB72B6D01EE24FF24AC2C092F51
:10098000182FF12CE12C88E0B82E8091C0039091B3
:10099000C103E816F90608F002C18091C603412F91
:1009A000502F6A2D882371F08C9D90018D9D300D04
:1009B0001124632F809F90011124532F819FC00128
:1009C0001124492FE091CC038091C7039091C80373
:1009D0002091C903E2139FC09701220F331F2E0DF0
:1009E0003F1D820F931FE091C903E80FF92FF11DFE
:1009F0006083E091CA03E80FF92FF11D5083209125
:100A0000CB03820F911DFC0140838091C70390911D
:100A1000C803892B09F47BC00E9430034090CD03AA
:100A20005090CE036090CF037090D003641575058D
:100A30008605970540F46093CD037093CE038093B1
:100A4000CF039093D0034090CD035090CE0360909D
:100A5000CF037090D00364197509860997096C3229
:100A6000714081059105C0F2F8948091C203909184
:100A7000C3039A838983E091C703F091C803DF0120
:100A80001196808189879091BE03E091D103F09106
:100A9000D2038091D303992309F449C09081982B04
:100AA00098879081809589238F838F818C83BB82E7
:100AB00058856F8149853B812C8189819A8150833A
:100AC00047FD252F3A952083262F39F0441F00C07B
:100AD00000006083000000C0F2CF38E04D916083D9
:100AE0000000019761F7F093D203E093D1034987A7
:100AF0003B832C839A83898378940E94300360938C
:100B0000CD037093CE038093CF039093D0032FEF48
:100B1000E21AF20A3ACF9701220F331F220F331F36
:100B2000820F931FE80FF92FF11D10825CCF908187
:100B3000982B98879081809589238F838F818E83CE
:100B4000BD8258856F8149853D812E8189819A8139
:100B5000508347FD252F00C000C0208300C000C087
:100B600000C000C000C060830000262F3A9541F00D
:100B7000441F000000C000C000C000C000C0E8CF9B
:100B800038E04D9100C0608300C0019709F7F093F1
:100B9000D203E093D10349873D832E83ABCF2996BF
:100BA0000FB6F894DEBF0FBECDBFDF91CF911F917E
:100BB0000F91FF90EF90DF90CF90BF90AF907F901C
:100BC0006F905F904F900895CF93DF93EC018881F1
:100BD0009981009711F00E94AC18198218821D8229
:100BE0001C821B821A82DF91CF910895FC018081C3
:100BF0009181009711F00C94AC180895CF93DF9376
:100C0000FC01248135814217530788F4C081D181CA
:100C1000FB0160817181CE01840F951F0E94121A21
:100C2000009729F08C1B9D0BDF91CF9108958FEFDA
:100C30009FEFFACFFC0124813581232B39F421E089
:100C4000FB018081882349F020E007C080819181E9
:100C50000E94021A21E0892BB9F7822F08950F9381
:100C60001F93CF93DF938C01EB01FC018081918175
:100C70000097E1F06881798161157105A9F04281E1
:100C800053812C813D814217530770F00E940B1A4B
:100C90008C819D81F801958384831D821C82DF9164
:100CA000CF911F910F9108950E94AC18888199816E
:100CB000F801918380838A819B81938382838C81D5
:100CC0009D8195838483198218821B821A82E5CFC5
:100CD0000F931F93CF93DF93EC0188819981009745
:100CE00059F02A813B812617370730F081E0DF91E8
:100CF000CF911F910F9108958B016F5F7F4F0E94DD
:100D00003519009759F0998388831B830A832C81B6
:100D10003D81232B59F7FC011082E8CF80E0E7CF1B
:100D2000EF92FF920F931F93CF93DF93611571059D
:100D300041F480E0DF91CF911F910F91FF90EF90F0
:100D4000089541155105B1F07B01EC010C811D8125
:100D5000040F151FB8010E946806882351F32881EB
:100D600039818C819D81B701820F931F0E940B1ADC
:100D70001D830C8381E0DECFCF93DF93EC01FB0179
:100D800001900020E9F73197AF01461B570B0E94F5
:100D90009006811103C0CE010E94E405CE01DF91CF
:100DA000CF910895CF93DF93EC01FB0144815581EE
:100DB000608171810E949006811103C0CE010E9462
:100DC000E405CE01DF91CF910895EF92FF920F934A
:100DD0001F93CF93DF93EC017B018A01BA010E943C
:100DE000680681110BC0CE010E94E405CE01DF919F
:100DF000CF911F910F91FF90EF9008951D830C8369
:100E0000B701888199810E940B1AF0CFFB010190F4
:100E10000020E9F73197AF01461B570B0C94E5060C
:100E2000FC01118210821382128215821482FB014E
:100E300001900020E9F73197AF01461B570B0C9446
:100E4000E506AF92BF92CF92DF92EF92FF920F939F
:100E50001F93CF93DF936C015B017A018901241703
:100E6000350720F48F2D7901042F182F67E471E0E6
:100E7000C6010E941007D5011496CD91DC91EC16A5
:100E8000FD06E0F40C171D0708F4E801D501ED910B
:100E9000FC911197EC0FFD1F108110826D917C91D8
:100EA0006E0D7F1DC60161157105A1F00E94060738
:100EB000F50180819181C80FD91F1883C601DF9188
:100EC000CF911F910F91FF90EF90DF90CF90BF9047
:100ED000AF9008950E94E405EBCF1F93CF93DF936B
:100EE00085ED8093BC008091920190919301A09137
:100EF0009401B09195010796A11DB11D23E0B6950F
:100F0000A795979587952A95D1F72091BC0024FD48
:100F100003C01092DA0152C04091920150919301A6
:100F20006091940170919501452B462B472B69F3F5
:100F30000097A105B10541F025E32A95F1F70000DE
:100F40000197A109B109E1CF80919101C1E0C0935E
:100F50009001882399F1D091B8001091BA00809146
:100F6000BC008A7B8093BC0060E082E10E949E020C
:100F700060E083E10E949E021092DA01C093DC01DE
:100F80001092DB0161E082E10E949E0261E083E158
:100F90000E949E028091B9008E7F8093B90080915B
:100FA000B9008D7F8093B90088E48093B80085E410
:100FB0008093BC001093BA00D093B800DF91CF911A
:100FC0001F9108951F920F920FB60F9211242F9325
:100FD0003F934F935F936F937F938F939F93AF93C1
:100FE000BF93EF93FF9381E293E00E94F201FF91A0
:100FF000EF91BF91AF919F918F917F916F915F9191
:101000004F913F912F910F900FBE0F901F90189509
:101010001F920F920FB60F9211242F938F939F93CD
:10102000EF93FF93E0913103F09132038081E091DF
:101030003703F091380382FD1BC0908180913A0301
:101040008F5F8F7320913B03821741F0E0913A0349
:10105000F0E0EF5DFC4F958F80933A03FF91EF91A5
:101060009F918F912F910F900FBE0F901F90189509
:101070008081F4CF1F920F920FB60F9211242F93FD
:101080003F938F939F93AF93BF9380910102909171
:101090000202A0910302B09104023091000223E009
:1010A000230F2D3758F50196A11DB11D2093000285
:1010B0008093010290930202A0930302B093040272
:1010C0008091050290910602A0910702B09108025A
:1010D0000196A11DB11D8093050290930602A09375
:1010E0000702B0930802BF91AF919F918F913F91FA
:1010F0002F910F900FBE0F901F90189526E8230F89
:101100000296A11DB11DD2CF1F920F920FB60F9262
:1011100011242F933F934F935F936F937F938F93FC
:101120009F93AF93BF93EF93FF938091B900887F14
:10113000803609F44AC0F0F5883209F4A5C018F5E4
:10114000803109F499C0B8F4882309F4F5C08830D7
:1011500009F492C0FF91EF91BF91AF919F918F9150
:101160007F916F915F914F913F912F910F900FBEA3
:101170000F901F901895883109F486C0803251F77E
:101180008093D90114C0803409F49BC040F48033AB
:10119000B9F38833F9F68093D90185ECAEC0803578
:1011A00009F483C0883509F494C0883499F60E9404
:1011B0006D07D0CF883909F48AC038F5883729F00F
:1011C00050F4883611F0803729F683E08093DA01F5
:1011D0001092D80155C0883809F479C0803919F0C7
:1011E000803809F0B7CF8091D801803208F06FC005
:1011F000E091D80181E08E0F8093D8018091BB00EF
:10120000F0E0E854FE4F80833BC0803B39F0D0F4DF
:10121000803A09F477C0883A09F09CCF84E0809343
:10122000DA011092B7011092B601F0E0E0E0099502
:101230008091B60181110FC081E08093B6011092B8
:10124000960109C0803C09F4A8CF883C09F4A5CFD9
:10125000883B09F07FCFE091B70181E08E0F80934A
:10126000B701F0E0EA56FE4F80818093BB00909179
:10127000B7018091B60129C08091FF018093BB0026
:1012800085EC8093BC0066CF9091FE018091FD01BA
:10129000981758F5E091FE0181E08E0F8093FE01D2
:1012A000F0E0E352FE4F8081E9CFE091FE0181E062
:1012B0008E0F8093FE018091BB00F0E0E352FE4F61
:1012C00080839091FE018091FD019817C8F285E816
:1012D000D8CFE091FE0181E08E0F8093FE018091D6
:1012E000BB00F0E0E352FE4F80838091DC0181116E
:1012F0005ECF81E08093DB0184EA8093BC00109292
:10130000DA0128CF85EC8093BC001092DA0180913D
:10131000D801803230F4E091D801F0E0E854FE4F7B
:1013200010826091D80170E088EB91E0F0E0E0E09D
:1013300009951092D8010ECF1092D90138CF1F9283
:101340000F920FB60F9211242F933F934F935F93F9
:101350006F937F938F939F93AF93BF93EF93FF937D
:10136000E0910B02F0910C02309749F0A685B78509
:101370008585968D91FF14C09C918923A1F4FF91DE
:10138000EF91BF91AF919F918F917F916F915F91FD
:101390004F913F912F910F900FBE0F901F90189576
:1013A0009C91892361F7A389B4899C918589809553
:1013B00089238C93868997890197F1F7608D718DC8
:1013C000A685B785558538E020E0CB010197F1F778
:1013D000822F90E095958795282F4C91452309F011
:1013E0002068315091F7868D81FD209580910A0209
:1013F00090E001968F73992730910902381799F080
:10140000A0910A02B0E0A15BBE4F2C9380930A0228
:10141000828D938D0197F1F7A389B4898C91958979
:10142000892B8C93ACCF868D8160868FF1CF1F92F4
:101430000F920FB60F9211242F933F934F935F9308
:101440006F937F938F939F93AF93BF93EF93FF938C
:1014500080914D0190914E018093B200809149019D
:1014600090914A01A0914B01B0914C010196A11DB0
:10147000B11D8093490190934A01A0934B01B09311
:101480004C018091490190914A01A0914B01B0918A
:101490004C0180914801811118C081E0809348017E
:1014A0008091490190914A01A0914B01B0914C016A
:1014B0008093490190934A01A0934B01B0934C0152
:1014C000F0E0E0E0099510924801FF91EF91BF91A3
:1014D000AF919F918F917F916F915F914F913F91CC
:1014E0002F910F900FBE0F901F901895CF92DF9203
:1014F000EF92FF92109224031092230328EEC22E43
:1015000023E0D22EE12CF12CC0922503D0922603A9
:10151000E0922703F09228038AE091E0909322035F
:101520008093210385EC90E090932E0380932D030C
:1015300084EC90E09093300380932F0380EC90E054
:10154000909332038093310381EC90E090933403C5
:101550008093330382EC90E09093360380933503BD
:1015600086EC90E0909338038093370310923A030F
:1015700010923B0310923C0310923D0367E471E02C
:1015800085E094E00E94100767E471E08FEF93E03C
:101590000E94100767E471E089EF93E00E94100752
:1015A0001092F6031092F5031092F8031092F703CD
:1015B0001092D7031092D603C092D803D092D903C9
:1015C000E092DA03F092DB038CE191E09093D50393
:1015D0008093D4031092EB031092EA031092ED0370
:1015E0001092EC031092EF031092EE031092F103AD
:1015F0001092F0036091F2036E7F6D7F6093F203AF
:101600006695617081E0682787E00E949E0261E034
:1016100087E00E94EA02E1E3F2E0E491E093E40370
:10162000EDE1F2E0E491F0E0EE0FFF1FE45FFD4F2B
:10163000859194919093E6038093E50360E088E0C0
:101640000E94EA028091F20381FD04C061E088E01B
:101650000E949E0288E08093E003E2E3F2E0E491DE
:10166000E093E103EEE1F2E0E491F0E0EE0FFF1F22
:10167000EE5FFD4F859194919093E3038093E20395
:101680001092BF031092C6031092CD031092CE03A6
:101690001092CF031092D00381E08093CC0380930B
:1016A000C9031092CA0392E09093CB038093BE03C8
:1016B0008BE490E09093C3038093C2030E941018C0
:1016C0009093C8038093C703009709F435C02BE4B7
:1016D000FC0111922A95E9F789E190E09093C1030A
:1016E0008093C00386E090E09093C5038093C40389
:1016F0008091BF03882341F061E086E00E94EA0206
:1017000060E086E00E949E02ECE1F2E0E491F0E00D
:10171000EE0FFF1FE45FFD4F859194919093D203EC
:101720008093D103E0E3F2E0E491E093D303FF90F0
:10173000EF90DF90CF9008951092C3031092C203F0
:101740001092C1031092C003CDCFCF93DF93CDB7DA
:10175000DEB7EC970FB6F894DEBF0FBECDBF78941E
:1017600084B5826084BD84B5816084BD85B58260A6
:1017700085BD85B5816085BD80916E008160809357
:101780006E001092810080918100826080938100C0
:1017900080918100816080938100809180008160D0
:1017A000809380008091B10084608093B10080912B
:1017B000B00081608093B00080917A008460809353
:1017C0007A0080917A00826080937A0080917A001A
:1017D000816080937A0080917A00806880937A009B
:1017E0001092C1000E944B018091C4039091C503E7
:1017F00097FD08C061E00E94EA0260E08091C403A6
:101800000E949E0281E08093BF034091C2035091E9
:10181000C30370E060E08091C7039091C8030E9409
:10182000FB196091C603603829F12091C7033091FC
:10183000C8036150C9F070E08FEF9FE70E94E21784
:10184000F9014091C2035091C303CF01821B930B56
:101850008417950760F44081469FC001479F900D13
:10186000112490833196EDCF70E060E0E9CF80E8FD
:101870008093C60350E040E070E060E090E080E0DC
:101880000E94890484ED93E09093F4038093F30322
:101890001092EF031092EE031092ED031092EC03FE
:1018A0001092EB031092EA038FE190E09093F10322
:1018B0008093F0039091E003963108F047C021E057
:1018C00030E03093EB032093EA032DE130E03093D6
:1018D000ED032093EC032DE030E03093EF032093F1
:1018E000EE032091680084E0983048F031E09E30AB
:1018F00008F430E081E001C0880F3A95EAF7822BC6
:10190000809368002DE630E0983050F02BE630E010
:101910009E3030F02CE630E0963110F030E020E0E0
:101920003093E8032093E703292F30E0983008F044
:101930008DC281E001C0880F9A95EAF78093E90390
:101940008091F0039091F1030197F1F78091EE03FC
:101950009091EF03892B49F1E0910B02F0910C0279
:1019600023E0E43DF20709F1309739F0A389B48907
:101970009C918589809589238C938091F2038E7F39
:101980008093F20310920A021092090284ED93E010
:1019900090930C0280930B02E091E703F091E8032F
:1019A00080819091E903892B8083E3E1F2E080E07C
:1019B000119211928F5F8038D9F7CE0101967C0188
:1019C000DE011996BEABADAB68EC262E312C8091B2
:1019D000130380900F0290901002A0901102B0901B
:1019E0001202811140C20E941B03E3E1F2E08193E5
:1019F000919323E133E02E173F07C9F7E3E1F2E0CB
:101A000080E041915191052E000C660B770B840EFE
:101A1000951EA61EB71E8F5F803899F780920F0221
:101A200090921002A0921102B092120280910D02C7
:101A300090910E02019690930E0280930D0281E028
:101A40008093130360910F02709110028091110234
:101A5000909112020E944C1420E030E040E05CE3E0
:101A60000E9489144B015C0120E030E44CE156E413
:101A70000E9489142B013C01A501940160E070E0F3
:101A800080E894E40E947E159B01AC01C301B20181
:101A90000E94EB1520E030E44CE156E40E94EB1587
:101AA0000E9465164B015C0120E030E040E450E408
:101AB0000E94AD162B013C012DEF39EB49E657E5AD
:101AC000C501B4010E9489142DE537EA4EE359E5BA
:101AD0000E947F1568AF79AF8AAF9BAFA5019401D3
:101AE000C501B4010E9489142DEF32E848E154E5A4
:101AF0000E9489149B01AC0168AD79AD8AAD9BADA4
:101B00000E947F154B015C0126EE39EC4DE651E554
:101B1000C301B2010E9489149B01AC01C501B4014B
:101B20000E947F152BE63BE04EE55DE50E94EB153C
:101B30009B01AC0160E070E080E89FE30E94EB1540
:101B400023E333E948E853E40E947E1560931803C9
:101B50007093190380931A0390931B0389E0D701B4
:101B60001D928A95E9F78091F3039091F403DC01CB
:101B7000ED91FC910084F185E02D0995892B09F404
:101B8000B1C18091F3039091F403DC01ED91FC91DC
:101B90000084F185E02D0995892B09F4A0C180917D
:101BA000F3039091F403DC01ED91FC910284F38541
:101BB000E02D0995893529F78091F3039091F4037D
:101BC000DC01ED91FC910284F385E02D09958935C6
:101BD000C1F68E010D5F1F4F42EB842E912CA12C7C
:101BE000B12C8091F3039091F403DC01ED91FC9111
:101BF0000284F385E02D0995F80181938F01880E09
:101C0000911CA11CB11C2DA93EA92E173F0749F715
:101C10008091F3039091F403DC01ED91FC91028437
:101C2000F385E02D09959924AA24BB2490E0B0E027
:101C3000A0E088169906AA06BB0609F0A2CF8C81FF
:101C400090E0982F88272B81820F911D9093F603A7
:101C50008093F5038E8190E0982F88272D81820F45
:101C6000911D9093F8038093F7038091F503909171
:101C7000F6038B3091050CF43DC190931D038093C6
:101C80001C0380911C0390911D03883C91050CF46A
:101C900036C130921D0320921C03E1E0EFAB61E0FE
:101CA00070E080E090E00E94550381E293E00E94A2
:101CB000D201892B09F43BC267E471E0CE018F9613
:101CC0000E94100767E471E0CE0189960E94100718
:101CD00008E813E1B12CA12C8BE1C82E83E0D82EAB
:101CE00081E293E00E94D201892B89F081E293E0A6
:101CF0000E94B0018CAF89831A8241E050E0B701A5
:101D0000CE0189960E9490068FEFA81AB80AC601E4
:101D10000197F1F78DA59EA5892B21F0E9A5FAA5DC
:101D2000309721F410921403E4E1F3E080818332D0
:101D300009F0E8C09CAD9E3609F0E4C081E08093D4
:101D4000200380912003882309F4B0C16AE271E086
:101D5000C7010E94100750E040E0B701CE0189960C
:101D60000E94FE058C01C7010E94F60563E471E044
:101D7000C7010E941007A801B701CE0189960E94F1
:101D8000FE058C0190931F0380931E03C7010E94E0
:101D9000F605980150E040E0BE01675D7F4FC70146
:101DA0000E942107B701CE018F960E942F06C7011E
:101DB0000E94F6056CE271E0CE018F960E941A0631
:101DC000882309F471C1C5010A97079708F06CC10F
:101DD0001CA21BA21EA21DA218A61FA269A57AA55D
:101DE0006115710531F04DA55EA5CE0183960E9467
:101DF000E506AAE0AA16B10409F08BC00F5F1F4FD9
:101E000061E371E0C7010E941007A801B701CE018C
:101E100083960E94FE056C01C7010E94F60596019B
:101E2000A801BE016D5D7F4FC7010E942107B70168
:101E30008FEF93E00E942F06C7010E94F60584EA07
:101E400096E09093170380931603C5C09E3040F42C
:101E50002850310981E001C0880F2A95EAF76ECD3C
:101E60002E503109F7CF80911303882309F4EACD6E
:101E700080E00E941B0320910D0230910E02F901B7
:101E8000EE0FFF1FED5EFD4F40815181052E000CCE
:101E9000660B770B841A950AA60AB70A918380838A
:101EA000092E000CAA0BBB0B880D991DAA1DBB1D8A
:101EB00080930F0290931002A0931102B09312022C
:101EC0002F5F3F4F203831052CF430930E022093C2
:101ED0000D02B8CD10920E0210920D02B3CDBFA923
:101EE000B111C3CE2FEF3FEF30931D0320931C039E
:101EF0001FAAD5CE30921D0320921C03C2CE31E022
:101F00003FABCDCE0150110909F0EACE109220036B
:101F100018CFBBE0AB1AB108E4E0AE16B10408F08C
:101F20005AC00F5F1F4F63E471E0C7010E941007A2
:101F3000A801B701CE0183960E94FE054C01C7019E
:101F40000E94F6055401FFEFAF1ABF0A61E371E08A
:101F5000C7010E941007A501B701CE0183960E9418
:101F6000FE056C01C7010E94F6059401A801BE019F
:101F70006D5D7F4FC7010E942107B7018FEF93E08E
:101F80000E942F06C7010E94F6059601A501BE0119
:101F90006D5D7F4FC7010E942107B70189EF93E074
:101FA0000E942F06C7010E94F6058091F9039091C7
:101FB000FA03009729F10E94731124E6269FA001DD
:101FC000279F500D11244115510509F438CF509326
:101FD00017034093160363E371E08FEF93E00E94D1
:101FE0001A06882389F08091150381110DC00E9483
:101FF000810250E040E070E060E08FEF90E03AC096
:1020000060E070E0CB01D9CF65E371E08FEF93E042
:102010000E941A06882321F080911503882311F16C
:1020200067E371E08FEF93E00E941A06811159C0B7
:1020300069E371E08FEF93E00E941A0681115CC0A2
:102040006BE371E08FEF93E00E941A06882309F496
:102050005EC04FEF50E06FEF70E08FEF90E00E94B6
:1020600089041EC00E94810250E040E06FEF70E0E2
:1020700090E080E00E94890460911603709117033C
:10208000072E000C880B990B0E9455034FEF50E070
:102090006FEF70E08FEF90E00E9489040E944B0187
:1020A000CE0183960E94F60510922003CE018996F8
:1020B0000E94F605CE018F960E94F60561E070E061
:1020C00080E090E00E94550380E090E0892B09F4C5
:1020D0007ECC0E94DE01882309F479CC0E940000A6
:1020E00076CC809115038111A3CF0E9481024FEF1E
:1020F00050E070E060E0BCCF809115038111A0CF6B
:102100000E94810250E040E068E270E076CF6DE32B
:1021100071E08FEF93E00E941A06882309F4C0CF84
:1021200050E040E070E060E090E080E098CF1CA2DA
:102130001BA21EA21DA218A61FA22AE0A70162E5EB
:1021400078E383E090E00E94A511B701CE01839669
:102150000E94060780911C0390911D031AA619A6E0
:102160001CA61BA61EA61DA64AE0B7010E949A1136
:10217000B701CE0189960E940607609118037091FD
:10218000190380911A0390911B0318AA1FA61AAA7B
:1021900019AA1CAA1BAA870121E043E00E9455113D
:1021A000009709F447C0BC01CE018F960E94060734
:1021B0006FE371E0C7010E941007BE01615D7F4FB0
:1021C000C7010E94D20663E471E00E94BC06BE0112
:1021D000675D7F4F0E94D20663E471E00E94BC06F7
:1021E000BE016D5D7F4F0E94D20665E471E00E94E2
:1021F000BC06DC0114964D915C9115976D917C9114
:1022000081E293E00E947401C7010E94F605CE01AD
:102210008F960E94F605CE0189960E94F605CE01A2
:1022200083960E94F60564E670E080E090E00E94EC
:10223000550344CFCE018F960E94E405B9CF80911B
:10224000C7039091C8030E94AC188091C403909179
:10225000C50397FD03C060E00E94EA028CE191E0B3
:102260009093D5038093D40380910B0290910C023C
:10227000845D934071F4E091E703F091E80390816D
:102280008091E90380958923808310920C0210923B
:102290000B0289EF93E00E94F6058FEF93E00E9416
:1022A000F60585E094E00C94F605EF920F931F93EA
:1022B000CF93DF93E80134E047FD34E1042E000CB6
:1022C000550B57FF03C0519541955109E32E022F3D
:1022D000242FAE010E940512CE01DF91CF911F91F4
:1022E0000F91EF9008951F93FC0199278827BC0157
:1022F000E89411911032E9F3193010F01E30C8F350
:102300001B3251F01D3249F4689406C00E94B4118A
:10231000610F711D811D911D119110531A30B0F381
:102320003EF490958095709561957F4F8F4F9F4FAC
:102330001F910895BB274A3031F4992322F4BDE25E
:10234000909581959F4F0C94EC11BB272A3051F446
:10235000992342F4BDE290958095709561957F4FE9
:102360008F4F9F4F0C94CA11592F482F372F262F6C
:10237000660F771F881F991F660F771F881F991F89
:10238000620F731F841F951F660F771F881F991F89
:102390000895BB27FA01A62F6217710581059105E3
:1023A000330B30FB66F0AA27660F771F881F991F33
:1023B000AA1FA21710F0A21B63953850A9F7A05DC1
:1023C000AA3308F0A95DA19336F7B111B193108239
:1023D000CA010C943C14BB27FB015527AA27880F80
:1023E000991FAA1FA41710F0A41B83955051B9F789
:1023F000A05DAA3308F0A95DA193009779F7B11108
:10240000B1931192CB010C943C14A9E0B0E0EBE045
:10241000F2E10C944D156A01F22EB02E102FFBE361
:10242000AF2EA01608F41BE31F5F012F27E0AE01BB
:102430004F5F5F4F0E946413BC018981982F997090
:10244000913009F43FC09BE2E1FC04C09E2D9170E5
:10245000E0FC3AC05E2D5071E82FE87083FF46C063
:1024600084E0911101C083E0EF2DE81B8F1508F087
:10247000E0E0D6018E2F20E2552351F1992329F077
:10248000D6019C93C60101966C0196012D5F3F4FCA
:10249000E2FE24C08EE4D6018C9391E411969C93C5
:1024A000119712968C93D9018E2F90E281111BC047
:1024B000E20FF32FF11D10828EEF9FEF2996ECE0D3
:1024C0000C9469159DE2C6CF90E2C4CF2D93815044
:1024D0008111FCCFCE0ED11CE0E0D0CF8EE6D6012C
:1024E0008C9391E6DBCF9D938150E0CF482F4470D1
:1024F00082FF3DC084E0911101C083E08F1510F48C
:10250000EF2DE81BD6018E2F20E2552309F19923E8
:1025100029F0D6019C93C60101966C0196012D5FAE
:102520003F4FE2FE1BC089E4D6018C938EE41196E6
:102530008C93119786E412968C93D9018E2F90E29A
:10254000882309F4B5CF9D938150FACF2D93815004
:102550008111FCCFCE0ED11CE0E0D9CF89E6D601A7
:102560008C938EE611968C93119786E6E4CF9B01AF
:1025700077FF02C030E020E0A1E0B0E0911102C09E
:10258000B0E0A0E0F9013196AE0FBF1F8B2C912C6B
:10259000BB2009F461C05401EFEFAE1ABE0AAA0DC8
:1025A000BB1DFA161B0619F014F04F2D4A1B5111D2
:1025B00088C0E3FC59C07601A42FB0E2A1114FC03E
:1025C000C40ED11C992309F45BC040E0D6011196DA
:1025D000F60190836D01552309F448C0012F060FC1
:1025E0009A81582F507184FF03C0913309F4015030
:1025F00010160CF047C0093008F008E0EEE2FE2E9D
:102600005B01A01AB10885019194819491082F3F34
:10261000320729F4D601FC92F60131966F01621758
:10262000730794F1021713077CF5DB01A21BB30BB0
:10263000AA24A394B12CAC0EBD1EAA0DBB1D1196ED
:102640008C9121503109D601119628153905F4F0E5
:10265000F60180836D01DBCFB12CA12CA0CFF70157
:10266000B1937F01A150AACF9111B0CFD601942F81
:1026700050E302C05D9391509111FCCFC40ED11C68
:1026800040E0ACCF01E0BACF80E3DBCF6217730745
:1026900031F4963388F4953311F4552369F0F6013B
:1026A0008083FD01842F90E2811108C0A40FB11D29
:1026B0001C9290E080E002CF81E3F1CF91938150B2
:1026C000F3CF911183CF8ACF283008F027E033274A
:1026D000DA01990F311D87FD916000966105710542
:1026E00039F432602E5F3D9330E32A95E1F7089587
:1026F0009F3F30F080387105610509F03C5F3C5F19
:102700003D93913008F08068911DDF93CF931F9324
:102710000F93FF92EF92192F987F9695E92F969538
:102720009695E90FFF27EC5BFE4F99273327EE24A0
:10273000FF24A701E70105900894079428F4360FB9
:10274000E71EF81E491F511D660F771F881F991F2E
:102750000694A1F70590079428F4E70EF81E491F88
:10276000561FC11D770F881F991F661F0694A1F77A
:102770000590079428F4F80E491F561FC71FD11D56
:10278000880F991F661F771F0694A1F7059007947D
:1027900020F4490F561FC71FD81F990F661F771FB8
:1027A000881F0694A9F784911095177041F0D6956B
:1027B000C79557954795F794E7941A95C1F7EAEEB0
:1027C000F0E068941590159135916591959105907B
:1027D0007FE27395E118F10A430B560BC90BD00940
:1027E000C0F7E10CF11E431F561FC91FD01D7EF418
:1027F000703311F48A95E6CFE894015030F0080F59
:102800000AF40027021708F4202F2395022F7A33A9
:1028100028F079E37D932A95E9F710C07D932A95F6
:1028200089F6069497956795379517951794E1184B
:10283000F10A430B560BC90BD00998F023957E91F2
:1028400073957A3308F070E37C932013B8F77E9188
:1028500070617D9330F0839571E37D9370E32A95E9
:10286000E1F71124EF90FF900F911F91CF91DF912D
:10287000992787FD90950895DC01FC01672F7191E0
:102880007723E1F7329704C07C916D937083629156
:10289000AE17BF07C8F30895E89409C097FB3EF44C
:1028A00090958095709561957F4F8F4F9F4F99239D
:1028B000A9F0F92F96E9BB279395F695879577951B
:1028C0006795B795F111F8CFFAF4BB0F11F460FFDB
:1028D0001BC06F5F7F4F8F4F9F4F16C0882311F033
:1028E00096E911C0772321F09EE8872F762F05C047
:1028F000662371F096E8862F70E060E02AF09A95E2
:10290000660F771F881FDAF7880F9695879597F9D6
:1029100008950E949C140C940D150E94FF1438F029
:102920000E94061520F0952311F00C94F6140C94D7
:10293000FC1411240C9441150E941E1570F3959FF0
:10294000C1F3950F50E0551F629FF001729FBB27A6
:10295000F00DB11D639FAA27F00DB11DAA1F649F42
:102960006627B00DA11D661F829F2227B00DA11DF5
:10297000621F739FB00DA11D621F839FA00D611D7B
:10298000221F749F3327A00D611D231F849F600D9C
:10299000211D822F762F6A2F11249F5750409AF0C5
:1029A000F1F088234AF0EE0FFF1FBB1F661F771F51
:1029B000881F91505040A9F79E3F510580F00C941C
:1029C000F6140C9441155F3FE4F3983ED4F38695DA
:1029D00077956795B795F795E7959F5FC1F7FE2BBC
:1029E000880F911D9695879597F9089597F99F6798
:1029F00080E870E060E008959FEF80EC0895002487
:102A00000A941616170618060906089500240A9453
:102A100012161306140605060895092E0394000CD9
:102A200011F4882352F0BB0F40F4BF2B11F460FF68
:102A300004C06F5F7F4F8F4F9F4F089557FD905891
:102A4000440F551F59F05F3F71F04795880F97FB72
:102A5000991F61F09F3F79F087950895121613062C
:102A60001406551FF2CF4695F1DF08C0161617065B
:102A70001806991FF1CF8695710561050894089590
:102A8000E894BB2766277727CB0197F908952F9203
:102A90003F924F925F926F927F928F929F92AF92EE
:102AA000BF92CF92DF92EF92FF920F931F93CF933B
:102AB000DF93CDB7DEB7CA1BDB0B0FB6F894DEBFD2
:102AC0000FBECDBF09942A88398848885F846E84F8
:102AD0007D848C849B84AA84B984C884DF80EE8042
:102AE000FD800C811B81AA81B981CE0FD11D0FB64B
:102AF000F894DEBF0FBECDBFED0108955058BB273F
:102B0000AA270E9496150C940D150E94FF1438F008
:102B10000E94061520F039F49F3F19F426F40C9416
:102B2000FC140EF4E095E7FB0C94F614E92F0E94D8
:102B30001E1558F3BA17620773078407950720F02C
:102B400079F4A6F50C9440150EF4E0950B2EBA2FEF
:102B5000A02D0B01B90190010C01CA01A0011124A3
:102B6000FF27591B99F0593F50F4503E68F11A164F
:102B7000F040A22F232F342F4427585FF3CF4695E0
:102B800037952795A795F0405395C9F77EF41F1602
:102B9000BA0B620B730B840BBAF09150A1F0FF0FCC
:102BA000BB1F661F771F881FC2F70EC0BA0F621FB8
:102BB000731F841F48F4879577956795B795F795A8
:102BC0009E3F08F0B0CF9395880F08F09927EE0F3D
:102BD0009795879508950E94FF150C940D150E94F6
:102BE000061558F00E94FF1440F029F45F3F29F0C9
:102BF0000C94F61451110C9441150C94FC140E9481
:102C00001E1568F39923B1F3552391F3951B550BCA
:102C1000BB27AA2762177307840738F09F5F5F4FAF
:102C2000220F331F441FAA1FA9F335D00E2E3AF0EE
:102C3000E0E832D091505040E695001CCAF72BD006
:102C4000FE2F29D0660F771F881FBB1F2617370757
:102C50004807AB07B0E809F0BB0B802DBF01FF2789
:102C600093585F4F3AF09E3F510578F00C94F6145C
:102C70000C9441155F3FE4F3983ED4F38695779525
:102C80006795B795F7959F5FC9F7880F911D969542
:102C9000879597F90895E1E0660F771F881FBB1F9E
:102CA000621773078407BA0720F0621B730B840B4B
:102CB000BA0BEE1F88F7E095089516F00C943717BD
:102CC0000C94FC1468940C94F6140E942615A8F336
:102CD0009923C1F3AEF3DF93CF931F930F93FF922A
:102CE000C92FDD2788232AF02197660F771F881FB9
:102CF000DAF720E030E040E85FEB9FE3883920F02E
:102D0000803E38F021968F770E947F15E8E6F0E04C
:102D100004C00E947F15E5E9F0E00E9445178B0191
:102D2000BE01EC01FB2E6F5771097595771F880B5B
:102D3000990B0E944E1428E132E741E35FE30E94C1
:102D40009C14AF2D9801AE01FF900F911F91CF9170
:102D5000DF910E9496150C940D15FA01EE0FFF1FDE
:102D6000309621053105A1F16115710561F48038B6
:102D7000BFE39B0749F168949038810561F0803882
:102D8000BFEF9B0741F099234AF5FF3FE10531056D
:102D9000210519F1E8940894E795D901AA2329F4AB
:102DA000AB2FBE2FF85FD0F310C0FF5F70F4A69575
:102DB000E0F7F73950F019F0FF3A38F49F779F9316
:102DC0000DD00F9007FC9058089546F00C94FC1419
:102DD00060E070E080E89FE308954FE79F775F939E
:102DE0004F933F932F930E9465162F913F914F91E0
:102DF0005F910E9489140C94051729F416F00C9425
:102E0000F6140C9440150C94FC140E942615A8F39B
:102E10009638A0F707F80F92E8942BE33AEA48EBCC
:102E20005FE70E949F140F920F920F924DB75EB70B
:102E30000F920E94AE17E2ECF0E00E9445174F910E
:102E40005F91EF91FF91E595EE1FFF1F49F0FE574F
:102E5000E0684427EE0F441FFA95E1F74195550BC2
:102E60000E9478170F9007FE0C946C1708959F3FEF
:102E700031F0915020F4879577956795B795880F35
:102E8000911D9695879597F90895DF93CF931F939A
:102E90000F93FF92EF92DF927B018C01689406C042
:102EA000DA2EEF010E949C14FE01E894A591259171
:102EB000359145915591A6F3EF010E949615FE01BB
:102EC0009701A801DA9469F7DF90EF90FF900F91D6
:102ED0001F91CF91DF9108959B01AC0160E070E0FC
:102EE00080E89FE30C94EB150C94F6140C943717C0
:102EF0000E942615D8F39923C9F3940F511DA3F30B
:102F00009150504094F059F0882332F0660F771FAB
:102F1000881F91505040C1F79E3F51052CF7880FF4
:102F2000911D9695879597F908955F3FACF0983E6F
:102F30009CF0BB27869577956795B79508F4B160A7
:102F40009395C1F7BB0F58F711F460FFE8CF6F5F9F
:102F50007F4F8F4F9F4FE3CF0C944115FA01DC0157
:102F6000AA0FBB1F9B01AC01BF5728F422273327B0
:102F70004427507820C0B75190F4AB2F00244695D9
:102F800037952795011CA395D2F3002071F0220FED
:102F9000331F441FB395DAF30ED00C947E156130C5
:102FA0007105A0E88A07B94630F49B01AC01662799
:102FB000772788279078309621F0208331834283C9
:102FC00053830895AA1BBB1B51E107C0AA1FBB1F57
:102FD000A617B70710F0A61BB70B881F991F5A95A5
:102FE000A9F780959095BC01CD01089597FB072E18
:102FF00016F4009407D077FD09D00E94E21707FC71
:1030000005D03EF4909581959F4F089570956195F8
:103010007F4F0895EE0FFF1F0590F491E02D099466
:103020000F931F93CF93DF938230910510F482E0CA
:1030300090E0E0910D04F0910E0430E020E0B0E06B
:10304000A0E0309799F42115310509F44AC0281BF6
:10305000390B24303105D8F58A819B8161157105C2
:1030600089F1FB0193838283FE0111C0408151816C
:103070000281138148175907E0F04817590799F45E
:10308000109761F012960C93129713961C93329638
:10309000CF01DF91CF911F910F91089500930D04FF
:1030A00010930E04F4CF2115310551F04217530748
:1030B00038F0A901DB019A01BD01DF01F801C1CFA0
:1030C000EF01F9CF90930E0480930D04CDCFFE0154
:1030D000E20FF31F819391932250310939832883A2
:1030E000D7CF20910B0430910C04232B41F4209175
:1030F00002013091030130930C0420930B042091C2
:103100000001309101012115310541F42DB73EB781
:103110004091040150910501241B350BE0910B04F3
:10312000F0910C04E217F307A0F42E1B3F0B2817B5
:10313000390778F0AC014E5F5F4F2417350748F030
:103140004E0F5F1F50930C0440930B048193919397
:103150009FCFF0E0E0E09CCFCF93DF930097E9F0C2
:10316000FC01329713821282A0910D04B0910E04DB
:10317000ED0130E020E01097A1F420813181820F31
:10318000931F20910B0430910C042817390709F084
:1031900061C0F0930C04E0930B04DF91CF9108958C
:1031A000EA01CE17DF07E8F54A815B819E014115F0
:1031B0005105B1F7E901FB83EA8349915991C40FA5
:1031C000D51FEC17FD0761F4808191810296840F71
:1031D000951FE90199838883828193819B838A83E8
:1031E000F0E0E0E012968D919C9113970097B9F56D
:1031F0002D913C911197CD010296820F931F209142
:103200000B0430910C042817390739F6309751F523
:1032100010920E0410920D04B0930C04A0930B04B2
:10322000BCCFD383C28340815181840F951FC817BF
:10323000D90761F44E5F5F4F88819981480F591F0C
:10324000518340838A819B81938382832115310539
:1032500009F0B0CFF0930E04E0930D049ECFFD0172
:10326000DC01C0CF13821282D7CFB0E0A0E0EBE345
:10327000F9E10C9449158C01009751F4CB010E949F
:1032800010188C01C801CDB7DEB7E0E10C946515CC
:10329000FC01E60FF71F9C0122503109E217F307EA
:1032A00008F49DC0D901CD91DC911197C617D707BD
:1032B00098F0C530D10530F3CE01049786179707F3
:1032C00008F3C61BD70B2297C193D1936D937C93C0
:1032D000CF010E94AC18D6CF5B01AC1ABD0A4C01DD
:1032E0008C0E9D1EA0910D04B0910E04512C412C0A
:1032F000F12CE12C109731F580910B0490910C0486
:103300008815990509F05CC04616570608F058C0A4
:103310008091000190910101009741F48DB79EB713
:103320004091040150910501841B950BE817F907A2
:1033300008F055C0F0930C04E0930B04F90171837D
:103340006083A0CF8D919C91119712966C901297EB
:1033500013967C901397A815B90559F56C0142E0B6
:10336000C40ED11CCA14DB0420F1AC014A195B095C
:10337000DA011296159780F062827382518340833E
:10338000D9016D937C93E114F10471F0D701139688
:10339000FC93EE93129776CF22968C0F9D1FF90126
:1033A00091838083F301EFCFF0930E04E0930D043B
:1033B00069CF4816590608F42C017D01D3019ACF34
:1033C000CB010E9410187C01009749F0AE01B801B2
:1033D0000E94F219C8010E94AC18870153CF10E077
:1033E00000E050CFFB01DC0102C001900D92415082
:1033F0005040D8F70895DC0101C06D934150504012
:10340000E0F70895FB01DC018D9101908019011016
:10341000D9F3990B0895FB01DC0101900D92002076
:10342000E1F70895FB0151915523A9F0BF01DC019B
:103430004D9145174111E1F759F4CD01019000205C
:1034400049F04D9140154111C9F3FB014111EFCFF6
:1034500081E090E00197089511E0C0E2D1E004C05E
:10346000FE010E940A182196C132D107C9F7F894CB
:02347000FFCF8C
:1034720000000F0480000000000014027401A1018A
:103482006102D201B001C40100000000F103740125
:103492008604AF034D046504D903230023434E542D
:1034A200005C005200470042004F005700460023D4
:0834B200434E542C000D0A00EA
:00000001FF
