:100000000C9421010C9449010C9449010C94DE09D3
:100010000C94DE090C94DE090C9449010C944901FE
:100020000C9449010C94560A0C9449010C94490112
:100030000C9449010C9449010C9449010C94490118
:100040000C9479080C9449010C9447080C942108ED
:100050000C9449010C9449010C9449010C944901F8
:100060000C94C3080C94490108000000BE92244976
:10007000123EABAAAA2ABECDCCCC4C3E00000080DA
:10008000BEABAAAAAA3E00000000BF000000803F4D
:100090000000000000084178D3BB4387D1133D190D
:1000A0000E3CC3BD4282AD2B3E68EC8276BED98F3A
:1000B000E1A93E4C80EFFFBE01C4FF7F3F0000007E
:1000C000000007634236B79BD8A71A39685618AEA6
:1000D000BAAB558C1D3CB7CC5763BD6DEDFD753E7D
:1000E000F6177231BF000000803F00407A10F35ACB
:1000F00000A0724E18090010A5D4E80000E8764868
:10010000170000E40B54020000CA9A3B000000E113
:10011000F505000080969800000040420F000000A6
:10012000A08601000000102700000000E803000086
:1001300000006400000000000A0000000000010050
:10014000000000002C76D888DC674F0823DFC1DF71
:10015000AE59E1B1B796E5E3E453C63AE651997674
:1001600096E8E6C28426EB898C9B62ED407C6FFCAE
:10017000EFBC9C9F40F2BAA56FA5F490055A2AF7F0
:100180005C936B6CF9676DC11BFCE0E40D47FEF5F9
:1001900020E6B500D0ED902E030094357705008061
:1001A000841E080000204E0A000000C80C333333C0
:1001B000330F986E12831141EF8D2114893BE65560
:1001C00016CFFEE6DB18D1844B381BF77C1D901D43
:1001D000A4BBE424203284725E228100C9F124ECA5
:1001E000A1E53D2700000000240027002A000000B0
:1001F00000080002010000030407000000000000E6
:10020000000000000000230026002900000000007C
:10021000250028002B000404040404040404020242
:100220000202020203030303030301020408102075
:100230004080010204081020010204081020C80AAE
:10024000551011241FBECFEFD8E0DEBFCDBF23E095
:10025000A8E3B1E001C01D92A630B207E1F711E0BA
:10026000A0E0B1E0E6ECF2E302C005900D92A83305
:10027000B107D9F711E0C0E2D1E004C02197FE0137
:100280000E943D17CF31D107C9F70E94030C0C948F
:1002900056190C9400000895AF92BF92CF92DF924E
:1002A000EF92FF920F931F93CF93DF936C017B012B
:1002B0008B01040F151FEB015E01AE18BF08C017BC
:1002C000D10759F06991D601ED91FC910190F0812F
:1002D000E02DC6010995892B79F7C501DF91CF91F2
:1002E0001F910F91FF90EF90DF90CF90BF90AF9054
:1002F0000895FC01538D448D252F30E0842F90E02C
:10030000821B930B541710F0CF9608950197089510
:10031000FC01918D828D981761F0A28DAE0FBF2FD9
:10032000B11D5D968C91928D9F5F9F73928F90E02F
:1003300008958FEF9FEF0895FC01918D828D98179E
:1003400031F0828DE80FF11D858D90E008958FEFDB
:100350009FEF0895FC01918D228D892F90E0805CA4
:100360009F4F821B91098F73992708958CE092E02B
:100370000E94AA0121E0892B09F420E0822F089530
:1003800080E090E0892B29F00E94B60181110C9445
:1003900000000895FC01A48DA80FB92FB11DA35A28
:1003A000BF4F2C91848D90E001968F739927848F95
:1003B000A689B7892C93A089B1898C9183708064B8
:1003C0008C93938D848D981306C00288F389E02D59
:1003D00080818F7D80830895EF92FF920F931F930A
:1003E000CF93DF93EC0181E0888F9B8D8C8D9813E8
:1003F0001AC0E889F989808185FF15C09FB7F894F4
:10040000EE89FF896083E889F9898081837080643F
:1004100080839FBF81E090E0DF91CF911F910F918A
:10042000FF90EF900895F62E0B8D10E00F5F1F4F99
:100430000F731127E02E8C8D8E110CC00FB607FCA8
:10044000FACFE889F989808185FFF5CFCE010E9436
:10045000CA01F1CFEB8DEC0FFD2FF11DE35AFF4FD9
:10046000F0829FB7F8940B8FEA89FB8980818062C4
:10047000CFCFCF93DF93EC01888D8823B9F0AA8981
:10048000BB89E889F9898C9185FD03C0808186FD4F
:100490000DC00FB607FCF7CF8C9185FFF2CF80819E
:1004A00085FFEDCFCE010E94CA01E9CFDF91CF9148
:1004B000089590E0FC01E251FE4F2491FC01E65DBD
:1004C000FD4F3491FC01EA5EFD4FE491EE23C9F04B
:1004D000222339F0233001F1A8F4213019F1223020
:1004E00029F1F0E0EE0FFF1FE45FFD4FA591B491FD
:1004F0008FB7F894EC91611126C030953E233C9360
:100500008FBF08952730A9F02830C9F0243049F76B
:10051000809180008F7D03C0809180008F778093D1
:100520008000DFCF84B58F7784BDDBCF84B58F7D2E
:10053000FBCF8091B0008F778093B000D2CF8091B5
:10054000B0008F7DF9CF3E2BDACFCF93DF9390E0D1
:10055000FC01E65DFD4F24918A5E9D4FFC01849174
:100560008823D1F090E0880F991FFC01EC51FE4FD9
:10057000A591B491FC01E45FFD4FC591D491611147
:100580000EC09FB7F8948C91E22FE0958E238C9348
:100590002881E223E8839FBFDF91CF9108958FB731
:1005A000F894EC91E22BEC938FBFF6CF3FB7F89421
:1005B0008091EE019091EF01A091F001B091F101D5
:1005C00026B5A89B05C02F3F19F00196A11DB11DAE
:1005D0003FBFBA2FA92F982F8827BC01CD01620FEA
:1005E000711D811D911D42E0660F771F881F991FA5
:1005F0004A95D1F708958F929F92AF92BF92CF9272
:10060000DF92EF92FF924B015C010E94D6026B01D8
:100610007C010E94D6026C197D098E099F09683EF3
:10062000734081059105A8F321E0821A9108A10881
:10063000B10888EEC80E83E0D81EE11CF11C8114BD
:100640009104A104B10429F7FF90EF90DF90CF90BF
:10065000BF90AF909F908F90089520919F01260F9B
:100660003327331F21323105ECF42091C301FC0103
:1006700090E080E0243069F082E00895A0919F012D
:100680002191AC0141585E4FA40FB52FB11D2C93A1
:100690000196861798F380919F01680F60939F01E0
:1006A00080E0089581E0089508958FEF9FEF089509
:1006B0008FEF9FEF08958091780190E0919581955B
:1006C00091090895CF93DF93CB01EA01642F0E9433
:1006D0002D03CE01DF91CF910895CF93DF931F9229
:1006E000CDB7DEB7698361E0CE0101960E942D038C
:1006F00081E090E00F90DF91CF9108952091F40177
:100700003091F5012817390771F49091F201809129
:10071000F301981741F0E091F201F0E0E85CFE4F40
:10072000808190E008958FEF9FEF0895EF92FF9200
:100730000F931F93CF93DF93DC015C96ED90FC90B9
:100740005D97E114F10479F481E090E013969C93B5
:100750008E93129790E080E0DF91CF911F910F91DF
:10076000FF90EF9008955196ED91FC91529750961D
:100770008C915097982F90950FB75E962C915E971D
:10078000122F127021FD6095F8942081112319F128
:10079000282B2083E7012197F1F728E0462F50E02E
:1007A000308160FF1AC0382B3083E7012197F1F7C1
:1007B000BA0175956795215089F7112381F08081E1
:1007C000892380830FBF5C968D919C910197F1F7EF
:1007D00081E090E0C1CF2923DCCF3923E5CF9081A0
:1007E000892BEFCF2091F4013091F50128173907BB
:1007F00071F48091F3012091F20190E0805C9F4FB1
:10080000821B910960E470E00E942917089590E02E
:1008100080E008952091F4013091F50128173907FF
:10082000B9F49091F2018091F301981789F0E09169
:10083000F201F0E0E85CFE4F80812091F20130E0AF
:100840002F5F3F4F2F7333272093F20190E00895DD
:100850008FEF9FEF089590E080E008954F925F92B0
:100860006F927F92AF92BF92CF92DF92EF92FF9200
:100870000F931F93CF93DF93CDB7DEB729970FB6B2
:10088000F894DEBF0FBECDBF8A01AB01770F660BB8
:10089000770B762F652F542F4427012E000C220B47
:1008A000330B402B512B622B732B092E000CAA0B00
:1008B000BB0BDC0199278827842B952BA62BB72B04
:1008C0006D01EE24FF24AC2C092F182FF12CE12C04
:1008D00088E0B82E8091AB029091AC02E816F90640
:1008E00008F006C18091B102412F502F6A2D882354
:1008F00071F08C9D90018D9D300D1124632F809F90
:1009000090011124532F819FC0011124492FE091A0
:10091000B7028091B2029091B3022091B402E21327
:10092000A3C09701220F331F2E0D3F1D820F931F6F
:10093000E091B402E80FF92FF11D6083E091B50258
:10094000E80FF92FF11D50832091B602820F911DFF
:10095000FC0140838091B2029091B302892B09F48B
:100960007FC04090B8025090B9026090BA02709077
:10097000BB020E94D602641575058605970550F4E2
:100980000E94D6026093B8027093B9028093BA02B3
:100990009093BB020E94D6024090B8025090B902D8
:1009A0006090BA027090BB026419750986099709B4
:1009B0006C32714081059105A0F2F8948091AD02EE
:1009C0009091AE029A838983E091B202F091B302D2
:1009D000DF011196808189879091A902E091BC0284
:1009E000F091BD028091BE02992309F449C0908123
:1009F000982B98879081809589238F838F818C8312
:100A0000BB8258856F8149853B812C8189819A8180
:100A1000508347FD252F3A952083262F39F0441F18
:100A200000C000006083000000C0F2CF38E04D91AC
:100A300060830000019761F7F093BD02E093BC0270
:100A400049873B832C839A83898378940E94D602BA
:100A50006093B8027093B9028093BA029093BB027C
:100A60002FEFE21AF20A36CF9701220F331F220F1F
:100A7000331F820F931FE80FF92FF11D108258CFFB
:100A80009081982B98879081809589238F838F817F
:100A90008E83BD8258856F8149853D812E818981F4
:100AA0009A81508347FD252F00C000C0208300C0DD
:100AB00000C000C000C000C060830000262F3A952F
:100AC00041F0441F000000C000C000C000C000C0D2
:100AD000E8CF38E04D9100C0608300C0019709F76E
:100AE000F093BD02E093BC0249873D832E83ABCFD8
:100AF00029960FB6F894DEBF0FBECDBFDF91CF9120
:100B00001F910F91FF90EF90DF90CF90BF90AF902B
:100B10007F906F905F904F900895CF93DF93EC019B
:100B200088819981009711F00E94DF17198218823D
:100B30001D821C821B821A82DF91CF910895FC01D5
:100B400080819181009711F00C94DF170895CF9365
:100B5000DF93FC01248135814217530788F4C0815B
:100B6000D181FB0160817181CE01840F951F0E94AC
:100B70003C19009729F08C1B9D0BDF91CF910895B4
:100B80008FEF9FEFFACF0F931F93CF93DF938C01DB
:100B9000EB01FC01808191810097E1F0688179810E
:100BA00061157105A9F0428153812C813D81421765
:100BB000530770F00E9435198C819D81F80195834F
:100BC00084831D821C82DF91CF911F910F91089524
:100BD0000E94DF1788819981F801918380838A813F
:100BE0009B81938382838C819D81958384831982E9
:100BF00018821B821A82E5CF0F931F93CF93DF9346
:100C0000EC0188819981009759F02A813B81261750
:100C1000370730F081E0DF91CF911F910F91089558
:100C20008B016F5F7F4F0E946818009759F099837E
:100C300088831B830A832C813D81232B59F7FC0178
:100C40001082E8CF80E0E7CFEF92FF920F931F93DF
:100C5000CF93DF936115710541F480E0DF91CF916F
:100C60001F910F91FF90EF90089541155105B1F03C
:100C70007B01EC010C811D81040F151FB8010E943E
:100C8000FC05882351F3288139818C819D81B7012E
:100C9000820F931F0E9435191D830C8381E0DECFE4
:100CA000CF93DF93EC01FB0101900020E9F731972E
:100CB000AF01461B570B0E942406811103C0CE01D1
:100CC0000E948D05CE01DF91CF910895CF93DF93E0
:100CD000EC01FB0144815581608171810E942406F1
:100CE000811103C0CE010E948D05CE01DF91CF910D
:100CF0000895EF92FF920F931F93CF93DF93EC0130
:100D00007B018A01BA010E94FC0581110BC0CE0152
:100D10000E948D05CE01DF91CF911F910F91FF9021
:100D2000EF9008951D830C83B701888199810E94FB
:100D30003519F0CFFB0101900020E9F73197AF01A1
:100D4000461B570B0C947906FC011182108213820A
:100D5000128215821482FB0101900020E9F731977D
:100D6000AF01461B570B0C947906AF92BF92CF92FE
:100D7000DF92EF92FF920F931F93CF93DF936C015B
:100D80005B017A0189012417350720F48F2D790141
:100D9000042F182F62E371E0C6010E94A406D5015A
:100DA0001496CD91DC91EC16FD06E0F40C171D07AE
:100DB00008F4E801D501ED91FC911197EC0FFD1FAE
:100DC000108110826D917C916E0D7F1DC6016115A1
:100DD0007105A1F00E949A06F50180819181C80FEA
:100DE000D91F1883C601DF91CF911F910F91FF90FA
:100DF000EF90DF90CF90BF90AF9008950E948D0547
:100E0000EBCF1F93CF93DF9385ED8093BC00809150
:100E10007B0190917C01A0917D01B0917E010796AC
:100E2000A11DB11D23E0B695A795979587952A95A5
:100E3000D1F72091BC0024FD03C01092C30152C021
:100E400040917B0150917C0160917D0170917E0108
:100E5000452B462B472B69F30097A105B10541F0BF
:100E600025E32A95F1F700000197A109B109E1CF27
:100E700080917A01C1E0C0937901882399F1D091E2
:100E8000B8001091BA008091BC008A7B8093BC00AE
:100E900060E082E10E94590260E083E10E94590211
:100EA0001092C301C093C5011092C40161E082E1B8
:100EB0000E94590261E083E10E9459028091B900C9
:100EC0008E7F8093B9008091B9008D7F8093B900A7
:100ED00088E48093B80085E48093BC001093BA0046
:100EE000D093B800DF91CF911F9108950F931F9376
:100EF000CF93DF93CDB7DEB7E4970FB6F894DEBF9C
:100F00000FBECDBF18AA1FA61AAA19AA1CAA1BAAEF
:100F10002AE0AE014F5F5F4F64EA71E183E090E049
:100F20000E94D810BE016F5F7F4FCE018F960E9446
:100F30009A0680910702909108021AA619A61CA68B
:100F40001BA61EA61DA64AE0BE016F5F7F4F0E9432
:100F50001E11BE016F5F7F4FCE0189960E949A06D7
:100F60006091030270910402809105029091060243
:100F70001CA21BA21EA21DA218A61FA28E010F5FFB
:100F80001F4F22E044E00E949310009709F454C0E0
:100F9000BC01CE0183960E949A066AE271E0CE01FE
:100FA00001960E94A406BE016D5D7F4FCE010196A1
:100FB0000E9466066EE271E00E945006BE01675D07
:100FC0007F4F0E9466066EE271E00E945006BE01ED
:100FD000615D7F4F0E94660660E371E00E945006EB
:100FE000FC0144815581608171818CE092E00E9416
:100FF0004C0142E050E060E371E08CE092E00E943E
:101000004C01CE0101960E949F05CE0183960E945D
:101010009F05CE0189960E949F05CE018F960E9462
:101020009F05E4960FB6F894DEBF0FBECDBFDF91EB
:10103000CF911F910F910895CE0183960E948D0547
:10104000ACCF1F920F920FB60F9211242F933F93A4
:101050004F935F936F937F938F939F93AF93BF93C0
:10106000EF93FF938CE092E00E94CA01FF91EF9111
:10107000BF91AF919F918F917F916F915F914F91B0
:101080003F912F910F900FBE0F901F9018951F92B8
:101090000F920FB60F9211242F938F939F93EF937C
:1010A000FF93E0911C02F0911D028081E0912202E9
:1010B000F091230282FD1BC09081809125028F5FF9
:1010C0008F7320912602821741F0E0912502F0E013
:1010D000E45FFD4F958F80932502FF91EF919F91E3
:1010E0008F912F910F900FBE0F901F9018958081B8
:1010F000F4CF1F920F920FB60F9211242F933F93AC
:101100008F939F93AF93BF938091EA019091EB01EE
:10111000A091EC01B091ED013091E90123E0230FA2
:101120002D3758F50196A11DB11D2093E90180933B
:10113000EA019093EB01A093EC01B093ED01809153
:10114000EE019091EF01A091F001B091F1010196B3
:10115000A11DB11D8093EE019093EF01A093F001CA
:10116000B093F101BF91AF919F918F913F912F91DA
:101170000F900FBE0F901F90189526E8230F029630
:10118000A11DB11DD2CF1F920F920FB60F92112445
:101190002F933F934F935F936F937F938F939F937F
:1011A000AF93BF93EF93FF938091B900887F803610
:1011B00009F44AC0F0F5883209F4A5C018F5803169
:1011C00009F499C0B8F4882309F4F5C0883009F40B
:1011D00092C0FF91EF91BF91AF919F918F917F91BD
:1011E0006F915F914F913F912F910F900FBE0F9094
:1011F0001F901895883109F486C0803251F780938A
:10120000C20114C0803409F49BC040F48033B9F3A8
:101210008833F9F68093C20185ECAEC0803509F4BD
:1012200083C0883509F494C0883499F60E94010778
:10123000D0CF883909F48AC038F5883729F050F4BE
:10124000883611F0803729F683E08093C30110922D
:10125000C10155C0883809F479C0803919F0803847
:1012600009F0B7CF8091C101803208F06FC0E091E2
:10127000C10181E08E0F8093C1018091BB00F0E03D
:10128000EF55FE4F80833BC0803B39F0D0F4803A6D
:1012900009F477C0883A09F09CCF84E08093C301B9
:1012A0001092A00110929F01F0E0E0E0099580917A
:1012B0009F0181110FC081E080939F0110927F01F7
:1012C00009C0803C09F4A8CF883C09F4A5CF883B2D
:1012D00009F07FCFE091A00181E08E0F8093A00103
:1012E000F0E0E158FE4F80818093BB009091A00117
:1012F00080919F0129C08091E8018093BB0085EC1B
:101300008093BC0066CF9091E7018091E601981729
:1013100058F5E091E70181E08E0F8093E701F0E05E
:10132000EA53FE4F8081E9CFE091E70181E08E0F23
:101330008093E7018091BB00F0E0EA53FE4F808389
:101340009091E7018091E6019817C8F285E8D8CF1F
:10135000E091E70181E08E0F8093E7018091BB006F
:10136000F0E0EA53FE4F80838091C50181115ECF8A
:1013700081E08093C40184EA8093BC001092C30191
:1013800028CF85EC8093BC001092C3018091C101ED
:10139000803230F4E091C101F0E0EF55FE4F108251
:1013A0006091C10170E081EA91E0F0E0E0E0099530
:1013B0001092C1010ECF1092C20138CF1F920F922E
:1013C0000FB60F9211242F933F934F935F936F9318
:1013D0007F938F939F93AF93BF93EF93FF93E0918E
:1013E000F401F091F501309749F0A685B785858520
:1013F000968D91FF14C09C918923A1F4FF91EF91E8
:10140000BF91AF919F918F917F916F915F914F911C
:101410003F912F910F900FBE0F901F9018959C91A8
:10142000892361F7A389B4899C9185898095892353
:101430008C93868997890197F1F7608D718DA685C8
:10144000B785558538E020E0CB010197F1F7822F71
:1014500090E095958795282F4C91452309F02068B9
:10146000315091F7868D81FD20958091F30190E0B8
:1014700001968F7399273091F201381799F0A09156
:10148000F301B0E0A85CBE4F2C938093F301828DF2
:10149000938D0197F1F7A389B4898C919589892B54
:1014A0008C93ACCF868D8160868FF1CF1F920F9287
:1014B0000FB60F9211242F933F934F935F936F9327
:1014C0007F938F939F93AF93BF93EF93FF938091FD
:1014D000FC019091FD018093B2008091FF019091F9
:1014E0000002A0910102B09102020196A11DB11D5E
:1014F0008093FF0190930002A0930102B093020237
:101500008091FF0190910002A0910102B09102022E
:101510004091F8015091F9016091FA017091FB013D
:1015200084179507A607B70710F18091FE01811176
:101530001EC081E08093FE018091FF019091000226
:10154000A0910102B0910202841B950BA60BB70B70
:101550008093FF0190930002A0930102B0930202D6
:10156000E091F601F091F70109951092FE01FF91CB
:10157000EF91BF91AF919F918F917F916F915F910B
:101580004F913F912F910F900FBE0F901F90189584
:10159000CF92DF92EF92FF9210920F0210920E0202
:1015A00028EEC22E23E0D22EE12CF12CC0921002A4
:1015B000D0921102E0921202F09213028AE091E0BE
:1015C00090930D0280930C0285EC90E090931902A9
:1015D0008093180284EC90E090931B0280931A028F
:1015E00080EC90E090931D0280931C0281EC90E0CF
:1015F00090931F0280931E0282EC90E09093210250
:101600008093200286EC90E0909323028093220244
:1016100010922502109226021092270210922802A0
:1016200062E371E08CEF92E00E94A40662E371E055
:1016300086EF92E00E94A40662E371E080EF92E000
:101640000E94A40662E371E08AEE92E00E94A40682
:1016500062E371E084EE92E00E94A4061092E1023F
:101660001092E0021092E3021092E2021092C20283
:101670001092C102C092C302D092C402E092C5028D
:10168000F092C6028CE191E09093C0028093BF0279
:101690001092D6021092D5021092D8021092D70260
:1016A0001092DA021092D9021092DC021092DB0240
:1016B0006091DD026E7F6D7F6093DD0266956170E3
:1016C00081E0682787E00E94590261E087E00E947C
:1016D000A502E1E3F2E0E491E093CF02EDE1F2E074
:1016E000E491F0E0EE0FFF1FE45FFD4F85919491D0
:1016F0009093D1028093D00260E088E00E94A5021E
:101700008091DD0281FD04C061E088E00E94590201
:1017100088E08093CB02E2E3F2E0E491E093CC0234
:10172000EEE1F2E0E491F0E0EE0FFF1FEE5FFD4F1F
:10173000859194919093CE028093CD021092AA024B
:101740001092B1021092B8021092B9021092BA022D
:101750001092BB0281E08093B7028093B402109292
:10176000B50292E09093B6028093A90288E490E0DB
:101770009093AE028093AD020E9443179093B30200
:101780008093B202009709F435C028E4FC0111925D
:101790002A95E9F788E190E09093AC028093AB0240
:1017A00086E090E09093B0028093AF028091AA020D
:1017B000882341F061E086E00E94A50260E086E0B7
:1017C0000E945902ECE1F2E0E491F0E0EE0FFF1F1D
:1017D000E45FFD4F859194919093BD028093BC028C
:1017E000E0E3F2E0E491E093BE02FF90EF90DF903F
:1017F000CF9008951092AE021092AD021092AC02FA
:101800001092AB02CDCFCF93DF93CDB7DEB7E79782
:101810000FB6F894DEBF0FBECDBF789484B582605A
:1018200084BD84B5816084BD85B5826085BD85B584
:10183000816085BD80916E00816080936E00109202
:10184000810080918100826080938100809181007D
:10185000816080938100809180008160809380000E
:101860008091B10084608093B1008091B00081606C
:101870008093B00080917A00846080937A00809198
:101880007A00826080937A0080917A0081608093F0
:101890007A0080917A00806880937A001092C1006B
:1018A000E0911C02F0911D0282E08083E091180219
:1018B000F09119021082E0911A02F0911B0280E16E
:1018C000808310922402E0912002F091210286E0B0
:1018D0008083E0911E02F0911F02808180618083ED
:1018E000E0911E02F0911F02808188608083E09168
:1018F0001E02F0911F02808180688083E0911E02A9
:10190000F0911F0280818F7D80838FEB92E0909316
:10191000DF028093DE021092DA021092D902109256
:10192000D8021092D7021092D6021092D5028FE1FF
:1019300090E09093DC028093DB029091CB02963191
:1019400008F047C021E030E03093D6022093D50262
:101950002DE130E03093D8022093D7022DE030E023
:101960003093DA022093D9022091680084E0983005
:1019700048F031E09E3008F430E081E001C0880F8B
:101980003A95EAF7822B809368002DE630E0983094
:1019900050F02BE630E09E3030F02CE630E096310F
:1019A00010F030E020E03093D3022093D202292FB0
:1019B00030E0983008F07CC081E001C0880F9A9533
:1019C000EAF78093D4028091DB029091DC020197C8
:1019D000F1F78091D9029091DA02892B49F1E091D7
:1019E000F401F091F50182E0EF3BF80709F130973F
:1019F00039F0A389B4899C918589809589238C933A
:101A00008091DD028E7F8093DD021092F3011092AF
:101A1000F2018FEB92E09093F5018093F401E09155
:101A2000D202F091D30280819091D402892B8083DD
:101A30008091AF029091B00297FD08C061E00E94D2
:101A4000A50260E08091AF020E94590281E080937C
:101A5000AA024091AD025091AE0270E060E0809128
:101A6000B2029091B3020E942E196091B1026038C7
:101A700091F12091B2023091B302615031F170E0E6
:101A80008FEF9FE70E941517F9014091AD02509129
:101A9000AE02CF01821B930B84179507C8F44081D7
:101AA000469FC001479F900D112490833196EDCF42
:101AB0009E3040F42850310981E001C0880F2A95FA
:101AC000EAF77FCF2E503109F7CF70E060E0DCCF2E
:101AD00080E88093B1024FEF50E06FEF70E08FEF3E
:101AE00090E00E942E0484E690E0A0E0B0E08093B5
:101AF000F8019093F901A093FA01B093FB0186E7F6
:101B000097E09093F7018093F601809170008E7FAB
:101B1000809370008091B0008C7F8093B0008091A2
:101B2000B100877F8093B1008091B6008F7D809354
:101B3000B600809170008D7F809370008091B1001D
:101B400084608093B1008091B1008C7F8093B1005C
:101B500086E090E09093FD018093FC011092FF01DC
:101B60001092000210920102109202021092FE01E5
:101B70008091FC019091FD018093B20080917000F2
:101B80008160809370008E010F5F1F4FDE011996F8
:101B9000BDABACAB78EC272E312C80E480937C007D
:101BA00080917A00806480937A0080917A0086FD2B
:101BB000FCCF8091780060917900762F682F072EF6
:101BC000000C880B990B0E9481136B017C0120E0B3
:101BD00030E44CE156E40E94BC134B015C01A701C8
:101BE000960160E070EC8FE794E40E94B1149B01D1
:101BF000AC01C501B4010E941E1520E030E44CE1A7
:101C000056E40E941E150E9498156B017C0120E08D
:101C100030E040E450E40E94E0154B015C012DEF00
:101C200039EB49E657E5C701B6010E94BC132DE523
:101C300037EA4EE359E50E94B2142B013C01A7019B
:101C40009601C701B6010E94BC132DEF32E848E1AE
:101C500054E50E94BC139B01AC01C301B2010E9478
:101C6000B2146B017C0126EE39EC4DE651E5C5015D
:101C7000B4010E94BC139B01AC01C701B6010E94D4
:101C8000B2142BE63BE04EE55DE50E941E159B017C
:101C9000AC0160E070E080E89FE30E941E1523E342
:101CA00033E948E853E40E94B1146093030270934F
:101CB0000402809305029093060269E0D62EF80193
:101CC0008D2D11928A95E9F78091DE029091DF02C5
:101CD000DC01ED91FC910084F185E02D0995892BC3
:101CE00071F38091DE029091DF02DC01ED91FC91B5
:101CF0000284F385E02D0995893531F78091DE0264
:101D00009091DF02DC01ED91FC910284F385E02DDE
:101D100009958935C9F67E01B3E0EB0EF11C52EB53
:101D2000852E912CA12CB12C8091DE029091DF02A6
:101D3000DC01ED91FC910284F385E02D0995F7011A
:101D400081937F01880E911CA11CB11C8CA99DA9B7
:101D50008E179F0749F78091DE029091DF02DC0128
:101D6000ED91FC910284F385E02D09959924AA2434
:101D7000BB2490E0B0E0A0E088169906AA06BB0656
:101D800009F0A2CF8C81282F30E0322F22278B81BF
:101D9000820F932F911D9093E1028093E0022E8198
:101DA00030E0322F22274D81240F311D3093E30282
:101DB0002093E2028B3091050CF454C090930802FA
:101DC000809307028091070290910802883C910558
:101DD00020F030920802209207026AE070E080E072
:101DE00090E00E94FB028CE092E00E94AA01892B05
:101DF00009F44EC162E371E0CE018E960E94A40602
:101E000062E371E0CE0188960E94A40662E371E06D
:101E1000CE0182960E94A40662E371E0CE014C9648
:101E20000E94A40662E371E0CE0146960E94A406D9
:101E300062E371E0CE0140960E94A4068CE092E03D
:101E40000E94AA01892B99F08CE092E00E948801FF
:101E500089831A8241E050E0B801CE0188960E9441
:101E60002406ECCF3092080220920702ABCF1B86EB
:101E70001A861D861C861F861E8668A579A5611593
:101E8000710531F04CA55DA5CE010A960E94790638
:101E900063E371E0C8010E94A40650E040E0B8018D
:101EA000CE010A960E94A7057C01C8010E949F05E9
:101EB0006EE271E0C8010E94A406A701B801CE013C
:101EC0000A960E94A7054C01C8010E949F05640163
:101ED000BFEFCB1ADB0A6EE271E0C8010E94A406D4
:101EE000A601B801CE010A960E94A7055C01C801AF
:101EF0000E949F057501EFEFEE1AFE0A6EE271E097
:101F0000C8010E94A406A701B801CE010A960E944A
:101F1000A7052C01C8010E949F053201FFEF6F1A2F
:101F20007F0A65E371E0C8010E94A406A301B8011D
:101F3000CE010A960E94A7059FAB8EABC8010E94F6
:101F40009F05940150E040E0BE01665F7F4FC801ED
:101F50000E94B506B8018CEF92E00E94C305C8014B
:101F60000E949F059501A601BE01665F7F4FC801D3
:101F70000E94B506B80186EF92E00E94C305C80131
:101F80000E949F058091F6029091F702D12C009754
:101F900019F00E94B110D62ED0920B029201A70127
:101FA000BE01665F7F4FC8010E94B506B80180EF91
:101FB00092E00E94C305C8010E949F058091F00233
:101FC0009091F102F12C009719F00E94B110F62EB9
:101FD000F0920A022EA93FA9A301BE01665F7F4FBE
:101FE000C8010E94B506B8018AEE92E00E94C305BE
:101FF000C8010E949F058091EA029091EB0260E087
:10200000009711F00E94B11060930902DD2021F0C9
:10201000662311F0F11007C08FEF80930B028093BD
:10202000090280930A024091090250E060910A027D
:1020300070E080910B0290E00E942E046CED75E040
:1020400080E090E00E94FB024FEF50E06FEF70E005
:102050008FEF90E00E942E04CE010A960E949F0509
:10206000CE0140960E949F05CE0146960E949F0594
:10207000CE014C960E949F05CE0182960E949F053C
:10208000CE0188960E949F05CE018E960E949F05E4
:1020900080E090E0892B09F480CD0E94B60188236E
:1020A00009F478CD0E94000075CD8091B202909124
:1020B000B3020E94DF178091AF029091B00297FDAA
:1020C00003C060E00E94A5028CE191E09093C00201
:1020D0008093BF028091F4019091F5018F5B924053
:1020E00071F4E091D202F091D30290818091D402F8
:1020F0008095892380831092F5011092F40184EE7B
:1021000092E00E949F058AEE92E00E949F0580EF78
:1021100092E00E949F0586EF92E00E949F058CEF5F
:1021200092E00C949F05EF920F931F93CF93DF9350
:10213000E80134E047FD34E1042E000C550B57FF55
:1021400003C0519541955109E32E022F242FAE0172
:102150000E943811CE01DF91CF911F910F91EF9026
:1021600008951F93FC0199278827BC01E8941191D9
:102170001032E9F3193010F01E30C8F31B3251F061
:102180001D3249F4689406C00E94E710610F711D6A
:10219000811D911D119110531A30B0F33EF49095AA
:1021A0008095709561957F4F8F4F9F4F1F91089538
:1021B000BB272A3051F4992342F4BDE290958095D3
:1021C000709561957F4F8F4F9F4F0C94FD10592F45
:1021D000482F372F262F660F771F881F991F660FEE
:1021E000771F881F991F620F731F841F951F660F2B
:1021F000771F881F991F0895BB27FA01A62F621722
:10220000710581059105330B30FB66F0AA27660F37
:10221000771F881F991FAA1FA21710F0A21B639592
:102220003850A9F7A05DAA3308F0A95DA19336F74D
:10223000B111B1931082CA010C946F13BB27FB013B
:102240005527AA27880F991FAA1FA41710F0A41BAF
:1022500083955051B9F7A05DAA3308F0A95DA19309
:10226000009779F7B111B1931192CB010C946F13D0
:10227000A9E0B0E0EEE3F1E10C9480146A01F22EE3
:10228000B02E102FFBE3AF2EA01608F41BE31F5F48
:10229000012F27E0AE014F5F5F4F0E949712BC01F4
:1022A0008981982F9970913009F43FC09BE2E1FC3D
:1022B00004C09E2D9170E0FC3AC05E2D5071E82F55
:1022C000E87083FF46C084E0911101C083E0EF2DE8
:1022D000E81B8F1508F0E0E0D6018E2F20E2552391
:1022E00051F1992329F0D6019C93C60101966C0106
:1022F00096012D5F3F4FE2FE24C08EE4D6018C9301
:1023000091E411969C93119712968C93D9018E2F7C
:1023100090E281111BC0E20FF32FF11D10828EEFAE
:102320009FEF2996ECE00C949C149DE2C6CF90E2BE
:10233000C4CF2D9381508111FCCFCE0ED11CE0E093
:10234000D0CF8EE6D6018C9391E6DBCF9D93815062
:10235000E0CF482F447082FF3DC084E0911101C05E
:1023600083E08F1510F4EF2DE81BD6018E2F20E2AD
:10237000552309F1992329F0D6019C93C6010196B2
:102380006C0196012D5F3F4FE2FE1BC089E4D60130
:102390008C938EE411968C93119786E412968C930D
:1023A000D9018E2F90E2882309F4B5CF9D938150F7
:1023B000FACF2D9381508111FCCFCE0ED11CE0E0DD
:1023C000D9CF89E6D6018C938EE611968C9311971E
:1023D00086E6E4CF9B0177FF02C030E020E0A1E079
:1023E000B0E0911102C0B0E0A0E0F9013196AE0F6B
:1023F000BF1F8B2C912CBB2009F461C05401EFEF5F
:10240000AE1ABE0AAA0DBB1DFA161B0619F014F06F
:102410004F2D4A1B511188C0E3FC59C07601A42FEF
:10242000B0E2A1114FC0C40ED11C992309F45BC0C6
:1024300040E0D6011196F60190836D01552309F411
:1024400048C0012F060F9A81582F507184FF03C096
:10245000913309F4015010160CF047C0093008F010
:1024600008E0EEE2FE2E5B01A01AB108850191940E
:10247000819491082F3F320729F4D601FC92F6018E
:1024800031966F016217730794F1021713077CF5F9
:10249000DB01A21BB30BAA24A394B12CAC0EBD1E6E
:1024A000AA0DBB1D11968C9121503109D6011196B0
:1024B00028153905F4F0F60180836D01DBCFB12CCE
:1024C000A12CA0CFF701B1937F01A150AACF911108
:1024D000B0CFD601942F50E302C05D93915091117B
:1024E000FCCFC40ED11C40E0ACCF01E0BACF80E3FA
:1024F000DBCF6217730731F4963388F4953311F408
:10250000552369F0F6018083FD01842F90E281114B
:1025100008C0A40FB11D1C9290E080E002CF81E3BF
:10252000F1CF91938150F3CF911183CF8ACF28308F
:1025300008F027E03327DA01990F311D87FD9160FC
:1025400000966105710539F432602E5F3D9330E3EA
:102550002A95E1F708959F3F30F0803871056105B5
:1025600009F03C5F3C5F3D93913008F08068911D1D
:10257000DF93CF931F930F93FF92EF92192F987FC2
:102580009695E92F96959695E90FFF27EC5BFE4F00
:1025900099273327EE24FF24A701E701059008942B
:1025A000079428F4360FE71EF81E491F511D660FC9
:1025B000771F881F991F0694A1F70590079428F4A8
:1025C000E70EF81E491F561FC11D770F881F991F60
:1025D000661F0694A1F70590079428F4F80E491F8A
:1025E000561FC71FD11D880F991F661F771F06949E
:1025F000A1F70590079420F4490F561FC71FD81F55
:10260000990F661F771F881F0694A9F7849110956C
:10261000177041F0D695C79557954795F794E7946D
:102620001A95C1F7EAEEF0E068941590159135918E
:102630006591959105907FE27395E118F10A430B3E
:10264000560BC90BD009C0F7E10CF11E431F561FF2
:10265000C91FD01D7EF4703311F48A95E6CFE8943B
:10266000015030F0080F0AF40027021708F4202F59
:102670002395022F7A3328F079E37D932A95E9F7A1
:1026800010C07D932A9589F606949795679537959E
:1026900017951794E118F10A430B560BC90BD00993
:1026A00098F023957E9173957A3308F070E37C93CC
:1026B0002013B8F77E9170617D9330F0839571E3BC
:1026C0007D9370E32A95E1F71124EF90FF900F912D
:1026D0001F91CF91DF91992787FD90950895DC0197
:1026E000FC01672F71917723E1F7329704C07C9149
:1026F0006D9370836291AE17BF07C8F30895E89495
:1027000009C097FB3EF490958095709561957F4F39
:102710008F4F9F4F9923A9F0F92F96E9BB279395E7
:10272000F695879577956795B795F111F8CFFAF4F7
:10273000BB0F11F460FF1BC06F5F7F4F8F4F9F4F28
:1027400016C0882311F096E911C0772321F09EE886
:10275000872F762F05C0662371F096E8862F70E0EC
:1027600060E02AF09A95660F771F881FDAF7880FC6
:102770009695879597F908950E94CF130C9440146D
:102780000E94321438F00E94391420F0952311F081
:102790000C9429140C942F1411240C9474140E947A
:1027A000511470F3959FC1F3950F50E0551F629F30
:1027B000F001729FBB27F00DB11D639FAA27F00D9A
:1027C000B11DAA1F649F6627B00DA11D661F829FC1
:1027D0002227B00DA11D621F739FB00DA11D621FA6
:1027E000839FA00D611D221F749F3327A00D611DC3
:1027F000231F849F600D211D822F762F6A2F1124A5
:102800009F5750409AF0F1F088234AF0EE0FFF1FD7
:10281000BB1F661F771F881F91505040A9F79E3F2E
:10282000510580F00C9429140C9474145F3FE4F368
:10283000983ED4F3869577956795B795F795E79584
:102840009F5FC1F7FE2B880F911D9695879597F98D
:10285000089597F99F6780E870E060E008959FEF22
:1028600080EC089500240A94161617061806090627
:10287000089500240A9412161306140605060895F6
:10288000092E0394000C11F4882352F0BB0F40F47E
:10289000BF2B11F460FF04C06F5F7F4F8F4F9F4FBE
:1028A000089557FD9058440F551F59F05F3F71F040
:1028B0004795880F97FB991F61F09F3F79F08795A7
:1028C0000895121613061406551FF2CF4695F1DF30
:1028D00008C0161617061806991FF1CF86957105C0
:1028E000610508940895E894BB2766277727CB01F4
:1028F00097F908952F923F924F925F926F927F9235
:102900008F929F92AF92BF92CF92DF92EF92FF92FF
:102910000F931F93CF93DF93CDB7DEB7CA1BDB0BAB
:102920000FB6F894DEBF0FBECDBF09942A88398850
:1029300048885F846E847D848C849B84AA84B98457
:10294000C884DF80EE80FD800C811B81AA81B98163
:10295000CE0FD11D0FB6F894DEBF0FBECDBFED0177
:1029600008955058BB27AA270E94C9140C944014FC
:102970000E94321438F00E94391420F039F49F3F3D
:1029800019F426F40C942F140EF4E095E7FB0C9444
:102990002914E92F0E94511458F3BA1762077307DC
:1029A0008407950720F079F4A6F50C9473140EF4BF
:1029B000E0950B2EBA2FA02D0B01B90190010C014F
:1029C000CA01A0011124FF27591B99F0593F50F467
:1029D000503E68F11A16F040A22F232F342F4427BF
:1029E000585FF3CF469537952795A795F0405395B7
:1029F000C9F77EF41F16BA0B620B730B840BBAF087
:102A00009150A1F0FF0FBB1F661F771F881FC2F7F1
:102A10000EC0BA0F621F731F841F48F48795779505
:102A20006795B795F7959E3F08F0B0CF9395880FBF
:102A300008F09927EE0F9795879508950E94321513
:102A40000C9440140E94391458F00E94321440F043
:102A500029F45F3F29F00C94291451110C9474143B
:102A60000C942F140E94511468F39923B1F3552349
:102A700091F3951B550BBB27AA2762177307840791
:102A800038F09F5F5F4F220F331F441FAA1FA9F327
:102A900035D00E2E3AF0E0E832D091505040E69515
:102AA000001CCAF72BD0FE2F29D0660F771F881F76
:102AB000BB1F261737074807AB07B0E809F0BB0B69
:102AC000802DBF01FF2793585F4F3AF09E3F51057D
:102AD00078F00C9429140C9474145F3FE4F3983E3E
:102AE000D4F3869577956795B795F7959F5FC9F766
:102AF000880F911D9695879597F90895E1E0660FE7
:102B0000771F881FBB1F621773078407BA0720F05F
:102B1000621B730B840BBA0BEE1F88F7E0950895C8
:102B200016F00C946A160C942F1468940C942914C3
:102B30000E945914A8F39923C1F3AEF3DF93CF9306
:102B40001F930F93FF92C92FDD2788232AF0219727
:102B5000660F771F881FDAF720E030E040E85FEB70
:102B60009FE3883920F0803E38F021968F770E94CD
:102B7000B214E8E6F0E004C00E94B214E5E9F0E027
:102B80000E9478168B01BE01EC01FB2E6F57710974
:102B90007595771F880B990B0E94811328E132E706
:102BA00041E35FE30E94CF13AF2D9801AE01FF9088
:102BB0000F911F91CF91DF910E94C9140C94401482
:102BC000FA01EE0FFF1F309621053105A1F16115C5
:102BD000710561F48038BFE39B0749F16894903830
:102BE000810561F08038BFEF9B0741F099234AF5DA
:102BF000FF3FE1053105210519F1E8940894E795B7
:102C0000D901AA2329F4AB2FBE2FF85FD0F310C04F
:102C1000FF5F70F4A695E0F7F73950F019F0FF3A2E
:102C200038F49F779F930DD00F9007FC905808952C
:102C300046F00C942F1460E070E080E89FE3089564
:102C40004FE79F775F934F933F932F930E94981581
:102C50002F913F914F915F910E94BC130C943816B5
:102C600029F416F00C9429140C9473140C942F145A
:102C70000E945914A8F39638A0F707F80F92E89429
:102C80002BE33AEA48EB5FE70E94D2130F920F92D0
:102C90000F924DB75EB70F920E94E116E2ECF0E0A2
:102CA0000E9478164F915F91EF91FF91E595EE1F8D
:102CB000FF1F49F0FE57E0684427EE0F441FFA95C6
:102CC000E1F74195550B0E94AB160F9007FE0C944F
:102CD0009F1608959F3F31F0915020F48795779586
:102CE0006795B795880F911D9695879597F90895E3
:102CF000DF93CF931F930F93FF92EF92DF927B01AD
:102D00008C01689406C0DA2EEF010E94CF13FE01F9
:102D1000E894A5912591359145915591A6F3EF0140
:102D20000E94C914FE019701A801DA9469F7DF90A7
:102D3000EF90FF900F911F91CF91DF9108959B012C
:102D4000AC0160E070E080E89FE30C941E150C94E9
:102D500029140C946A160E945914D8F39923C9F3C4
:102D6000940F511DA3F39150504094F059F08823D3
:102D700032F0660F771F881F91505040C1F79E3F79
:102D800051052CF7880F911D9695879597F9089511
:102D90005F3FACF0983E9CF0BB2786957795679592
:102DA000B79508F4B1609395C1F7BB0F58F711F4CC
:102DB00060FFE8CF6F5F7F4F8F4F9F4FE3CF0C9443
:102DC0007414FA01DC01AA0FBB1F9B01AC01BF57B1
:102DD00028F4222733274427507820C0B75190F495
:102DE000AB2F0024469537952795011CA395D2F368
:102DF000002071F0220F331F441FB395DAF30ED079
:102E00000C94B11461307105A0E88A07B94630F41A
:102E10009B01AC016627772788279078309621F0B0
:102E200020833183428353830895AA1BBB1B51E146
:102E300007C0AA1FBB1FA617B70710F0A61BB70B2A
:102E4000881F991F5A95A9F780959095BC01CD01CF
:102E5000089597FB072E16F4009407D077FD09D04C
:102E60000E94151707FC05D03EF4909581959F4F61
:102E70000895709561957F4F0895EE0FFF1F05909F
:102E8000F491E02D09940F931F93CF93DF93823039
:102E9000910510F482E090E0E0910403F0910503C5
:102EA00030E020E0B0E0A0E0309799F42115310542
:102EB00009F44AC0281B390B24303105D8F58A8122
:102EC0009B816115710589F1FB0193838283FE016A
:102ED00011C0408151810281138148175907E0F0E8
:102EE0004817590799F4109761F012960C931297AE
:102EF00013961C933296CF01DF91CF911F910F91C2
:102F000008950093040310930503F4CF21153105B0
:102F100051F04217530738F0A901DB019A01BD01B6
:102F2000DF01F801C1CFEF01F9CF90930503809342
:102F30000403CDCFFE01E20FF31F81939193225042
:102F4000310939832883D7CF2091020330910303BD
:102F5000232B41F4209102013091030130930303AC
:102F600020930203209100013091010121153105C8
:102F700041F42DB73EB74091040150910501241B47
:102F8000350BE0910203F0910303E217F307A0F47D
:102F90002E1B3F0B2817390778F0AC014E5F5F4FAF
:102FA0002417350748F04E0F5F1F509303034093DB
:102FB0000203819391939FCFF0E0E0E09CCFCF9309
:102FC000DF930097E9F0FC01329713821282A091FF
:102FD0000403B0910503ED0130E020E01097A1F467
:102FE00020813181820F931F2091020330910303CE
:102FF0002817390709F061C0F0930303E093020337
:10300000DF91CF910895EA01CE17DF07E8F54A81F5
:103010005B819E0141155105B1F7E901FB83EA830C
:1030200049915991C40FD51FEC17FD0761F48081B8
:1030300091810296840F951FE9019983888382818B
:1030400093819B838A83F0E0E0E012968D919C91BE
:1030500013970097B9F52D913C911197CD010296E8
:10306000820F931F20910203309103032817390721
:1030700039F6309751F51092050310920403B0937E
:103080000303A0930203BCCFD383C2834081518149
:10309000840F951FC817D90761F44E5F5F4F888171
:1030A0009981480F591F518340838A819B81938363
:1030B00082832115310509F0B0CFF0930503E09329
:1030C00004039ECFFD01DC01C0CF13821282D7CF53
:1030D000B0E0A0E0EEE6F8E10C947C148C010097DF
:1030E00051F4CB010E9443178C01C801CDB7DEB764
:1030F000E0E10C949814FC01E60FF71F9C012250AC
:103100003109E217F30708F49DC0D901CD91DC9194
:103110001197C617D70798F0C530D10530F3CE0107
:1031200004978617970708F3C61BD70B2297C193FE
:10313000D1936D937C93CF010E94DF17D6CF5B01B3
:10314000AC1ABD0A4C018C0E9D1EA0910403B091D7
:103150000503512C412CF12CE12C109731F5809175
:103160000203909103038815990509F05CC0461687
:10317000570608F058C08091000190910101009716
:1031800041F48DB79EB74091040150910501841B15
:10319000950BE817F90708F055C0F0930303E09387
:1031A0000203F90171836083A0CF8D919C911197E7
:1031B00012966C90129713967C901397A815B905E8
:1031C00059F56C0142E0C40ED11CCA14DB0420F195
:1031D000AC014A195B09DA011296159780F06282F8
:1031E000738251834083D9016D937C93E114F10480
:1031F00071F0D7011396FC93EE93129776CF229637
:103200008C0F9D1FF90191838083F301EFCFF09321
:103210000503E093040369CF4816590608F42C010E
:103220007D01D3019ACFCB010E9443177C01009707
:1032300049F0AE01B8010E942519C8010E94DF17AC
:10324000870153CF10E000E050CFFB01DC0102C04A
:1032500001900D9241505040D8F70895DC0101C013
:103260006D9341505040E0F70895FB01DC0101905F
:103270000D920020E1F70895FB0151915523A9F02B
:10328000BF01DC014D9145174111E1F759F4CD0122
:103290000190002049F04D9140154111C9F3FB0107
:1032A0004111EFCF81E090E00197089511E0C0E275
:1032B000D1E004C0FE010E943D172196C132D10722
:0632C000C9F7F894FFCFEE
:1032C60000000603800000000000EC014C017901BB
:1032D6003902AA0188019C010000000096034C01F6
:1032E6002B045403F2030A047E0323434E542C009A
:0832F6000D0A0023000D000089
:00000001FF
