:100000000C9421010C9449010C9449010C94480A68
:100010000C94480A0C94480A0C9449010C94490128
:100020000C9449010C94C00A0C9449010C944901A8
:100030000C9449010C9449010C9449010C94490118
:100040000C94E3080C9449010C94B1080C948B08AF
:100050000C9449010C9449010C9449010C944901F8
:100060000C942D090C94490108000000BE9224490B
:10007000123EABAAAA2ABECDCCCC4C3E00000080DA
:10008000BEABAAAAAA3E00000000BF000000803F4D
:100090000000000000084178D3BB4387D1133D190D
:1000A0000E3CC3BD4282AD2B3E68EC8276BED98F3A
:1000B000E1A93E4C80EFFFBE01C4FF7F3F0000007E
:1000C000000007634236B79BD8A71A39685618AEA6
:1000D000BAAB558C1D3CB7CC5763BD6DEDFD753E7D
:1000E000F6177231BF000000803F00407A10F35ACB
:1000F00000A0724E18090010A5D4E80000E8764868
:10010000170000E40B54020000CA9A3B000000E113
:10011000F505000080969800000040420F000000A6
:10012000A08601000000102700000000E803000086
:1001300000006400000000000A0000000000010050
:10014000000000002C76D888DC674F0823DFC1DF71
:10015000AE59E1B1B796E5E3E453C63AE651997674
:1001600096E8E6C28426EB898C9B62ED407C6FFCAE
:10017000EFBC9C9F40F2BAA56FA5F490055A2AF7F0
:100180005C936B6CF9676DC11BFCE0E40D47FEF5F9
:1001900020E6B500D0ED902E030094357705008061
:1001A000841E080000204E0A000000C80C333333C0
:1001B000330F986E12831141EF8D2114893BE65560
:1001C00016CFFEE6DB18D1844B381BF77C1D901D43
:1001D000A4BBE424203284725E228100C9F124ECA5
:1001E000A1E53D2700000000240027002A000000B0
:1001F00000080002010000030407000000000000E6
:10020000000000000000230026002900000000007C
:10021000250028002B000404040404040404020242
:100220000202020203030303030301020408102075
:100230004080010204081020010204081020320B43
:10024000061111241FBECFEFD8E0DEBFCDBF24E0E2
:10025000A8E4B1E001C01D92A931B207E1F711E0B5
:10026000A0E0B1E0E4E5F4E302C005900D92A8340B
:10027000B107D9F711E0C0E2D1E004C02197FE0137
:100280000E94FB17CF31D107C9F70E94610C0C9473
:100290001D1A0C9400000895AF92BF92CF92DF9286
:1002A000EF92FF920F931F93CF93DF936C017B012B
:1002B0008B01040F151FEB015E01AE18BF08C017BC
:1002C000D10759F06991D601ED91FC910190F0812F
:1002D000E02DC6010995892B79F7C501DF91CF91F2
:1002E0001F910F91FF90EF90DF90CF90BF90AF9054
:1002F0000895FC01538D448D252F30E0842F90E02C
:10030000821B930B541710F0CF9608950197089510
:10031000FC01918D828D981761F0A28DAE0FBF2FD9
:10032000B11D5D968C91928D9F5F9F73928F90E02F
:1003300008958FEF9FEF0895FC01918D828D98179E
:1003400031F0828DE80FF11D858D90E008958FEFDB
:100350009FEF0895FC01918D228D892F90E0805CA4
:100360009F4F821B91098F73992708958BE293E029
:100370000E94AA0121E0892B09F420E0822F089530
:1003800080E090E0892B29F00E94B60181110C9445
:1003900000000895FC01A48DA80FB92FB11DA35A28
:1003A000BF4F2C91848D90E001968F739927848F95
:1003B000A689B7892C93A089B1898C9183708064B8
:1003C0008C93938D848D981306C00288F389E02D59
:1003D00080818F7D80830895EF92FF920F931F930A
:1003E000CF93DF93EC0181E0888F9B8D8C8D9813E8
:1003F0001AC0E889F989808185FF15C09FB7F894F4
:10040000EE89FF896083E889F9898081837080643F
:1004100080839FBF81E090E0DF91CF911F910F918A
:10042000FF90EF900895F62E0B8D10E00F5F1F4F99
:100430000F731127E02E8C8D8E110CC00FB607FCA8
:10044000FACFE889F989808185FFF5CFCE010E9436
:10045000CA01F1CFEB8DEC0FFD2FF11DE35AFF4FD9
:10046000F0829FB7F8940B8FEA89FB8980818062C4
:10047000CFCFCF93DF93EC01888D8823B9F0AA8981
:10048000BB89E889F9898C9185FD03C0808186FD4F
:100490000DC00FB607FCF7CF8C9185FFF2CF80819E
:1004A00085FFEDCFCE010E94CA01E9CFDF91CF9148
:1004B000089590E0FC01E251FE4F2491FC01E65DBD
:1004C000FD4F3491FC01EA5EFD4FE491EE23C9F04B
:1004D000222339F0233001F1A8F4213019F1223020
:1004E00029F1F0E0EE0FFF1FE45FFD4FA591B491FD
:1004F0008FB7F894EC91611126C030953E233C9360
:100500008FBF08952730A9F02830C9F0243049F76B
:10051000809180008F7D03C0809180008F778093D1
:100520008000DFCF84B58F7784BDDBCF84B58F7D2E
:10053000FBCF8091B0008F778093B000D2CF8091B5
:10054000B0008F7DF9CF3E2BDACFCF93DF9390E0D1
:10055000FC01E65DFD4F24918A5E9D4FFC01849174
:100560008823D1F090E0880F991FFC01EC51FE4FD9
:10057000A591B491FC01E45FFD4FC591D491611147
:100580000EC09FB7F8948C91E22FE0958E238C9348
:100590002881E223E8839FBFDF91CF9108958FB731
:1005A000F894EC91E22BEC938FBFF6CF8E3008F0ED
:1005B0008E508770806480937C0080917A00806484
:1005C00080937A0080917A0086FDFCCF809178003C
:1005D0009091790008953FB7F89480910602909128
:1005E0000702A0910802B091090226B5A89B05C098
:1005F0002F3F19F00196A11DB11D3FBFBA2FA92FA2
:10060000982F8827BC01CD01620F711D811D911D9E
:1006100042E0660F771F881F991F4A95D1F708950A
:100620002091B701260F3327331F21323105ECF417
:100630002091DB01FC0190E080E0243069F082E051
:100640000895A091B7012191AC0149565E4FA40FC6
:10065000B52FB11D2C930196861798F38091B701A1
:10066000680F6093B70180E0089581E008950895D0
:100670008FEF9FEF08958FEF9FEF08958091900186
:1006800090E09195819591090895CF93DF93CB01E7
:10069000EA01642F0E941003CE01DF91CF910895EB
:1006A000CF93DF931F92CDB7DEB7698361E0CE01B0
:1006B00001960E94100381E090E00F90DF91CF91AE
:1006C000089520910C0230910D022817390771F41A
:1006D00090910A0280910B02981741F0E0910A0272
:1006E000F0E0E05BFE4F808190E008958FEF9FEF98
:1006F0000895EF92FF920F931F93CF93DF93DC0146
:100700005C96ED90FC905D97E114F10479F481E042
:1007100090E013969C938E93129790E080E0DF9187
:10072000CF911F910F91FF90EF9008955196ED9109
:10073000FC91529750968C915097982F90950FB7A7
:100740005E962C915E97122F127021FD6095F894A1
:100750002081112319F1282B2083E7012197F1F73C
:1007600028E0462F50E0308160FF1AC0382B3083DC
:10077000E7012197F1F7BA0175956795215089F73F
:10078000112381F08081892380830FBF5C968D9136
:100790009C910197F1F781E090E0C1CF2923DCCF54
:1007A0003923E5CF9081892BEFCF20910C02309136
:1007B0000D022817390771F480910B0220910A026B
:1007C00090E0805C9F4F821B910960E470E00E9482
:1007D000D217089590E080E0089520910C023091A6
:1007E0000D0228173907B9F490910A0280910B0283
:1007F000981789F0E0910A02F0E0E05BFE4F8081FB
:1008000020910A0230E02F5F3F4F2F733327209350
:100810000A0290E008958FEF9FEF089590E080E046
:1008200008954F925F926F927F92AF92BF92CF9254
:10083000DF92EF92FF920F931F93CF93DF93CDB789
:10084000DEB729970FB6F894DEBF0FBECDBF8A0181
:10085000AB01770F660B770B762F652F542F44274C
:10086000012E000C220B330B402B512B622B732BD0
:10087000092E000CAA0BBB0BDC0199278827842BBF
:10088000952BA62BB72B6D01EE24FF24AC2C092F42
:10089000182FF12CE12C88E0B82E8091CA0390919A
:1008A000CB03E816F90608F006C18091D003412F6A
:1008B000502F6A2D882371F08C9D90018D9D300DF5
:1008C0001124632F809F90011124532F819FC00119
:1008D0001124492FE091D6038091D1039091D20346
:1008E0002091D303E213A3C09701220F331F2E0DD3
:1008F0003F1D820F931FE091D303E80FF92FF11DE5
:100900006083E091D403E80FF92FF11D508320910B
:10091000D503820F911DFC0140838091D1039091FA
:10092000D203892B09F47FC04090D7035090D8039D
:100930006090D9037090DA030E94EB02641575058C
:100940008605970550F40E94EB026093D7037093DD
:10095000D8038093D9039093DA030E94EB0240906E
:10096000D7035090D8036090D9037090DA036419CC
:100970007509860997096C32714081059105A0F2CD
:10098000F8948091CC039091CD039A838983E09170
:10099000D103F091D203DF01119680818987909174
:1009A000C803E091DB03F091DC038091DD03992320
:1009B00009F449C09081982B98879081809589236C
:1009C0008F838F818C83BB8258856F8149853B8162
:1009D0002C8189819A81508347FD252F3A95208368
:1009E000262F39F0441F00C000006083000000C0C3
:1009F000F2CF38E04D9160830000019761F7F093EA
:100A0000DC03E093DB0349873B832C839A83898350
:100A100078940E94EB026093D7037093D80380937D
:100A2000D9039093DA032FEFE21AF20A36CF970137
:100A3000220F331F220F331F820F931FE80FF92F4E
:100A4000F11D108258CF9081982B988790818095C6
:100A500089238F838F818E83BD8258856F814985DD
:100A60003D812E8189819A81508347FD252F00C0C9
:100A700000C0208300C000C000C000C000C0608370
:100A80000000262F3A9541F0441F000000C000C02E
:100A900000C000C000C0E8CF38E04D9100C06083C6
:100AA00000C0019709F7F093DC03E093DB0349876B
:100AB0003D832E83ABCF29960FB6F894DEBF0FBED1
:100AC000CDBFDF91CF911F910F91FF90EF90DF90FD
:100AD000CF90BF90AF907F906F905F904F900895B0
:100AE000CF93DF93EC0188819981009711F00E94E8
:100AF0009D18198218821D821C821B821A82DF9126
:100B0000CF910895FC0180819181009711F00C94A0
:100B10009D180895CF93DF93FC01248135814217FE
:100B2000530788F4C081D181FB0160817181CE01BE
:100B3000840F951F0E94031A009729F08C1B9D0BB0
:100B4000DF91CF9108958FEF9FEFFACFFC012481C1
:100B50003581232B39F421E0FB018081882349F082
:100B600020E007C0808191810E94F31921E0892B48
:100B7000B9F7822F08950F931F93CF93DF938C01C2
:100B8000EB01FC01808191810097E1F0688179811E
:100B900061157105A9F0428153812C813D81421775
:100BA000530770F00E94FC198C819D81F801958398
:100BB00084831D821C82DF91CF911F910F91089534
:100BC0000E949D1888819981F801918380838A8190
:100BD0009B81938382838C819D81958384831982F9
:100BE00018821B821A82E5CF0F931F93CF93DF9356
:100BF000EC0188819981009759F02A813B81261761
:100C0000370730F081E0DF91CF911F910F91089568
:100C10008B016F5F7F4F0E942619009759F09983CF
:100C200088831B830A832C813D81232B59F7FC0188
:100C30001082E8CF80E0E7CFEF92FF920F931F93EF
:100C4000CF93DF936115710541F480E0DF91CF917F
:100C50001F910F91FF90EF90089541155105B1F04C
:100C60007B01EC010C811D81040F151FB8010E944E
:100C7000F405882351F3288139818C819D81B70146
:100C8000820F931F0E94FC191D830C8381E0DECF2D
:100C9000CF93DF93EC01FB0101900020E9F731973E
:100CA000AF01461B570B0E941C06811103C0CE01E9
:100CB0000E947005CE01DF91CF910895CF93DF930D
:100CC000EC01FB0144815581608171810E941C0609
:100CD000811103C0CE010E947005CE01DF91CF913A
:100CE0000895EF92FF920F931F93CF93DF93EC0140
:100CF0007B018A01BA010E94F40581110BC0CE016B
:100D00000E947005CE01DF91CF911F910F91FF904E
:100D1000EF9008951D830C83B701888199810E940B
:100D2000FC19F0CFFB0101900020E9F73197AF01EA
:100D3000461B570B0C947106FC0111821082138222
:100D4000128215821482FB0101900020E9F731978D
:100D5000AF01461B570B0C947106AF92BF92CF9216
:100D6000DF92EF92FF920F931F93CF93DF936C016B
:100D70005B017A0189012417350720F48F2D790151
:100D8000042F182F62E371E0C6010E949C06D50172
:100D90001496CD91DC91EC16FD06E0F40C171D07BE
:100DA00008F4E801D501ED91FC911197EC0FFD1FBE
:100DB000108110826D917C916E0D7F1DC6016115B1
:100DC0007105A1F00E949206F50180819181C80F02
:100DD000D91F1883C601DF91CF911F910F91FF900A
:100DE000EF90DF90CF90BF90AF9008950E94700574
:100DF000EBCF1F93CF93DF9385ED8093BC00809161
:100E0000930190919401A0919501B091960107965C
:100E1000A11DB11D23E0B695A795979587952A95B5
:100E2000D1F72091BC0024FD03C01092DB0152C019
:100E300040919301509194016091950170919601B8
:100E4000452B462B472B69F30097A105B10541F0CF
:100E500025E32A95F1F700000197A109B109E1CF37
:100E600080919201C1E0C0939101882399F1D091C2
:100E7000B8001091BA008091BC008A7B8093BC00BE
:100E800060E082E10E94590260E083E10E94590221
:100E90001092DB01C093DD011092DC0161E082E180
:100EA0000E94590261E083E10E9459028091B900D9
:100EB0008E7F8093B9008091B9008D7F8093B900B7
:100EC00088E48093B80085E48093BC001093BA0056
:100ED000D093B800DF91CF911F910895AF92BF9248
:100EE000CF92DF92EF92FF920F931F93CF93DF93F6
:100EF000CDB7DEB7E4970FB6F894DEBF0FBECDBF17
:100F000018AA1FA61AAA19AA1CAA1BAA2AE0AE018F
:100F10004F5F5F4F69EC74E383E090E00E948111C2
:100F2000BE016F5F7F4FCE018F960E9492061AA678
:100F300019A61CA61BA61EA61DA64AE0BE016F5F31
:100F40007F4F90E080E00E94C711BE016F5F7F4F2E
:100F5000CE0189960E94920660911B0270911C023C
:100F600080911D0290911E021CA21BA21EA21DA216
:100F700018A61FA28E010F5F1F4F21E043E00E94C1
:100F80003C11009709F4C2C0BC01CE0183960E94B7
:100F900092066AE271E0CE0101960E949C06BE01B3
:100FA0006D5D7F4FCE0101960E945E066EE271E09C
:100FB0000E944806BE01675D7F4F0E945E066EE29A
:100FC00071E00E944806BE01615D7F4F0E945E068F
:100FD00060E371E00E944806FC0144815581608114
:100FE00071818BE293E00E944C01CE0101960E9438
:100FF0008205CE0183960E948205CE0189960E94C9
:101000008205CE018F960E94820580912603882357
:1010100019F1209148013091490140914A015091C4
:101020004B0160914C0170914D0180914E01909166
:101030004F01A1E00E94E617209348013093490137
:1010400040934A0150934B0160934C0170934D01C2
:1010500080934E0190934F013091280320912703F4
:10106000932F990F990BA0904801B0904901C0901F
:101070004A01D0904B01E0904C01F0904D0100915D
:101080004E0110914F01492F592F692F792F892F28
:101090000E94F21750F580912603882331F1409188
:1010A000CC035091CD0370E060E08091D10390912A
:1010B000D2030E94EC194FEF50E06FEF70E08FEF1A
:1010C00090E00E94110410922603109248011092A1
:1010D000490110924A0110924B0110924C0110925A
:1010E0004D0110924E0110924F01E4960FB6F89404
:1010F000DEBF0FBECDBFDF91CF911F910F91FF904B
:10110000EF90DF90CF90BF90AF900895CE0183967F
:101110000E9470053ECF1F920F920FB60F921124BE
:101120002F933F934F935F936F937F938F939F93EF
:10113000AF93BF93EF93FF938BE293E00E94CA01BA
:10114000FF91EF91BF91AF919F918F917F916F919F
:101150005F914F913F912F910F900FBE0F901F9075
:1011600018951F920F920FB60F9211242F938F9301
:101170009F93EF93FF93E0913B03F0913C038081B9
:10118000E0914103F091420382FD1BC09081809168
:1011900044038F5F8F7320914503821741F0E091E4
:1011A0004403F0E0E55DFC4F958F80934403FF918D
:1011B000EF919F918F912F910F900FBE0F901F90E5
:1011C00018958081F4CF1F920F920FB60F921124C1
:1011D0002F933F938F939F93AF93BF93809102027E
:1011E00090910302A0910402B09105023091010296
:1011F00023E0230F2D3758F50196A11DB11D209333
:1012000001028093020290930302A0930402B09320
:1012100005028091060290910702A0910802B09108
:1012200009020196A11DB11D809306029093070249
:10123000A0930802B0930902BF91AF919F918F9143
:101240003F912F910F900FBE0F901F90189526E899
:10125000230F0296A11DB11DD2CF1F920F920FB680
:101260000F9211242F933F934F935F936F937F932C
:101270008F939F93AF93BF93EF93FF938091B900A8
:10128000887F803609F44AC0F0F5883209F4A5C099
:1012900018F5803109F499C0B8F4882309F4F5C031
:1012A000883009F492C0FF91EF91BF91AF919F9167
:1012B0008F917F916F915F914F913F912F910F90FF
:1012C0000FBE0F901F901895883109F486C08032A8
:1012D00051F78093DA0114C0803409F49BC040F4C4
:1012E0008033B9F38833F9F68093DA0185ECAEC028
:1012F000803509F483C0883509F494C0883499F6A0
:101300000E94F906D0CF883909F48AC038F58837A9
:1013100029F050F4883611F0803729F683E0809365
:10132000DB011092D90155C0883809F479C08039A1
:1013300019F0803809F0B7CF8091D901803208F0D8
:101340006FC0E091D90181E08E0F8093D901809127
:10135000BB00F0E0E754FE4F80833BC0803B39F098
:10136000D0F4803A09F477C0883A09F09CCF84E041
:101370008093DB011092B8011092B701F0E0E0E039
:1013800009958091B70181110FC081E08093B70169
:101390001092970109C0803C09F4A8CF883C09F459
:1013A000A5CF883B09F07FCFE091B80181E08E0F97
:1013B0008093B801F0E0E956FE4F80818093BB0036
:1013C0009091B8018091B70129C08091000280936B
:1013D000BB0085EC8093BC0066CF9091FF018091AB
:1013E000FE01981758F5E091FF0181E08E0F809380
:1013F000FF01F0E0E252FE4F8081E9CFE091FF0172
:1014000081E08E0F8093FF018091BB00F0E0E252FB
:10141000FE4F80839091FF018091FE019817C8F2E2
:1014200085E8D8CFE091FF0181E08E0F8093FF0126
:101430008091BB00F0E0E252FE4F80838091DD019D
:1014400081115ECF81E08093DC0184EA8093BC004F
:101450001092DB0128CF85EC8093BC001092DB0159
:101460008091D901803230F4E091D901F0E0E75465
:10147000FE4F10826091D90170E089EB91E0F0E0BD
:10148000E0E009951092D9010ECF1092DA0138CF21
:101490001F920F920FB60F9211242F933F934F93E9
:1014A0005F936F937F938F939F93AF93BF93EF93CC
:1014B000FF93E0910C02F0910D02309749F0A68560
:1014C000B7858585968D91FF14C09C918923A1F4E1
:1014D000FF91EF91BF91AF919F918F917F916F910C
:1014E0005F914F913F912F910F900FBE0F901F90E2
:1014F00018959C91892361F7A389B4899C9185896A
:10150000809589238C93868997890197F1F7608D5F
:10151000718DA685B785558538E020E0CB01019710
:10152000F1F7822F90E095958795282F4C914523D0
:1015300009F02068315091F7868D81FD20958091CA
:101540000B0290E001968F73992730910A023817A9
:1015500099F0A0910B02B0E0A05BBE4F2C9380935A
:101560000B02828D938D0197F1F7A389B4898C9139
:101570009589892B8C93ACCF868D8160868FF1CF36
:101580001F920F920FB60F9211242F933F934F93F8
:101590005F936F937F938F939F93AF93BF93EF93DB
:1015A000FF9380911402909115028093B200809174
:1015B000170290911802A0911902B0911A02019697
:1015C000A11DB11D8093170290931802A0931902D8
:1015D000B0931A028091170290911802A0911902FB
:1015E000B0911A02409110025091110260911202C2
:1015F0007091130284179507A607B70710F1809121
:10160000160281111EC081E080931602809117029C
:1016100090911802A0911902B0911A02841B950BA7
:10162000A60BB70B8093170290931802A093190290
:10163000B0931A02E0910E02F0910F0209951092F8
:101640001602FF91EF91BF91AF919F918F917F9182
:101650006F915F914F913F912F910F900FBE0F901F
:101660001F901895CF92DF92EF92FF9210922E0367
:1016700010922D0328EEC22E23E0D22EE12CF12C65
:10168000C0922F03D0923003E0923103F0923203E4
:101690008AE091E090932C0380932B0385EC90E0FB
:1016A000909338038093370384EC90E090933A034F
:1016B0008093390380EC90E090933C0380933B034C
:1016C00081EC90E090933E0380933D0382EC90E0A8
:1016D0009093400380933F0386EC90E09093420305
:1016E00080934103109244031092450310924603E5
:1016F0001092470362E371E08FE094E00E949C0641
:1017000062E371E089E094E00E949C0662E371E08C
:1017100083E094E00E949C06109200041092FF0364
:1017200010920204109201041092E1031092E0035F
:10173000C092E203D092E303E092E403F092E50367
:101740008CE191E09093DF038093DE031092F50328
:101750001092F4031092F7031092F6031092F9031B
:101760001092F8031092FB031092FA036091FC03AD
:101770006E7F6D7F6093FC036695617081E06827E2
:1017800087E00E94590261E087E00E94A502E1E340
:10179000F2E0E491E093EE03EDE1F2E0E491F0E0B9
:1017A000EE0FFF1FE45FFD4F859194919093F0033E
:1017B0008093EF0360E088E00E94A5028091FC0323
:1017C00081FD04C061E088E00E94590288E08093B6
:1017D000EA03E2E3F2E0E491E093EB03EEE1F2E00E
:1017E000E491F0E0EE0FFF1FEE5FFD4F85919491C5
:1017F0009093ED038093EC031092C9031092D003F1
:101800001092D7031092D8031092D9031092DA03E2
:1018100081E08093D6038093D3031092D40392E0A7
:101820009093D5038093C8038BE490E09093CD030D
:101830008093CC030E9401189093D2038093D1032C
:10184000009709F435C02BE4FC0111922A95E9F7C1
:1018500089E190E09093CB038093CA0386E090E007
:101860009093CF038093CE038091C903882341F0E6
:1018700061E086E00E94A50260E086E00E945902D5
:10188000ECE1F2E0E491F0E0EE0FFF1FE45FFD4FCA
:10189000859194919093DC038093DB03E0E3F2E085
:1018A000E491E093DD03FF90EF90DF90CF900895F7
:1018B0001092CD031092CC031092CB031092CA0366
:1018C000CDCFCF93DF93CDB7DEB76C970FB6F8943B
:1018D000DEBF0FBECDBF789484B5826084BD84B571
:1018E000816084BD85B5826085BD85B5816085BD1B
:1018F00080916E00816080936E00109281008091D3
:10190000810082608093810080918100816080935A
:101910008100809180008160809380008091B1007F
:1019200084608093B1008091B00081608093B000AA
:1019300080917A00846080937A0080917A0082603E
:1019400080937A0080917A00816080937A00809100
:101950007A00806880937A001092C100E0913B0386
:10196000F0913C0382E08083E0913703F0913803EB
:101970001082E0913903F0913A0380E18083109264
:101980004303E0913F03F091400386E08083E091C0
:101990003D03F0913E03808180618083E0913D03AF
:1019A000F0913E03808188608083E0913D03F09157
:1019B0003E03808180688083E0913D03F0913E0387
:1019C00080818F7D80838091CE039091CF0397FD9E
:1019D00008C061E00E94A50260E08091CE030E94F1
:1019E000590281E08093C9034091CC035091CD030B
:1019F00070E060E08091D1039091D2030E94EC19D5
:101A00006091D0036B3029F12091D1033091D20342
:101A10006150C9F070E08FEF9AE00E94BE17F901A3
:101A20004091CC035091CD03CF01821B930B8417BF
:101A3000950760F44081469FC001479F900D112497
:101A400090833196EDCF70E060E0E9CF8BE080933A
:101A5000D00350E040E070E060E090E080E00E9461
:101A600011048EED93E09093FE038093FD0310929A
:101A7000F9031092F8031092F7031092F6031092F4
:101A8000F5031092F4038FE190E09093FB038093B1
:101A9000FA039091EA03963108F047C021E030E064
:101AA0003093F5032093F4032DE130E03093F703F6
:101AB0002093F6032DE030E03093F9032093F803F0
:101AC0002091680084E0983048F031E09E3008F4BE
:101AD00030E081E001C0880F3A95EAF7822B8093CD
:101AE00068002DE630E0983050F02BE630E09E3074
:101AF00030F02CE630E0963110F030E020E030930A
:101B0000F2032093F103292F30E0983008F096C1BA
:101B100081E001C0880F9A95EAF78093F3038091E2
:101B2000FA039091FB030197F1F78091F8039091EC
:101B3000F903892B49F1E0910C02F0910D0223E0A9
:101B4000EE3DF20709F1309739F0A389B4899C91F1
:101B50008589809589238C938091FC038E7F809367
:101B6000FC0310920B0210920A028EED93E0909308
:101B70000D0280930C02E091F103F091F203808159
:101B80009091F303892B8083E5E2F2E080E01192EB
:101B900011928F5F8038D9F784E690E0A0E0B0E042
:101BA0008093100290931102A0931202B09313023B
:101BB0008EE697E090930F0280930E028091700062
:101BC0008E7F809370008091B0008C7F8093B000F6
:101BD0008091B100877F8093B1008091B6008F7DA6
:101BE0008093B600809170008D7F8093700080910B
:101BF000B10084608093B1008091B1008C7F8093AC
:101C0000B10086E090E09093150280931402109248
:101C10001702109218021092190210921A021092D2
:101C2000160280911402909115028093B200809167
:101C3000700081608093700031E1232E312CFF24ED
:101C4000F39420E0C22E20E0D22E809125038090D4
:101C5000210290902202A0902302B09024028111D0
:101C6000FAC00E94D602E5E2F2E08193919325E268
:101C700033E02E173F07C9F7E5E2F2E080E041913B
:101C80005191052E000C660B770B840E951EA61E37
:101C9000B71E8F5F803899F78092210290922202BE
:101CA000A0922302B092240280911F029091200200
:101CB00001969093200280931F02F0922503609179
:101CC00021027091220280912302909124020E94AD
:101CD000281420E030E040E05CE30E9465144B01F2
:101CE0005C0120E030E44CE156E40E9465142B01D5
:101CF0003C01A501940160E070E080E894E40E945A
:101D00005A159B01AC01C301B2010E94C71520E026
:101D100030E44CE156E40E94C7150E9441164B0185
:101D20005C0120E030E040E450E40E9489162B0181
:101D30003C012DEF39EB49E657E5C501B4010E949E
:101D400065142DE537EA4EE359E50E945B15698F6E
:101D50007A8F8B8F9C8FA5019401C501B4010E94DD
:101D600065142DEF32E848E154E50E9465149B01AB
:101D7000AC01698D7A8D8B8D9C8D0E945B154B011A
:101D80005C0126EE39EC4DE651E5C301B2010E943B
:101D900065149B01AC01C501B4010E945B152BE6E3
:101DA0003BE04EE55DE50E94C7159B01AC0160E09C
:101DB00070E080E89FE30E94C71523E333E948E819
:101DC00053E40E945A1560931B0270931C02809387
:101DD0001D0290931E028BE293E00E94AA01892BC0
:101DE00009F4C2C18BE293E00E94390262E371E020
:101DF000CE0143960E949C0662E371E0CE010D96EF
:101E00000E949C06B12CA12C8BE293E00E94AA01B7
:101E1000892B09F45DC08BE293E00E9488018983DD
:101E20001A8241E050E0BE016F5F7F4FCE010D96F8
:101E30000E941C063FEFA31AB30AE6CF9E3040F47F
:101E40002850310981E001C0880F2A95EAF765CE54
:101E50002E503109F7CF80912503882309F42FCF25
:101E600080E00E94D602AC0120911F023091200236
:101E7000F901EE0FFF1FEB5DFD4F80819181092E6F
:101E8000000CAA0BBB0B881A990AAA0ABB0A518339
:101E90004083CA01550FAA0BBB0B880D991DAA1DC3
:101EA000BB1D8093210290932202A0932302B09342
:101EB00024022F5F3F4F203831052CF4309320024D
:101EC00020931F02FCCE1092200210921F02F7CE28
:101ED00063E371E0CE0101960E949C0650E040E071
:101EE000BE016F5F7F4FCE010D960E948A058C0167
:101EF000CE0101960E9482056EE271E0CE0101964C
:101F00000E949C06A801BE016F5F7F4FCE010D9617
:101F10000E948A058C0190932A0380932903CE01A5
:101F200001960E948205980150E040E0BE01635F87
:101F30007F4FCE0101960E94AD06BE016F5F7F4FBD
:101F4000CE0143960E94BB05CE0101960E948205F8
:101F500065E371E0CE0143960E94A605882309F44B
:101F6000FBC0C5010A97059708F0F6C018861F82C6
:101F70001A8619861C861B866D857E8561157105FE
:101F800031F049895A89CE0107960E9471060F5F88
:101F90001F4F8AE0A816B10409F03FC06AE371E060
:101FA000CE0101960E949C06A801BE016F5F7F4F83
:101FB000CE0107960E948A055C01CE0101960E941F
:101FC00082059501A801BE01695F7F4FCE01019690
:101FD0000E94AD06BE016F5F7F4F89E094E00E94D2
:101FE000BB05CE0101960E94820530922803209203
:101FF00027036CE371E089E094E00E94A605882342
:1020000009F46EC08091260381116AC050E040E05F
:1020100070E060E08FEF90E097C06EE271E0CE017B
:1020200001960E949C06A801BE016F5F7F4FCE0102
:1020300007960E948A054C01CE0101960E948205F6
:1020400054012FEFA21AB20A6AE371E0CE010196A1
:102050000E949C06A501BE016F5F7F4FCE010796CF
:102060000E948A053C01CE0101960E9482059401DE
:10207000A801BE01695F7F4FCE0101960E94AD06A7
:10208000BE016F5F7F4F89E094E00E94BB05CE01E7
:1020900001960E9482059301A501BE01695F7F4FF1
:1020A000CE0101960E94AD06BE016F5F7F4F83E0B7
:1020B00094E00E94BB05CE0101960E9482058091AA
:1020C000030490910404009739F00E945A11709310
:1020D0002803609327038DCF60E070E0CB01F7CF3A
:1020E0006EE371E089E094E00E94A605882321F068
:1020F00080912603882311F160E471E089E094E087
:102100000E94A605811160C062E471E089E094E05C
:102110000E94A605811161C064E471E089E094E049
:102120000E94A605882309F461C04FEF50E06FEFCD
:1021300070E08FEF90E00E9411040AC050E040E090
:102140006FEF70E090E080E00E941104F0922603AF
:10215000CE0107960E948205CE010D960E9482054F
:10216000CE0143960E9482050E94EB022B013C01A6
:102170008AE0882E912CA12CB12C0E94EB026419CC
:10218000750986099709683E734081059105A8F392
:1021900031E0831A9108A108B10888EE480E83E067
:1021A000581E611C711C81149104A104B10429F70B
:1021B000C114D10409F449CD0E94B601882309F461
:1021C0003ECD0E9400003BCD8091260381119CCF23
:1021D0004FEF50E070E060E0B5CF809126038111B1
:1021E0009BCF50E040E068E270E014CF66E471E01D
:1021F00089E094E00E94A605882309F4A9CF50E065
:1022000040E070E060E090E080E095CF8091D10305
:102210009091D2030E949D188091CE039091CF039C
:1022200097FD03C060E00E94A5028CE191E09093CD
:10223000DF038093DE0380910C0290910D028E5D8E
:10224000934071F4E091F103F091F2039081809159
:10225000F30380958923808310920D0210920C0263
:1022600083E094E00E94820589E094E00E94820568
:102270008FE094E00C948205EF920F931F93CF931D
:10228000DF93E80134E047FD34E1042E000C550BE8
:1022900057FF03C0519541955109E32E022F242F7A
:1022A000AE010E94E111CE01DF91CF911F910F91FC
:1022B000EF9008951F93FC0199278827BC01E894AB
:1022C00011911032E9F3193010F01E30C8F31B32AF
:1022D00051F01D3249F4689406C00E949011610FBC
:1022E000711D811D911D119110531A30B0F33EF4F0
:1022F00090958095709561957F4F8F4F9F4F1F915F
:102300000895BB272A3051F4992342F4BDE29095F9
:102310008095709561957F4F8F4F9F4F0C94A611BC
:10232000592F482F372F262F660F771F881F991F89
:10233000660F771F881F991F620F731F841F951FD9
:10234000660F771F881F991F0895BB27FA01A62FD4
:102350006217710581059105330B30FB66F0AA27E2
:10236000660F771F881F991FAA1FA21710F0A21BC4
:1023700063953850A9F7A05DAA3308F0A95DA19331
:1023800036F7B111B1931082CA010C941814BB270F
:10239000FB015527AA27880F991FAA1FA41710F021
:1023A000A41B83955051B9F7A05DAA3308F0A95D2D
:1023B000A193009779F7B111B1931192CB010C94CD
:1023C0001814A9E0B0E0E7EEF1E10C9429156A01D8
:1023D000F22EB02E102FFBE3AF2EA01608F41BE355
:1023E0001F5F012F27E0AE014F5F5F4F0E94401338
:1023F000BC018981982F9970913009F43FC09BE20C
:10240000E1FC04C09E2D9170E0FC3AC05E2D50713D
:10241000E82FE87083FF46C084E0911101C083E09B
:10242000EF2DE81B8F1508F0E0E0D6018E2F20E29B
:10243000552351F1992329F0D6019C93C6010196A9
:102440006C0196012D5F3F4FE2FE24C08EE4D60161
:102450008C9391E411969C93119712968C93D901C9
:102460008E2F90E281111BC0E20FF32FF11D10821D
:102470008EEF9FEF2996ECE00C9445159DE2C6CFB8
:1024800090E2C4CF2D9381508111FCCFCE0ED11C90
:10249000E0E0D0CF8EE6D6018C9391E6DBCF9D9322
:1024A0008150E0CF482F447082FF3DC084E09111FD
:1024B00001C083E08F1510F4EF2DE81BD6018E2F9D
:1024C00020E2552309F1992329F0D6019C93C601F6
:1024D00001966C0196012D5F3F4FE2FE1BC089E41F
:1024E000D6018C938EE411968C93119786E4129604
:1024F0008C93D9018E2F90E2882309F4B5CF9D9358
:102500008150FACF2D9381508111FCCFCE0ED11C7A
:10251000E0E0D9CF89E6D6018C938EE611968C93B4
:10252000119786E6E4CF9B0177FF02C030E020E000
:10253000A1E0B0E0911102C0B0E0A0E0F901319655
:10254000AE0FBF1F8B2C912CBB2009F461C054012E
:10255000EFEFAE1ABE0AAA0DBB1DFA161B0619F044
:1025600014F04F2D4A1B511188C0E3FC59C076016D
:10257000A42FB0E2A1114FC0C40ED11C992309F4BD
:102580005BC040E0D6011196F60190836D015523A2
:1025900009F448C0012F060F9A81582F507184FF0B
:1025A00003C0913309F4015010160CF047C00930F4
:1025B00008F008E0EEE2FE2E5B01A01AB1088501EA
:1025C0009194819491082F3F320729F4D601FC920F
:1025D000F60131966F016217730794F10217130722
:1025E0007CF5DB01A21BB30BAA24A394B12CAC0E87
:1025F000BD1EAA0DBB1D11968C9121503109D6012B
:10260000119628153905F4F0F60180836D01DBCFB2
:10261000B12CA12CA0CFF701B1937F01A150AACF7B
:102620009111B0CFD601942F50E302C05D93915029
:102630009111FCCFC40ED11C40E0ACCF01E0BACF69
:1026400080E3DBCF6217730731F4963388F4953358
:1026500011F4552369F0F6018083FD01842F90E287
:10266000811108C0A40FB11D1C9290E080E002CF40
:1026700081E3F1CF91938150F3CF911183CF8ACF32
:10268000283008F027E03327DA01990F311D87FD44
:10269000916000966105710539F432602E5F3D93BB
:1026A00030E32A95E1F708959F3F30F080387105B7
:1026B000610509F03C5F3C5F3D93913008F0806814
:1026C000911DDF93CF931F930F93FF92EF92192FDA
:1026D000987F9695E92F96959695E90FFF27EC5BE5
:1026E000FE4F99273327EE24FF24A701E701059029
:1026F0000894079428F4360FE71EF81E491F511D51
:10270000660F771F881F991F0694A1F705900794FD
:1027100028F4E70EF81E491F561FC11D770F881FAA
:10272000991F661F0694A1F70590079428F4F80EE8
:10273000491F561FC71FD11D880F991F661F771F7E
:102740000694A1F70590079420F4490F561FC71F60
:10275000D81F990F661F771F881F0694A9F78491C9
:102760001095177041F0D695C79557954795F794F2
:10277000E7941A95C1F7EAEEF0E068941590159188
:1027800035916591959105907FE27395E118F10A75
:10279000430B560BC90BD009C0F7E10CF11E431FC8
:1027A000561FC91FD01D7EF4703311F48A95E6CFF1
:1027B000E894015030F0080F0AF40027021708F4DB
:1027C000202F2395022F7A3328F079E37D932A95E1
:1027D000E9F710C07D932A9589F606949795679539
:1027E000379517951794E118F10A430B560BC90B4F
:1027F000D00998F023957E9173957A3308F070E3B1
:102800007C932013B8F77E9170617D9330F08395AF
:1028100071E37D9370E32A95E1F71124EF90FF9027
:102820000F911F91CF91DF91992787FD9095089582
:10283000DC01FC01672F71917723E1F7329704C027
:102840007C916D9370836291AE17BF07C8F30895B2
:10285000E89409C097FB3EF490958095709561953A
:102860007F4F8F4F9F4F9923A9F0F92F96E9BB27F0
:102870009395F695879577956795B795F111F8CF6C
:10288000FAF4BB0F11F460FF1BC06F5F7F4F8F4FD7
:102890009F4F16C0882311F096E911C0772321F0CD
:1028A0009EE8872F762F05C0662371F096E8862F65
:1028B00070E060E02AF09A95660F771F881FDAF7BC
:1028C000880F9695879597F908950E9478140C942F
:1028D000E9140E94DB1438F00E94E21420F09523E2
:1028E00011F00C94D2140C94D81411240C941D15CE
:1028F0000E94FA1470F3959FC1F3950F50E0551F95
:10290000629FF001729FBB27F00DB11D639FAA2744
:10291000F00DB11DAA1F649F6627B00DA11D661F93
:10292000829F2227B00DA11D621F739FB00DA11DB4
:10293000621F839FA00D611D221F749F3327A00D6E
:10294000611D231F849F600D211D822F762F6A2F0A
:1029500011249F5750409AF0F1F088234AF0EE0F6F
:10296000FF1FBB1F661F771F881F91505040A9F79C
:102970009E3F510580F00C94D2140C941D155F3FBE
:10298000E4F3983ED4F3869577956795B795F795D8
:10299000E7959F5FC1F7FE2B880F911D9695879550
:1029A00097F9089597F99F6780E870E060E00895CF
:1029B0009FEF80EC089500240A9416161706180657
:1029C0000906089500240A94121613061406050633
:1029D0000895092E0394000C11F4882352F0BB0FC4
:1029E00040F4BF2B11F460FF04C06F5F7F4F8F4F27
:1029F0009F4F089557FD9058440F551F59F05F3F62
:102A000071F04795880F97FB991F61F09F3F79F010
:102A100087950895121613061406551FF2CF469592
:102A2000F1DF08C0161617061806991FF1CF869514
:102A30007105610508940895E894BB2766277727F8
:102A4000CB0197F908952F923F924F925F926F9228
:102A50007F928F929F92AF92BF92CF92DF92EF922E
:102A6000FF920F931F93CF93DF93CDB7DEB7CA1BAF
:102A7000DB0B0FB6F894DEBF0FBECDBF09942A88DA
:102A8000398848885F846E847D848C849B84AA8482
:102A9000B984C884DF80EE80FD800C811B81AA810F
:102AA000B981CE0FD11D0FB6F894DEBF0FBECDBFDA
:102AB000ED0108955058BB27AA270E9472150C9467
:102AC000E9140E94DB1438F00E94E21420F039F47B
:102AD0009F3F19F426F40C94D8140EF4E095E7FB0C
:102AE0000C94D214E92F0E94FA1458F3BA17620713
:102AF00073078407950720F079F4A6F50C941C154C
:102B00000EF4E0950B2EBA2FA02D0B01B901900108
:102B10000C01CA01A0011124FF27591B99F0593F4C
:102B200050F4503E68F11A16F040A22F232F342F94
:102B30004427585FF3CF469537952795A795F040E2
:102B40005395C9F77EF41F16BA0B620B730B840BF7
:102B5000BAF09150A1F0FF0FBB1F661F771F881FAF
:102B6000C2F70EC0BA0F621F731F841F48F4879507
:102B700077956795B795F7959E3F08F0B0CF9395F9
:102B8000880F08F09927EE0F9795879508950E9472
:102B9000DB150C94E9140E94E21458F00E94DB1437
:102BA00040F029F45F3F29F00C94D21451110C9499
:102BB0001D150C94D8140E94FA1468F39923B1F3EC
:102BC000552391F3951B550BBB27AA276217730753
:102BD000840738F09F5F5F4F220F331F441FAA1FE7
:102BE000A9F335D00E2E3AF0E0E832D091505040A3
:102BF000E695001CCAF72BD0FE2F29D0660F771F51
:102C0000881FBB1F261737074807AB07B0E809F036
:102C1000BB0B802DBF01FF2793585F4F3AF09E3FBB
:102C2000510578F00C94D2140C941D155F3FE4F319
:102C3000983ED4F3869577956795B795F7959F5FFE
:102C4000C9F7880F911D9695879597F90895E1E04A
:102C5000660F771F881FBB1F621773078407BA07A9
:102C600020F0621B730B840BBA0BEE1F88F7E09504
:102C7000089516F00C9413170C94D81468940C94BF
:102C8000D2140E940215A8F39923C1F3AEF3DF9387
:102C9000CF931F930F93FF92C92FDD2788232AF02C
:102CA0002197660F771F881FDAF720E030E040E8B1
:102CB0005FEB9FE3883920F0803E38F021968F77D4
:102CC0000E945B15E8E6F0E004C00E945B15E5E9B0
:102CD000F0E00E9421178B01BE01EC01FB2E6F5723
:102CE00071097595771F880B990B0E942A1428E1AA
:102CF00032E741E35FE30E947814AF2D9801AE0103
:102D0000FF900F911F91CF91DF910E9472150C944B
:102D1000E914FA01EE0FFF1F309621053105A1F1EC
:102D20006115710561F48038BFE39B0749F1689430
:102D30009038810561F08038BFEF9B0741F09923FF
:102D40004AF5FF3FE1053105210519F1E8940894A2
:102D5000E795D901AA2329F4AB2FBE2FF85FD0F352
:102D600010C0FF5F70F4A695E0F7F73950F019F046
:102D7000FF3A38F49F779F930DD00F9007FC90583F
:102D8000089546F00C94D81460E070E080E89FE36A
:102D900008954FE79F775F934F933F932F930E9440
:102DA00041162F913F914F915F910E9465140C94B1
:102DB000E11629F416F00C94D2140C941C150C9402
:102DC000D8140E940215A8F39638A0F707F80F92BE
:102DD000E8942BE33AEA48EB5FE70E947B140F92FA
:102DE0000F920F924DB75EB70F920E948A17E2ECD6
:102DF000F0E00E9421174F915F91EF91FF91E595CF
:102E0000EE1FFF1F49F0FE57E0684427EE0F441FF6
:102E1000FA95E1F74195550B0E9454170F9007FE64
:102E20000C94481708959F3F31F0915020F48795F6
:102E300077956795B795880F911D9695879597F922
:102E40000895DF93CF931F930F93FF92EF92DF923A
:102E50007B018C01689406C0DA2EEF010E94781481
:102E6000FE01E894A5912591359145915591A6F3E0
:102E7000EF010E947215FE019701A801DA9469F72B
:102E8000DF90EF90FF900F911F91CF91DF91089508
:102E90009B01AC0160E070E080E89FE30C94C715F3
:102EA0000C94D2140C9413170E940215D8F3992392
:102EB000C9F3940F511DA3F39150504094F059F071
:102EC000882332F0660F771F881F91505040C1F75A
:102ED0009E3F51052CF7880F911D9695879597F980
:102EE00008955F3FACF0983E9CF0BB2786957795A0
:102EF0006795B79508F4B1609395C1F7BB0F58F784
:102F000011F460FFE8CF6F5F7F4F8F4F9F4FE3CF8C
:102F10000C941D15FA01DC01AA0FBB1F9B01AC012B
:102F2000BF5728F4222733274427507820C0B751B1
:102F300090F4AB2F0024469537952795011CA39557
:102F4000D2F3002071F0220F331F441FB395DAF340
:102F50000ED00C945A1561307105A0E88A07B94665
:102F600030F49B01AC01662777278827907830964C
:102F700021F020833183428353830895AA1BBB1B16
:102F800051E107C0AA1FBB1FA617B70710F0A61B69
:102F9000B70B881F991F5A95A9F780959095BC018A
:102FA000CD01089597FB072E16F4009407D077FD06
:102FB00009D00E94BE1707FC05D03EF4909581957C
:102FC0009F4F0895709561957F4F08950024A7FD48
:102FD00000942A0F301D401D501D601D701D801D66
:102FE000901D08952A153B054C055D056E057F056E
:102FF000800791070895EE0FFF1F0590F491E02DD3
:1030000009940F931F93CF93DF938230910510F4AF
:1030100082E090E0E0911704F091180430E020E0A5
:10302000B0E0A0E0309799F42115310509F44AC0C9
:10303000281B390B24303105D8F58A819B81611515
:10304000710589F1FB0193838283FE0111C04081E8
:1030500051810281138148175907E0F04817590739
:1030600099F4109761F012960C93129713961C9393
:103070003296CF01DF91CF911F910F910895009368
:10308000170410931804F4CF2115310551F042179D
:10309000530738F0A901DB019A01BD01DF01F801F6
:1030A000C1CFEF01F9CF9093180480931704CDCFCF
:1030B000FE01E20FF31F819391932250310939836E
:1030C0002883D7CF2091150430911604232B41F487
:1030D00020910201309103013093160420931504CE
:1030E00020910001309101012115310541F42DB7E6
:1030F0003EB74091040150910501241B350BE0912E
:103100001504F0911604E217F307A0F42E1B3F0BF1
:103110002817390778F0AC014E5F5F4F2417350749
:1031200048F04E0F5F1F509316044093150481938F
:1031300091939FCFF0E0E0E09CCFCF93DF93009797
:10314000E9F0FC01329713821282A0911704B0912A
:103150001804ED0130E020E01097A1F420813181C6
:10316000820F931F209115043091160428173907F8
:1031700009F061C0F0931604E0931504DF91CF913C
:103180000895EA01CE17DF07E8F54A815B819E01C9
:1031900041155105B1F7E901FB83EA834991599142
:1031A000C40FD51FEC17FD0761F480819181029651
:1031B000840F951FE90199838883828193819B8382
:1031C0008A83F0E0E0E012968D919C91139700972E
:1031D000B9F52D913C911197CD010296820F931F65
:1031E00020911504309116042817390739F63097C5
:1031F00051F51092180410921704B0931604A0937E
:103200001504BCCFD383C28340815181840F951FA5
:10321000C817D90761F44E5F5F4F88819981480FC5
:10322000591F518340838A819B8193838283211517
:10323000310509F0B0CFF0931804E09317049ECF46
:10324000FD01DC01C0CF13821282D7CFB0E0A0E035
:10325000ECE2F9E10C9425158C01009751F4CB01B7
:103260000E9401188C01C801CDB7DEB7E0E10C94D3
:103270004115FC01E60FF71F9C0122503109E217AE
:10328000F30708F49DC0D901CD91DC911197C617C1
:10329000D70798F0C530D10530F3CE0104978617D3
:1032A000970708F3C61BD70B2297C193D1936D9351
:1032B0007C93CF010E949D18D6CF5B01AC1ABD0A4A
:1032C0004C018C0E9D1EA0911704B0911804512C36
:1032D000412CF12CE12C109731F58091150490913F
:1032E00016048815990509F05CC04616570608F0C3
:1032F00058C08091000190910101009741F48DB771
:103300009EB74091040150910501841B950BE8176D
:10331000F90708F055C0F0931604E0931504F9017D
:1033200071836083A0CF8D919C91119712966C90C0
:10333000129713967C901397A815B90559F56C014F
:1033400042E0C40ED11CCA14DB0420F1AC014A19BE
:103350005B09DA011296159780F0628273825183BD
:103360004083D9016D937C93E114F10471F0D7018E
:103370001396FC93EE93129776CF22968C0F9D1F97
:10338000F90191838083F301EFCFF0931804E09368
:10339000170469CF4816590608F42C017D01D301A2
:1033A0009ACFCB010E9401187C01009749F0AE0131
:1033B000B8010E94E319C8010E949D18870153CFEC
:1033C00010E000E050CFFB01DC0102C001900D9243
:1033D00041505040D8F70895DC0101C06D93415031
:1033E0005040E0F70895FB01DC018D9101908019B8
:1033F0000110D9F3990B0895FB01DC0101900D92A6
:103400000020E1F70895FB0151915523A9F0BF0178
:10341000DC014D9145174111E1F759F4CD010190BF
:10342000002049F04D9140154111C9F3FB014111B4
:10343000EFCF81E090E00197089511E0C0E2D1E084
:1034400004C0FE010E94FB172196C132D107C9F7C3
:04345000F894FFCF1E
:1034540000001904800000000000EC014C01790117
:103464003902AA0188019C010000000079034C0183
:103474000E043703D503ED03610323434E542C009C
:103484000D0A00230023434E54005C005200470001
:0834940042004F005700460002
:00000001FF
