:100000000C9421010C9449010C9449010C943E0A72
:100010000C943E0A0C943E0A0C9449010C9449013C
:100020000C9449010C94B60A0C9449010C944901B2
:100030000C9449010C9449010C9449010C94490118
:100040000C94D9080C9449010C94A7080C948108CD
:100050000C9449010C9449010C9449010C944901F8
:100060000C9423090C94490108000000BE92244915
:10007000123EABAAAA2ABECDCCCC4C3E00000080DA
:10008000BEABAAAAAA3E00000000BF000000803F4D
:100090000000000000084178D3BB4387D1133D190D
:1000A0000E3CC3BD4282AD2B3E68EC8276BED98F3A
:1000B000E1A93E4C80EFFFBE01C4FF7F3F0000007E
:1000C000000007634236B79BD8A71A39685618AEA6
:1000D000BAAB558C1D3CB7CC5763BD6DEDFD753E7D
:1000E000F6177231BF000000803F00407A10F35ACB
:1000F00000A0724E18090010A5D4E80000E8764868
:10010000170000E40B54020000CA9A3B000000E113
:10011000F505000080969800000040420F000000A6
:10012000A08601000000102700000000E803000086
:1001300000006400000000000A0000000000010050
:10014000000000002C76D888DC674F0823DFC1DF71
:10015000AE59E1B1B796E5E3E453C63AE651997674
:1001600096E8E6C28426EB898C9B62ED407C6FFCAE
:10017000EFBC9C9F40F2BAA56FA5F490055A2AF7F0
:100180005C936B6CF9676DC11BFCE0E40D47FEF5F9
:1001900020E6B500D0ED902E030094357705008061
:1001A000841E080000204E0A000000C80C333333C0
:1001B000330F986E12831141EF8D2114893BE65560
:1001C00016CFFEE6DB18D1844B381BF77C1D901D43
:1001D000A4BBE424203284725E228100C9F124ECA5
:1001E000A1E53D2700000000240027002A000000B0
:1001F00000080002010000030407000000000000E6
:10020000000000000000230026002900000000007C
:10021000250028002B000404040404040404020242
:100220000202020203030303030301020408102075
:100230004080010204081020010204081020280B4D
:100240007D1111241FBECFEFD8E0DEBFCDBF24E06B
:10025000A8E4B1E001C01D92AB31B207E1F711E0B3
:10026000A0E0B1E0E2E4F5E302C005900D92A8340D
:10027000B107D9F711E0C0E2D1E004C02197FE0137
:100280000E947218CF31D107C9F70E94570C0C9405
:10029000941A0C9400000895AF92BF92CF92DF920F
:1002A000EF92FF920F931F93CF93DF936C017B012B
:1002B0008B01040F151FEB015E01AE18BF08C017BC
:1002C000D10759F06991D601ED91FC910190F0812F
:1002D000E02DC6010995892B79F7C501DF91CF91F2
:1002E0001F910F91FF90EF90DF90CF90BF90AF9054
:1002F0000895FC01538D448D252F30E0842F90E02C
:10030000821B930B541710F0CF9608950197089510
:10031000FC01918D828D981761F0A28DAE0FBF2FD9
:10032000B11D5D968C91928D9F5F9F73928F90E02F
:1003300008958FEF9FEF0895FC01918D828D98179E
:1003400031F0828DE80FF11D858D90E008958FEFDB
:100350009FEF0895FC01918D228D892F90E0805CA4
:100360009F4F821B91098F73992708958DE293E027
:100370000E94AA0121E0892B09F420E0822F089530
:1003800080E090E0892B29F00E94B60181110C9445
:1003900000000895FC01A48DA80FB92FB11DA35A28
:1003A000BF4F2C91848D90E001968F739927848F95
:1003B000A689B7892C93A089B1898C9183708064B8
:1003C0008C93938D848D981306C00288F389E02D59
:1003D00080818F7D80830895EF92FF920F931F930A
:1003E000CF93DF93EC0181E0888F9B8D8C8D9813E8
:1003F0001AC0E889F989808185FF15C09FB7F894F4
:10040000EE89FF896083E889F9898081837080643F
:1004100080839FBF81E090E0DF91CF911F910F918A
:10042000FF90EF900895F62E0B8D10E00F5F1F4F99
:100430000F731127E02E8C8D8E110CC00FB607FCA8
:10044000FACFE889F989808185FFF5CFCE010E9436
:10045000CA01F1CFEB8DEC0FFD2FF11DE35AFF4FD9
:10046000F0829FB7F8940B8FEA89FB8980818062C4
:10047000CFCFCF93DF93EC01888D8823B9F0AA8981
:10048000BB89E889F9898C9185FD03C0808186FD4F
:100490000DC00FB607FCF7CF8C9185FFF2CF80819E
:1004A00085FFEDCFCE010E94CA01E9CFDF91CF9148
:1004B000089590E0FC01E251FE4F2491FC01E65DBD
:1004C000FD4F3491FC01EA5EFD4FE491EE23C9F04B
:1004D000222339F0233001F1A8F4213019F1223020
:1004E00029F1F0E0EE0FFF1FE45FFD4FA591B491FD
:1004F0008FB7F894EC91611126C030953E233C9360
:100500008FBF08952730A9F02830C9F0243049F76B
:10051000809180008F7D03C0809180008F778093D1
:100520008000DFCF84B58F7784BDDBCF84B58F7D2E
:10053000FBCF8091B0008F778093B000D2CF8091B5
:10054000B0008F7DF9CF3E2BDACFCF93DF9390E0D1
:10055000FC01E65DFD4F24918A5E9D4FFC01849174
:100560008823D1F090E0880F991FFC01EC51FE4FD9
:10057000A591B491FC01E45FFD4FC591D491611147
:100580000EC09FB7F8948C91E22FE0958E238C9348
:100590002881E223E8839FBFDF91CF9108958FB731
:1005A000F894EC91E22BEC938FBFF6CF8E3008F0ED
:1005B0008E508770806480937C0080917A00806484
:1005C00080937A0080917A0086FDFCCF809178003C
:1005D0009091790008953FB7F89480910602909128
:1005E0000702A0910802B091090226B5A89B05C098
:1005F0002F3F19F00196A11DB11D3FBFBA2FA92FA2
:10060000982F8827BC01CD01620F711D811D911D9E
:1006100042E0660F771F881F991F4A95D1F708950A
:100620002091B701260F3327331F21323105ECF417
:100630002091DB01FC0190E080E0243069F082E051
:100640000895A091B7012191AC0149565E4FA40FC6
:10065000B52FB11D2C930196861798F38091B701A1
:10066000680F6093B70180E0089581E008950895D0
:100670008FEF9FEF08958FEF9FEF08958091900186
:1006800090E09195819591090895CF93DF93CB01E7
:10069000EA01642F0E941003CE01DF91CF910895EB
:1006A000CF93DF931F92CDB7DEB7698361E0CE01B0
:1006B00001960E94100381E090E00F90DF91CF91AE
:1006C000089520910C0230910D022817390771F41A
:1006D00090910A0280910B02981741F0E0910A0272
:1006E000F0E0E05BFE4F808190E008958FEF9FEF98
:1006F0000895EF92FF920F931F93CF93DF93DC0146
:100700005C96ED90FC905D97E114F10479F481E042
:1007100090E013969C938E93129790E080E0DF9187
:10072000CF911F910F91FF90EF9008955196ED9109
:10073000FC91529750968C915097982F90950FB7A7
:100740005E962C915E97122F127021FD6095F894A1
:100750002081112319F1282B2083E7012197F1F73C
:1007600028E0462F50E0308160FF1AC0382B3083DC
:10077000E7012197F1F7BA0175956795215089F73F
:10078000112381F08081892380830FBF5C968D9136
:100790009C910197F1F781E090E0C1CF2923DCCF54
:1007A0003923E5CF9081892BEFCF20910C02309136
:1007B0000D022817390771F480910B0220910A026B
:1007C00090E0805C9F4F821B910960E470E00E9482
:1007D0004918089590E080E0089520910C0230912E
:1007E0000D0228173907B9F490910A0280910B0283
:1007F000981789F0E0910A02F0E0E05BFE4F8081FB
:1008000020910A0230E02F5F3F4F2F733327209350
:100810000A0290E008958FEF9FEF089590E080E046
:1008200008954F925F926F927F92AF92BF92CF9254
:10083000DF92EF92FF920F931F93CF93DF93CDB789
:10084000DEB729970FB6F894DEBF0FBECDBF8A0181
:10085000AB01770F660B770B762F652F542F44274C
:10086000012E000C220B330B402B512B622B732BD0
:10087000092E000CAA0BBB0BDC0199278827842BBF
:10088000952BA62BB72B6D01EE24FF24AC2C092F42
:10089000182FF12CE12C88E0B82E8091CC03909198
:1008A000CD03E816F90608F006C18091D203412F66
:1008B000502F6A2D882371F08C9D90018D9D300DF5
:1008C0001124632F809F90011124532F819FC00119
:1008D0001124492FE091D8038091D3039091D40340
:1008E0002091D503E213A3C09701220F331F2E0DD1
:1008F0003F1D820F931FE091D503E80FF92FF11DE3
:100900006083E091D603E80FF92FF11D5083209109
:10091000D703820F911DFC0140838091D3039091F6
:10092000D403892B09F47FC04090D9035090DA0397
:100930006090DB037090DC030E94EB026415750588
:100940008605970550F40E94EB026093D9037093DB
:10095000DA038093DB039093DC030E94EB02409068
:10096000D9035090DA036090DB037090DC036419C4
:100970007509860997096C32714081059105A0F2CD
:10098000F8948091CE039091CF039A838983E0916C
:10099000D303F091D403DF01119680818987909170
:1009A000CA03E091DD03F091DE038091DF03992318
:1009B00009F449C09081982B98879081809589236C
:1009C0008F838F818C83BB8258856F8149853B8162
:1009D0002C8189819A81508347FD252F3A95208368
:1009E000262F39F0441F00C000006083000000C0C3
:1009F000F2CF38E04D9160830000019761F7F093EA
:100A0000DE03E093DD0349873B832C839A8389834C
:100A100078940E94EB026093D9037093DA03809379
:100A2000DB039093DC032FEFE21AF20A36CF970133
:100A3000220F331F220F331F820F931FE80FF92F4E
:100A4000F11D108258CF9081982B988790818095C6
:100A500089238F838F818E83BD8258856F814985DD
:100A60003D812E8189819A81508347FD252F00C0C9
:100A700000C0208300C000C000C000C000C0608370
:100A80000000262F3A9541F0441F000000C000C02E
:100A900000C000C000C0E8CF38E04D9100C06083C6
:100AA00000C0019709F7F093DE03E093DD03498767
:100AB0003D832E83ABCF29960FB6F894DEBF0FBED1
:100AC000CDBFDF91CF911F910F91FF90EF90DF90FD
:100AD000CF90BF90AF907F906F905F904F900895B0
:100AE000CF93DF93EC0188819981009711F00E94E8
:100AF0001419198218821D821C821B821A82DF91AE
:100B0000CF910895FC0180819181009711F00C94A0
:100B100014190895CF93DF93FC0124813581421786
:100B2000530788F4C081D181FB0160817181CE01BE
:100B3000840F951F0E947A1A009729F08C1B9D0B39
:100B4000DF91CF9108958FEF9FEFFACFFC012481C1
:100B50003581232B39F421E0FB018081882349F082
:100B600020E007C0808191810E946A1A21E0892BD0
:100B7000B9F7822F08950F931F93CF93DF938C01C2
:100B8000EB01FC01808191810097E1F0688179811E
:100B900061157105A9F0428153812C813D81421775
:100BA000530770F00E94731A8C819D81F801958320
:100BB00084831D821C82DF91CF911F910F91089534
:100BC0000E94141988819981F801918380838A8118
:100BD0009B81938382838C819D81958384831982F9
:100BE00018821B821A82E5CF0F931F93CF93DF9356
:100BF000EC0188819981009759F02A813B81261761
:100C0000370730F081E0DF91CF911F910F91089568
:100C10008B016F5F7F4F0E949D19009759F0998358
:100C200088831B830A832C813D81232B59F7FC0188
:100C30001082E8CF80E0E7CFEF92FF920F931F93EF
:100C4000CF93DF936115710541F480E0DF91CF917F
:100C50001F910F91FF90EF90089541155105B1F04C
:100C60007B01EC010C811D81040F151FB8010E944E
:100C7000F405882351F3288139818C819D81B70146
:100C8000820F931F0E94731A1D830C8381E0DECFB5
:100C9000CF93DF93EC01FB0101900020E9F731973E
:100CA000AF01461B570B0E941C06811103C0CE01E9
:100CB0000E947005CE01DF91CF910895CF93DF930D
:100CC000EC01FB0144815581608171810E941C0609
:100CD000811103C0CE010E947005CE01DF91CF913A
:100CE0000895EF92FF920F931F93CF93DF93EC0140
:100CF0007B018A01BA010E94F40581110BC0CE016B
:100D00000E947005CE01DF91CF911F910F91FF904E
:100D1000EF9008951D830C83B701888199810E940B
:100D2000731AF0CFFB0101900020E9F73197AF0172
:100D3000461B570B0C947106FC0111821082138222
:100D4000128215821482FB0101900020E9F731978D
:100D5000AF01461B570B0C947106AF92BF92CF9216
:100D6000DF92EF92FF920F931F93CF93DF936C016B
:100D70005B017A0189012417350720F48F2D790151
:100D8000042F182F62E371E0C6010E949C06D50172
:100D90001496CD91DC91EC16FD06E0F40C171D07BE
:100DA00008F4E801D501ED91FC911197EC0FFD1FBE
:100DB000108110826D917C916E0D7F1DC6016115B1
:100DC0007105A1F00E949206F50180819181C80F02
:100DD000D91F1883C601DF91CF911F910F91FF900A
:100DE000EF90DF90CF90BF90AF9008950E94700574
:100DF000EBCF1F93CF93DF9385ED8093BC00809161
:100E0000930190919401A0919501B091960107965C
:100E1000A11DB11D23E0B695A795979587952A95B5
:100E2000D1F72091BC0024FD03C01092DB0152C019
:100E300040919301509194016091950170919601B8
:100E4000452B462B472B69F30097A105B10541F0CF
:100E500025E32A95F1F700000197A109B109E1CF37
:100E600080919201C1E0C0939101882399F1D091C2
:100E7000B8001091BA008091BC008A7B8093BC00BE
:100E800060E082E10E94590260E083E10E94590221
:100E90001092DB01C093DD011092DC0161E082E180
:100EA0000E94590261E083E10E9459028091B900D9
:100EB0008E7F8093B9008091B9008D7F8093B900B7
:100EC00088E48093B80085E48093BC001093BA0056
:100ED000D093B800DF91CF911F910895AF92BF9248
:100EE000CF92DF92EF92FF920F931F93CF93DF93F6
:100EF000CDB7DEB7E4970FB6F894DEBF0FBECDBF17
:100F000018AA1FA61AAA19AA1CAA1BAA2AE0AE018F
:100F10004F5F5F4F69EC74E383E090E00E94F8114B
:100F2000BE016F5F7F4FCE018F960E949206809127
:100F30002603909127031AA619A61CA61BA61EA677
:100F40001DA64AE0BE016F5F7F4F0E943E12BE01A8
:100F50006F5F7F4FCE0189960E94920660911B02BF
:100F600070911C0280911D0290911E021CA21BA276
:100F70001EA21DA218A61FA28E010F5F1F4F21E007
:100F800043E00E94B311009709F4B6C0BC01CE0142
:100F900083960E9492066AE271E0CE0101960E9459
:100FA0009C06BE016D5D7F4FCE0101960E945E06DC
:100FB0006EE271E00E944806BE01675D7F4F0E94AD
:100FC0005E066EE271E00E944806BE01615D7F4FE1
:100FD0000E945E0660E371E00E944806FC014481C5
:100FE0005581608171818DE293E00E944C01CE01B8
:100FF00001960E948205CE0183960E948205CE0151
:1010000089960E948205CE018F960E94820580916A
:101010002803882319F1209148013091490140911A
:101020004A0150914B0160914C0170914D018091AA
:101030004E0190914F01A1E00E945D18209348015C
:101040003093490140934A0150934B0160934C0106
:1010500070934D0180934E0190934F0130912A037C
:1010600020912903932F990F990BA0904801B090DC
:101070004901C0904A01D0904B01E0904C01F090A2
:101080004D0100914E0110914F01492F592F692FA9
:10109000792F892F0E946918F0F480912803882302
:1010A000D1F04FEF50E06FEF70E08FEF90E00E94D3
:1010B00011041092280310924801109249011092D5
:1010C0004A0110924B0110924C0110924D01109266
:1010D0004E0110924F01E4960FB6F894DEBF0FBE9A
:1010E000CDBFDF91CF911F910F91FF90EF90DF90D7
:1010F000CF90BF90AF900895CE0183960E94700567
:101100004ACF1F920F920FB60F9211242F933F9345
:101110004F935F936F937F938F939F93AF93BF93FF
:10112000EF93FF938DE293E00E94CA01FF91EF914C
:10113000BF91AF919F918F917F916F915F914F91EF
:101140003F912F910F900FBE0F901F9018951F92F7
:101150000F920FB60F9211242F938F939F93EF93BB
:10116000FF93E0913D03F0913E038081E0914303C2
:10117000F091440382FD1BC09081809146038F5FF4
:101180008F7320914703821741F0E0914603F0E00E
:10119000E35DFC4F958F80934603FF91EF919F9104
:1011A0008F912F910F900FBE0F901F9018958081F7
:1011B000F4CF1F920F920FB60F9211242F933F93EB
:1011C0008F939F93AF93BF938091020290910302FC
:1011D000A0910402B09105023091010223E0230F97
:1011E0002D3758F50196A11DB11D20930102809362
:1011F000020290930302A0930402B093050280912F
:10120000060290910702A0910802B091090201968E
:10121000A11DB11D8093060290930702A0930802BE
:10122000B0930902BF91AF919F918F913F912F9100
:101230000F900FBE0F901F90189526E8230F02966F
:10124000A11DB11DD2CF1F920F920FB60F92112484
:101250002F933F934F935F936F937F938F939F93BE
:10126000AF93BF93EF93FF938091B900887F80364F
:1012700009F44AC0F0F5883209F4A5C018F58031A8
:1012800009F499C0B8F4882309F4F5C0883009F44A
:1012900092C0FF91EF91BF91AF919F918F917F91FC
:1012A0006F915F914F913F912F910F900FBE0F90D3
:1012B0001F901895883109F486C0803251F78093C9
:1012C000DA0114C0803409F49BC040F48033B9F3D0
:1012D0008833F9F68093DA0185ECAEC0803509F4E5
:1012E00083C0883509F494C0883499F60E94F906C1
:1012F000D0CF883909F48AC038F5883729F050F4FE
:10130000883611F0803729F683E08093DB01109254
:10131000D90155C0883809F479C0803919F080386E
:1013200009F0B7CF8091D901803208F06FC0E09109
:10133000D90181E08E0F8093D9018091BB00F0E04C
:10134000E754FE4F80833BC0803B39F0D0F4803AB5
:1013500009F477C0883A09F09CCF84E08093DB01E0
:101360001092B8011092B701F0E0E0E00995809189
:10137000B70181110FC081E08093B70110929701EE
:1013800009C0803C09F4A8CF883C09F4A5CF883B6C
:1013900009F07FCFE091B80181E08E0F8093B80112
:1013A000F0E0E956FE4F80818093BB009091B80138
:1013B0008091B70129C0809100028093BB0085EC29
:1013C0008093BC0066CF9091FF018091FE01981739
:1013D00058F5E091FF0181E08E0F8093FF01F0E06E
:1013E000E252FE4F8081E9CFE091FF0181E08E0F54
:1013F0008093FF018091BB00F0E0E252FE4F8083BA
:101400009091FF018091FE019817C8F285E8D8CF2E
:10141000E091FF0181E08E0F8093FF018091BB007E
:10142000F0E0E252FE4F80838091DD0181115ECFBA
:1014300081E08093DC0184EA8093BC001092DB01A0
:1014400028CF85EC8093BC001092DB018091D901FC
:10145000803230F4E091D901F0E0E754FE4F108281
:101460006091D90170E089EB91E0F0E0E0E009954E
:101470001092D9010ECF1092DA0138CF1F920F923D
:101480000FB60F9211242F933F934F935F936F9357
:101490007F938F939F93AF93BF93EF93FF93E091CD
:1014A0000C02F0910D02309749F0A685B78585852D
:1014B000968D91FF14C09C918923A1F4FF91EF9127
:1014C000BF91AF919F918F917F916F915F914F915C
:1014D0003F912F910F900FBE0F901F9018959C91E8
:1014E000892361F7A389B4899C9185898095892393
:1014F0008C93868997890197F1F7608D718DA68508
:10150000B785558538E020E0CB010197F1F7822FB0
:1015100090E095958795282F4C91452309F02068F8
:10152000315091F7868D81FD209580910B0290E0DE
:1015300001968F73992730910A02381799F0A0917C
:101540000B02B0E0A05BBE4F2C9380930B02828D08
:10155000938D0197F1F7A389B4898C919589892B93
:101560008C93ACCF868D8160868FF1CF1F920F92C6
:101570000FB60F9211242F933F934F935F936F9366
:101580007F938F939F93AF93BF93EF93FF9380913C
:101590001402909115028093B200809117029091ED
:1015A0001802A0911902B0911A020196A11DB11D55
:1015B0008093170290931802A0931902B0931A0215
:1015C0008091170290911802A0911902B0911A020D
:1015D0004091100250911102609112027091130219
:1015E00084179507A607B70710F18091160281119D
:1015F0001EC081E08093160280911702909118021C
:10160000A0911902B0911A02841B950BA60BB70B7F
:101610008093170290931802A0931902B0931A02B4
:10162000E0910E02F0910F02099510921602FF91BF
:10163000EF91BF91AF919F918F917F916F915F914A
:101640004F913F912F910F900FBE0F901F901895C3
:10165000CF92DF92EF92FF921092300310922F03FD
:1016600028EEC22E23E0D22EE12CF12CC0923103C1
:10167000D0923203E0923303F09234038AE091E097
:1016800090932E0380932D0385EC90E090933A0382
:101690008093390384EC90E090933C0380933B0368
:1016A00080EC90E090933E0380933D0381EC90E0CA
:1016B0009093400380933F0382EC90E09093420329
:1016C0008093410386EC90E090934403809343031E
:1016D0001092460310924703109248031092490358
:1016E00062E371E081E194E00E949C0662E371E0B4
:1016F0008BE094E00E949C0662E371E085E094E058
:101700000E949C061092020410920104109204049C
:10171000109203041092E3031092E203C092E403D8
:10172000D092E503E092E603F092E7038CE191E0CA
:101730009093E1038093E0031092F7031092F60375
:101740001092F9031092F8031092FB031092FA031F
:101750001092FD031092FC036091FE036E7F6D7F7B
:101760006093FE036695617081E0682787E00E94C0
:10177000590261E087E00E94A502E1E3F2E0E49112
:10178000E093F003EDE1F2E0E491F0E0EE0FFF1FF3
:10179000E45FFD4F859194919093F2038093F10360
:1017A00060E088E00E94A5028091FE0381FD04C0F4
:1017B00061E088E00E94590288E08093EC03E2E354
:1017C000F2E0E491E093ED03EEE1F2E0E491F0E089
:1017D000EE0FFF1FEE5FFD4F859194919093EF0305
:1017E0008093EE031092CB031092D2031092D90390
:1017F0001092DA031092DB031092DC0381E08093F5
:10180000D8038093D5031092D60392E09093D70328
:101810008093CA038BE490E09093CF038093CE0330
:101820000E9478189093D4038093D303009709F40F
:1018300035C02BE4FC0111922A95E9F789E190E08B
:101840009093CD038093CC0386E090E09093D103F6
:101850008093D0038091CB03882341F061E086E040
:101860000E94A50260E086E00E945902ECE1F2E0ED
:10187000E491F0E0EE0FFF1FE45FFD4F859194913E
:101880009093DE038093DD03E0E3F2E0E491E093E4
:10189000DF03FF90EF90DF90CF9008951092CF0379
:1018A0001092CE031092CD031092CC03CDCFCF93E4
:1018B000DF93CDB7DEB76D970FB6F894DEBF0FBEDE
:1018C000CDBF789484B5826084BD84B5816084BDC9
:1018D00085B5826085BD85B5816085BD80916E00CE
:1018E000816080936E0010928100809181008260FF
:1018F000809381008091810081608093810080913C
:1019000080008160809380008091B100846080932A
:10191000B1008091B00081608093B00080917A0026
:10192000846080937A0080917A00826080937A004C
:1019300080917A00816080937A0080917A0080683B
:1019400080937A001092C100E0913D03F0913E0334
:1019500082E08083E0913903F0913A031082E091B4
:101960003B03F0913C0380E1808310924503E091BA
:101970004103F091420386E08083E0913F03F091C0
:101980004003808180618083E0913F03F0914003B8
:10199000808188608083E0913F03F09140038081E3
:1019A00080688083E0913F03F091400380818F7DC8
:1019B00080838091D0039091D10397FD08C061E0AE
:1019C0000E94A50260E08091D0030E94590281E04C
:1019D0008093CB034091CE035091CF0370E060E041
:1019E0008091D3039091D4030E94631A6091D20333
:1019F000603829F12091D3033091D4036150C9F0AC
:101A000070E08FEF9FE70E943518F9014091CE03F7
:101A10005091CF03CF01821B930B8417950760F47D
:101A20004081469FC001479F900D112490833196BD
:101A3000EDCF70E060E0E9CF80E88093D20350E022
:101A400040E070E060E090E080E00E94110480EEF1
:101A500093E0909300048093FF031092FB03109295
:101A6000FA031092F9031092F8031092F703109200
:101A7000F6038FE190E09093FD038093FC03909137
:101A8000EC03963108F047C021E030E03093F703D3
:101A90002093F6032DE130E03093F9032093F8030F
:101AA0002DE030E03093FB032093FA03209168008F
:101AB00084E0983048F031E09E3008F430E081E076
:101AC00001C0880F3A95EAF7822B809368002DE6D3
:101AD00030E0983050F02BE630E09E3030F02CE6CD
:101AE00030E0963110F030E020E03093F4032093A2
:101AF000F303292F30E0983008F020C281E001C0C4
:101B0000880F9A95EAF78093F5038091FC039091F2
:101B1000FD030197F1F78091FA039091FB03892B64
:101B200049F1E0910C02F0910D0223E0E03EF20752
:101B300009F1309739F0A389B4899C918589809502
:101B400089238C938091FE038E7F8093FE031092F5
:101B50000B0210920A0280EE93E090930D028093A4
:101B60000C02E091F303F091F40380819091F5036E
:101B7000892B8083E5E2F2E080E0119211928F5F81
:101B80008038D9F784E690E0A0E0B0E080931002BE
:101B900090931102A0931202B09313028EE697E085
:101BA00090930F0280930E02809170008E7F80933D
:101BB00070008091B0008C7F8093B0008091B10064
:101BC000877F8093B1008091B6008F7D8093B600AF
:101BD000809170008D7F809370008091B10084604F
:101BE0008093B1008091B1008C7F8093B10086E03A
:101BF00090E09093150280931402109217021092B5
:101C000018021092190210921A0210921602809174
:101C10001402909115028093B2008091700081604F
:101C2000809370008E010F5F1F4FCE0109969D8F2C
:101C30008C8FE8EC2E2E312C80912503C090210250
:101C4000D0902202E0902302F0902402811183C1FF
:101C50000E94D602E5E2F2E081939193A5E2B3E01F
:101C6000AE17BF07C9F7E5E2F2E080E0419151917C
:101C7000052E000C660B770BC40ED51EE61EF71E54
:101C80008F5F803899F7C0922102D0922202E092B1
:101C90002302F092240280911F029091200201966B
:101CA0009093200280931F02B1E0B09325036091CE
:101CB00021027091220280912302909124020E94BD
:101CC0009F1420E030E040E05CE30E94DC146B01F4
:101CD0007C0120E030E44CE156E40E94DC144B012E
:101CE0005C01A701960160E070E080E894E40E9446
:101CF000D1159B01AC01C501B4010E943E1620E044
:101D000030E44CE156E40E943E160E94B8166B0186
:101D10007C0120E030E040E450E40E9400174B01D9
:101D20005C012DEF39EB49E657E5C701B6010E948A
:101D3000DC142DE537EA4EE359E50E94D2152B015C
:101D40003C01A7019601C701B6010E94DC142DEFEA
:101D500032E848E154E50E94DC149B01AC01C30168
:101D6000B2010E94D2156B017C0126EE39EC4DE6E2
:101D700051E5C501B4010E94DC149B01AC01C7010F
:101D8000B6010E94D2152BE63BE04EE55DE50E94D0
:101D90003E169B01AC0160E070E080E89FE30E948A
:101DA0003E1623E333E948E853E40E94D1156093DB
:101DB0001B0270931C0280931D0290931E0269E027
:101DC000D62EF8012D2D11922A95E9F78091FF0367
:101DD00090910004DC01ED91FC910084F185E02DEF
:101DE0000995892B71F38091FF0390910004DC0128
:101DF000ED91FC910284F385E02D0995893531F749
:101E00008091FF0390910004DC01ED91FC9102842C
:101E1000F385E02D09958935C9F67E01B3E0EB0E17
:101E2000F11C52EB852E912CA12CB12C8091FF033B
:101E300090910004DC01ED91FC910284F385E02D8A
:101E40000995F70181937F01880E911CA11CB11C9B
:101E50002C8D3D8D2E173F0749F78091FF03909100
:101E60000004DC01ED91FC910284F385E02D0995DD
:101E70009924AA24BB2490E0B0E0A0E0881699063B
:101E8000AA06BB0609F0A2CF8C8190E0982F882784
:101E90002B81820F911D90930204809301042E8167
:101EA00030E0322F22274D81240F311D309304045E
:101EB000209303048B3091050CF489C09093270381
:101EC000809326038091260390912703883C9105F7
:101ED00020F030922703209226038DE293E00E94A7
:101EE000AA01892B09F41CC18DE293E00E943902FA
:101EF00062E371E0CE0146960E949C0662E371E0C7
:101F0000CE0140960E949C06D12CC12C8DE293E01C
:101F10000E94AA01892B09F45FC08DE293E00E9420
:101F2000880189831A8241E050E0B801CE014096D1
:101F30000E941C06BFEFCB1ADB0AE8CF9E3040F4AC
:101F40002850310981E001C0880F2A95EAF7DBCDDE
:101F50002E503109F7CF80912503882309F4A7CEAD
:101F600080E00E94D60220911F0230912002F901E8
:101F7000EE0FFF1FEB5DFD4F40815181052E000CE0
:101F8000660B770BC41AD50AE60AF70A9183808399
:101F9000092E000CAA0BBB0B8C0D9D1DAE1DBF1D89
:101FA0008093210290932202A0932302B0932402F3
:101FB0002F5F3F4F203831052CF4309320022093BF
:101FC0001F0275CE1092200210921F0270CE309226
:101FD00027032092260376CF63E371E0C8010E94B5
:101FE0009C0650E040E0B801CE0140960E948A0570
:101FF0007C01C8010E9482056EE271E0C8010E9466
:102000009C06A701B801CE0140960E948A057C017A
:1020100090932C0380932B03C8010E9482059701A3
:1020200050E040E0BE01605F7F4FC8010E94AD06F6
:10203000B801CE0146960E94BB05C8010E948205E8
:1020400065E371E0CE0146960E94A605882309F457
:102050005FC0C6010A97059708F05AC01B861A860A
:102060001D861C861F861E86688979896115710503
:1020700031F04C895D89CE010A960E947106EFEF1E
:10208000EE1AFE0AFAE0CF16D10409F07AC06AE32C
:1020900071E0C8010E949C06A701B801CE010A9612
:1020A0000E948A056C01C8010E9482059601A70161
:1020B000BE01665F7F4FC8010E94AD06B8018BE08C
:1020C00094E00E94BB05C8010E94820521E130E036
:1020D00030932A03209329036CE371E08BE094E0B2
:1020E0000E94A605882309F49FC0809128038111CE
:1020F0009BC050E040E070E060E08FEF90E00E9415
:10210000110481E080932803CE010A960E94820583
:10211000CE0140960E948205CE0146960E9482051D
:102120000E94EB024B015C018AE0C82ED12CE12C0D
:10213000F12C0E94EB02681979098A099B09683E13
:10214000734081059105A8F3E1E0CE1AD108E108BA
:10215000F108F8EE8F0EF3E09F1EA11CB11CC11414
:10216000D104E104F10429F780E090E0892B09F41F
:1021700063CD0E94B601882309F45BCD0E94000064
:1021800058CD6EE271E0C8010E949C06A701B8011B
:10219000CE010A960E948A055C01C8010E94820550
:1021A00065013FEFC31AD30A6AE371E0C8010E94D8
:1021B0009C06A601B801CE010A960E948A054C0130
:1021C000C8010E9482059501A701BE01665F7F4F8D
:1021D000C8010E94AD06B8018BE094E00E94BB05E7
:1021E000C8010E9482059401A601BE01665F7F4F6F
:1021F000C8010E94AD06B80185E094E00E94BB05CD
:10220000C8010E9482058091050490910604009700
:1022100039F00E94D11170932A03609329035CCF97
:1022200060E070E0CB01F7CF6EE371E08BE094E00B
:102230000E94A605882321F080912803882309F1B4
:1022400060E471E08BE094E00E94A605811125C056
:1022500062E471E08BE094E00E94A60581112DC03C
:1022600064E471E08BE094E00E94A6058823A9F164
:102270004FEF50E06FEF70E08FEF90E00E9411049D
:1022800043CF50E040E06FEF70E090E080E00E94CC
:10229000110491E09093280337CF80912803811196
:1022A000D7CF4FEF50E070E060E090E080E00E9418
:1022B0001104A1E0A093280327CF80912803811166
:1022C000CFCF50E040E068E270E08FEF90E00E94F6
:1022D0001104B1E0B093280317CF66E471E08BE0FE
:1022E00094E00E94A605882309F40ECF50E040E058
:1022F00070E060E090E080E0C1CF8091D3039091E6
:10230000D4030E9414198091D0039091D10397FDBA
:1023100003C060E00E94A5028CE191E09093E1038C
:102320008093E00380910C0290910D02805E9340B7
:1023300071F4E091F303F091F40390818091F5033F
:1023400080958923808310920D0210920C0285E003
:1023500094E00E9482058BE094E00E94820581E176
:1023600094E00C948205EF920F931F93CF93DF9329
:10237000E80134E047FD34E1042E000C550B57FF13
:1023800003C0519541955109E32E022F242FAE0130
:102390000E945812CE01DF91CF911F910F91EF90C3
:1023A00008951F93FC0199278827BC01E894119197
:1023B0001032E9F3193010F01E30C8F31B3251F01F
:1023C0001D3249F4689406C00E940712610F711D06
:1023D000811D911D119110531A30B0F33EF4909568
:1023E0008095709561957F4F8F4F9F4F1F910895F6
:1023F000BB272A3051F4992342F4BDE29095809591
:10240000709561957F4F8F4F9F4F0C941D12592FE0
:10241000482F372F262F660F771F881F991F660FAB
:10242000771F881F991F620F731F841F951F660FE8
:10243000771F881F991F0895BB27FA01A62F6217DF
:10244000710581059105330B30FB66F0AA27660FF5
:10245000771F881F991FAA1FA21710F0A21B639550
:102460003850A9F7A05DAA3308F0A95DA19336F70B
:10247000B111B1931082CA010C948F14BB27FB01D8
:102480005527AA27880F991FAA1FA41710F0A41B6D
:1024900083955051B9F7A05DAA3308F0A95DA193C7
:1024A000009779F7B111B1931192CB010C948F146D
:1024B000A9E0B0E0EEE5F2E10C94A0156A01F22E7D
:1024C000B02E102FFBE3AF2EA01608F41BE31F5F06
:1024D000012F27E0AE014F5F5F4F0E94B713BC0191
:1024E0008981982F9970913009F43FC09BE2E1FCFB
:1024F00004C09E2D9170E0FC3AC05E2D5071E82F13
:10250000E87083FF46C084E0911101C083E0EF2DA5
:10251000E81B8F1508F0E0E0D6018E2F20E255234E
:1025200051F1992329F0D6019C93C60101966C01C3
:1025300096012D5F3F4FE2FE24C08EE4D6018C93BE
:1025400091E411969C93119712968C93D9018E2F3A
:1025500090E281111BC0E20FF32FF11D10828EEF6C
:102560009FEF2996ECE00C94BC159DE2C6CF90E25B
:10257000C4CF2D9381508111FCCFCE0ED11CE0E051
:10258000D0CF8EE6D6018C9391E6DBCF9D93815020
:10259000E0CF482F447082FF3DC084E0911101C01C
:1025A00083E08F1510F4EF2DE81BD6018E2F20E26B
:1025B000552309F1992329F0D6019C93C601019670
:1025C0006C0196012D5F3F4FE2FE1BC089E4D601EE
:1025D0008C938EE411968C93119786E412968C93CB
:1025E000D9018E2F90E2882309F4B5CF9D938150B5
:1025F000FACF2D9381508111FCCFCE0ED11CE0E09B
:10260000D9CF89E6D6018C938EE611968C931197DB
:1026100086E6E4CF9B0177FF02C030E020E0A1E036
:10262000B0E0911102C0B0E0A0E0F9013196AE0F28
:10263000BF1F8B2C912CBB2009F461C05401EFEF1C
:10264000AE1ABE0AAA0DBB1DFA161B0619F014F02D
:102650004F2D4A1B511188C0E3FC59C07601A42FAD
:10266000B0E2A1114FC0C40ED11C992309F45BC084
:1026700040E0D6011196F60190836D01552309F4CF
:1026800048C0012F060F9A81582F507184FF03C054
:10269000913309F4015010160CF047C0093008F0CE
:1026A00008E0EEE2FE2E5B01A01AB10885019194CC
:1026B000819491082F3F320729F4D601FC92F6014C
:1026C00031966F016217730794F1021713077CF5B7
:1026D000DB01A21BB30BAA24A394B12CAC0EBD1E2C
:1026E000AA0DBB1D11968C9121503109D60111966E
:1026F00028153905F4F0F60180836D01DBCFB12C8C
:10270000A12CA0CFF701B1937F01A150AACF9111C5
:10271000B0CFD601942F50E302C05D939150911138
:10272000FCCFC40ED11C40E0ACCF01E0BACF80E3B7
:10273000DBCF6217730731F4963388F4953311F4C5
:10274000552369F0F6018083FD01842F90E2811109
:1027500008C0A40FB11D1C9290E080E002CF81E37D
:10276000F1CF91938150F3CF911183CF8ACF28304D
:1027700008F027E03327DA01990F311D87FD9160BA
:1027800000966105710539F432602E5F3D9330E3A8
:102790002A95E1F708959F3F30F080387105610573
:1027A00009F03C5F3C5F3D93913008F08068911DDB
:1027B000DF93CF931F930F93FF92EF92192F987F80
:1027C0009695E92F96959695E90FFF27EC5BFE4FBE
:1027D00099273327EE24FF24A701E70105900894E9
:1027E000079428F4360FE71EF81E491F511D660F87
:1027F000771F881F991F0694A1F70590079428F466
:10280000E70EF81E491F561FC11D770F881F991F1D
:10281000661F0694A1F70590079428F4F80E491F47
:10282000561FC71FD11D880F991F661F771F06945B
:10283000A1F70590079420F4490F561FC71FD81F12
:10284000990F661F771F881F0694A9F7849110952A
:10285000177041F0D695C79557954795F794E7942B
:102860001A95C1F7EAEEF0E068941590159135914C
:102870006591959105907FE27395E118F10A430BFC
:10288000560BC90BD009C0F7E10CF11E431F561FB0
:10289000C91FD01D7EF4703311F48A95E6CFE894F9
:1028A000015030F0080F0AF40027021708F4202F17
:1028B0002395022F7A3328F079E37D932A95E9F75F
:1028C00010C07D932A9589F606949795679537955C
:1028D00017951794E118F10A430B560BC90BD00951
:1028E00098F023957E9173957A3308F070E37C938A
:1028F0002013B8F77E9170617D9330F0839571E37A
:102900007D9370E32A95E1F71124EF90FF900F91EA
:102910001F91CF91DF91992787FD90950895DC0154
:10292000FC01672F71917723E1F7329704C07C9106
:102930006D9370836291AE17BF07C8F30895E89452
:1029400009C097FB3EF490958095709561957F4FF7
:102950008F4F9F4F9923A9F0F92F96E9BB279395A5
:10296000F695879577956795B795F111F8CFFAF4B5
:10297000BB0F11F460FF1BC06F5F7F4F8F4F9F4FE6
:1029800016C0882311F096E911C0772321F09EE844
:10299000872F762F05C0662371F096E8862F70E0AA
:1029A00060E02AF09A95660F771F881FDAF7880F84
:1029B0009695879597F908950E94EF140C946015E9
:1029C0000E94521538F00E94591520F0952311F0FD
:1029D0000C9449150C944F1511240C9494150E94D5
:1029E000711570F3959FC1F3950F50E0551F629FCD
:1029F000F001729FBB27F00DB11D639FAA27F00D58
:102A0000B11DAA1F649F6627B00DA11D661F829F7E
:102A10002227B00DA11D621F739FB00DA11D621F63
:102A2000839FA00D611D221F749F3327A00D611D80
:102A3000231F849F600D211D822F762F6A2F112462
:102A40009F5750409AF0F1F088234AF0EE0FFF1F95
:102A5000BB1F661F771F881F91505040A9F79E3FEC
:102A6000510580F00C9449150C9494155F3FE4F3E4
:102A7000983ED4F3869577956795B795F795E79542
:102A80009F5FC1F7FE2B880F911D9695879597F94B
:102A9000089597F99F6780E870E060E008959FEFE0
:102AA00080EC089500240A941616170618060906E5
:102AB000089500240A9412161306140605060895B4
:102AC000092E0394000C11F4882352F0BB0F40F43C
:102AD000BF2B11F460FF04C06F5F7F4F8F4F9F4F7C
:102AE000089557FD9058440F551F59F05F3F71F0FE
:102AF0004795880F97FB991F61F09F3F79F0879565
:102B00000895121613061406551FF2CF4695F1DFED
:102B100008C0161617061806991FF1CF869571057D
:102B2000610508940895E894BB2766277727CB01B1
:102B300097F908952F923F924F925F926F927F92F2
:102B40008F929F92AF92BF92CF92DF92EF92FF92BD
:102B50000F931F93CF93DF93CDB7DEB7CA1BDB0B69
:102B60000FB6F894DEBF0FBECDBF09942A8839880E
:102B700048885F846E847D848C849B84AA84B98415
:102B8000C884DF80EE80FD800C811B81AA81B98121
:102B9000CE0FD11D0FB6F894DEBF0FBECDBFED0135
:102BA00008955058BB27AA270E94E9150C94601578
:102BB0000E94521538F00E94591520F039F49F3FB9
:102BC00019F426F40C944F150EF4E095E7FB0C94E1
:102BD0004915E92F0E94711558F3BA176207730758
:102BE0008407950720F079F4A6F50C9493150EF45C
:102BF000E0950B2EBA2FA02D0B01B90190010C010D
:102C0000CA01A0011124FF27591B99F0593F50F424
:102C1000503E68F11A16F040A22F232F342F44277C
:102C2000585FF3CF469537952795A795F040539574
:102C3000C9F77EF41F16BA0B620B730B840BBAF044
:102C40009150A1F0FF0FBB1F661F771F881FC2F7AF
:102C50000EC0BA0F621F731F841F48F487957795C3
:102C60006795B795F7959E3F08F0B0CF9395880F7D
:102C700008F09927EE0F9795879508950E945216B0
:102C80000C9460150E94591558F00E94521540F09E
:102C900029F45F3F29F00C94491551110C949415B7
:102CA0000C944F150E94711568F39923B1F35523C5
:102CB00091F3951B550BBB27AA276217730784074F
:102CC00038F09F5F5F4F220F331F441FAA1FA9F3E5
:102CD00035D00E2E3AF0E0E832D091505040E695D3
:102CE000001CCAF72BD0FE2F29D0660F771F881F34
:102CF000BB1F261737074807AB07B0E809F0BB0B27
:102D0000802DBF01FF2793585F4F3AF09E3F51053A
:102D100078F00C9449150C9494155F3FE4F3983EB9
:102D2000D4F3869577956795B795F7959F5FC9F723
:102D3000880F911D9695879597F90895E1E0660FA4
:102D4000771F881FBB1F621773078407BA0720F01D
:102D5000621B730B840BBA0BEE1F88F7E095089586
:102D600016F00C948A170C944F1568940C9449151E
:102D70000E947915A8F39923C1F3AEF3DF93CF93A3
:102D80001F930F93FF92C92FDD2788232AF02197E5
:102D9000660F771F881FDAF720E030E040E85FEB2E
:102DA0009FE3883920F0803E38F021968F770E948B
:102DB000D215E8E6F0E004C00E94D215E5E9F0E0A3
:102DC0000E9498178B01BE01EC01FB2E6F57710911
:102DD0007595771F880B990B0E94A11428E132E7A3
:102DE00041E35FE30E94EF14AF2D9801AE01FF9025
:102DF0000F911F91CF91DF910E94E9150C946015FE
:102E0000FA01EE0FFF1F309621053105A1F1611582
:102E1000710561F48038BFE39B0749F168949038ED
:102E2000810561F08038BFEF9B0741F099234AF597
:102E3000FF3FE1053105210519F1E8940894E79574
:102E4000D901AA2329F4AB2FBE2FF85FD0F310C00D
:102E5000FF5F70F4A695E0F7F73950F019F0FF3AEC
:102E600038F49F779F930DD00F9007FC90580895EA
:102E700046F00C944F1560E070E080E89FE3089501
:102E80004FE79F775F934F933F932F930E94B8161E
:102E90002F913F914F915F910E94DC140C94581731
:102EA00029F416F00C9449150C9493150C944F15B5
:102EB0000E947915A8F39638A0F707F80F92E894C6
:102EC0002BE33AEA48EB5FE70E94F2140F920F926D
:102ED0000F924DB75EB70F920E940118E2ECF0E03E
:102EE0000E9498174F915F91EF91FF91E595EE1F2A
:102EF000FF1F49F0FE57E0684427EE0F441FFA9584
:102F0000E1F74195550B0E94CB170F9007FE0C94EB
:102F1000BF1708959F3F31F0915020F48795779522
:102F20006795B795880F911D9695879597F90895A0
:102F3000DF93CF931F930F93FF92EF92DF927B016A
:102F40008C01689406C0DA2EEF010E94EF14FE0196
:102F5000E894A5912591359145915591A6F3EF01FE
:102F60000E94E915FE019701A801DA9469F7DF9044
:102F7000EF90FF900F911F91CF91DF9108959B01EA
:102F8000AC0160E070E080E89FE30C943E160C9486
:102F900049150C948A170E947915D8F39923C9F31F
:102FA000940F511DA3F39150504094F059F0882391
:102FB00032F0660F771F881F91505040C1F79E3F37
:102FC00051052CF7880F911D9695879597F90895CF
:102FD0005F3FACF0983E9CF0BB2786957795679550
:102FE000B79508F4B1609395C1F7BB0F58F711F48A
:102FF00060FFE8CF6F5F7F4F8F4F9F4FE3CF0C9401
:103000009415FA01DC01AA0FBB1F9B01AC01BF574D
:1030100028F4222733274427507820C0B75190F452
:10302000AB2F0024469537952795011CA395D2F325
:10303000002071F0220F331F441FB395DAF30ED036
:103040000C94D11561307105A0E88A07B94630F4B7
:103050009B01AC016627772788279078309621F06E
:1030600020833183428353830895AA1BBB1B51E104
:1030700007C0AA1FBB1FA617B70710F0A61BB70BE8
:10308000881F991F5A95A9F780959095BC01CD018D
:10309000089597FB072E16F4009407D077FD09D00A
:1030A0000E94351807FC05D03EF4909581959F4FFE
:1030B0000895709561957F4F08950024A7FD0094B1
:1030C0002A0F301D401D501D601D701D801D901D5C
:1030D00008952A153B054C055D056E057F058007A3
:1030E00091070895EE0FFF1F0590F491E02D0994CC
:1030F0000F931F93CF93DF938230910510F482E0FA
:1031000090E0E0911904F0911A0430E020E0B0E082
:10311000A0E0309799F42115310509F44AC0281B25
:10312000390B24303105D8F58A819B8161157105F1
:1031300089F1FB0193838283FE0111C0408151819B
:103140000281138148175907E0F04817590799F48D
:10315000109761F012960C93129713961C93329667
:10316000CF01DF91CF911F910F9108950093190422
:1031700010931A04F4CF2115310551F0421753076B
:1031800038F0A901DB019A01BD01DF01F801C1CFCF
:10319000EF01F9CF90931A0480931904CDCFFE016B
:1031A000E20FF31F819391932250310939832883D1
:1031B000D7CF2091170430911804232B41F420918C
:1031C00002013091030130931804209317042091D9
:1031D0000001309101012115310541F42DB73EB7B1
:1031E0004091040150910501241B350BE091170417
:1031F000F0911804E217F307A0F42E1B3F0B2817D9
:10320000390778F0AC014E5F5F4F2417350748F05F
:103210004E0F5F1F509318044093170481939193AE
:103220009FCFF0E0E0E09CCFCF93DF930097E9F0F1
:10323000FC01329713821282A0911904B0911A04F2
:10324000ED0130E020E01097A1F420813181820F60
:10325000931F20911704309118042817390709F09B
:1032600061C0F0931804E0931704DF91CF910895A3
:10327000EA01CE17DF07E8F54A815B819E0141151F
:103280005105B1F7E901FB83EA8349915991C40FD4
:10329000D51FEC17FD0761F4808191810296840FA0
:1032A000951FE90199838883828193819B838A8317
:1032B000F0E0E0E012968D919C9113970097B9F59C
:1032C0002D913C911197CD010296820F931F209171
:1032D0001704309118042817390739F6309751F53B
:1032E00010921A0410921904B0931804A0931704B2
:1032F000BCCFD383C28340815181840F951FC817EF
:10330000D90761F44E5F5F4F88819981480F591F3B
:10331000518340838A819B81938382832115310568
:1033200009F0B0CFF0931A04E09319049ECFFD0189
:10333000DC01C0CF13821282D7CFB0E0A0E0E3EA75
:10334000F9E10C949C158C01009751F4CB010E947B
:1033500078188C01C801CDB7DEB7E0E10C94B81540
:10336000FC01E60FF71F9C0122503109E217F30719
:1033700008F49DC0D901CD91DC911197C617D707EC
:1033800098F0C530D10530F3CE0104978617970722
:1033900008F3C61BD70B2297C193D1936D937C93EF
:1033A000CF010E941419D6CF5B01AC1ABD0A4C01A3
:1033B0008C0E9D1EA0911904B0911A04512C412C21
:1033C000F12CE12C109731F580911704909118049D
:1033D0008815990509F05CC04616570608F058C0D4
:1033E0008091000190910101009741F48DB79EB743
:1033F0004091040150910501841B950BE817F907D2
:1034000008F055C0F0931804E0931704F901718394
:103410006083A0CF8D919C91119712966C9012971A
:1034200013967C901397A815B90559F56C0142E0E5
:10343000C40ED11CCA14DB0420F1AC014A195B098B
:10344000DA011296159780F062827382518340836D
:10345000D9016D937C93E114F10471F0D7011396B7
:10346000FC93EE93129776CF22968C0F9D1FF90155
:1034700091838083F301EFCFF0931A04E093190452
:1034800069CF4816590608F42C017D01D3019ACF63
:10349000CB010E9478187C01009749F0AE01B80179
:1034A0000E945A1AC8010E941419870153CF10E0D4
:1034B00000E050CFFB01DC0102C001900D924150B1
:1034C0005040D8F70895DC0101C06D934150504041
:1034D000E0F70895FB01DC018D9101908019011046
:1034E000D9F3990B0895FB01DC0101900D920020A6
:1034F000E1F70895FB0151915523A9F0BF01DC01CB
:103500004D9145174111E1F759F4CD01019000208B
:1035100049F04D9140154111C9F3FB014111EFCF25
:1035200081E090E00197089511E0C0E2D1E004C08D
:10353000FE010E9472182196C132D107C9F7F89492
:02354000FFCFBB
:1035420000001B04800000000000EC014C01790126
:103552003902AA0188019C010000000079034C0194
:103562000E043703D503ED03610323434E542C00AD
:103572000D0A00230023434E54005C005200470012
:0835820042004F005700460013
:00000001FF
