:100000000C9421010C9449010C9449010C94AB0906
:100010000C94AB090C94AB090C9449010C94490164
:100020000C9449010C94230A0C9449010C94490145
:100030000C9449010C9449010C9449010C94490118
:100040000C9446080C9449010C9414080C94EE0787
:100050000C9449010C9449010C9449010C944901F8
:100060000C9490080C94490108000000BE922449A9
:10007000123EABAAAA2ABECDCCCC4C3E00000080DA
:10008000BEABAAAAAA3E00000000BF000000803F4D
:100090000000000000084178D3BB4387D1133D190D
:1000A0000E3CC3BD4282AD2B3E68EC8276BED98F3A
:1000B000E1A93E4C80EFFFBE01C4FF7F3F0000007E
:1000C000000007634236B79BD8A71A39685618AEA6
:1000D000BAAB558C1D3CB7CC5763BD6DEDFD753E7D
:1000E000F6177231BF000000803F00407A10F35ACB
:1000F00000A0724E18090010A5D4E80000E8764868
:10010000170000E40B54020000CA9A3B000000E113
:10011000F505000080969800000040420F000000A6
:10012000A08601000000102700000000E803000086
:1001300000006400000000000A0000000000010050
:10014000000000002C76D888DC674F0823DFC1DF71
:10015000AE59E1B1B796E5E3E453C63AE651997674
:1001600096E8E6C28426EB898C9B62ED407C6FFCAE
:10017000EFBC9C9F40F2BAA56FA5F490055A2AF7F0
:100180005C936B6CF9676DC11BFCE0E40D47FEF5F9
:1001900020E6B500D0ED902E030094357705008061
:1001A000841E080000204E0A000000C80C333333C0
:1001B000330F986E12831141EF8D2114893BE65560
:1001C00016CFFEE6DB18D1844B381BF77C1D901D43
:1001D000A4BBE424203284725E228100C9F124ECA5
:1001E000A1E53D2700000000240027002A000000B0
:1001F00000080002010000030407000000000000E6
:10020000000000000000230026002900000000007C
:10021000250028002B000404040404040404020242
:100220000202020203030303030301020408102075
:100230004080010204081020010204081020950AE1
:10024000B71011241FBECFEFD8E0DEBFCDBF24E032
:10025000A8E4B1E001C01D92AC30B207E1F711E0B3
:10026000A0E0B1E0ECE0F3E302C005900D92A83409
:10027000B107D9F711E0C0E2D1E004C02197FE0137
:100280000E945717CF31D107C9F70E94BE0B0C94BB
:1002900079190C9400000895AF92BF92CF92DF922B
:1002A000EF92FF920F931F93CF93DF936C017B012B
:1002B0008B01040F151FEB015E01AE18BF08C017BC
:1002C000D10759F06991D601ED91FC910190F0812F
:1002D000E02DC6010995892B79F7C501DF91CF91F2
:1002E0001F910F91FF90EF90DF90CF90BF90AF9054
:1002F0000895FC01538D448D252F30E0842F90E02C
:10030000821B930B541710F0CF9608950197089510
:10031000FC01918D828D981761F0A28DAE0FBF2FD9
:10032000B11D5D968C91928D9F5F9F73928F90E02F
:1003300008958FEF9FEF0895FC01918D828D98179E
:1003400031F0828DE80FF11D858D90E008958FEFDB
:100350009FEF0895FC01918D228D892F90E0805CA4
:100360009F4F821B91098F739927089584E293E030
:100370000E94AA0121E0892B09F420E0822F089530
:1003800080E090E0892B29F00E94B60181110C9445
:1003900000000895FC01A48DA80FB92FB11DA35A28
:1003A000BF4F2C91848D90E001968F739927848F95
:1003B000A689B7892C93A089B1898C9183708064B8
:1003C0008C93938D848D981306C00288F389E02D59
:1003D00080818F7D80830895EF92FF920F931F930A
:1003E000CF93DF93EC0181E0888F9B8D8C8D9813E8
:1003F0001AC0E889F989808185FF15C09FB7F894F4
:10040000EE89FF896083E889F9898081837080643F
:1004100080839FBF81E090E0DF91CF911F910F918A
:10042000FF90EF900895F62E0B8D10E00F5F1F4F99
:100430000F731127E02E8C8D8E110CC00FB607FCA8
:10044000FACFE889F989808185FFF5CFCE010E9436
:10045000CA01F1CFEB8DEC0FFD2FF11DE35AFF4FD9
:10046000F0829FB7F8940B8FEA89FB8980818062C4
:10047000CFCFCF93DF93EC01888D8823B9F0AA8981
:10048000BB89E889F9898C9185FD03C0808186FD4F
:100490000DC00FB607FCF7CF8C9185FFF2CF80819E
:1004A00085FFEDCFCE010E94CA01E9CFDF91CF9148
:1004B000089590E0FC01E251FE4F2491FC01E65DBD
:1004C000FD4F3491FC01EA5EFD4FE491EE23C9F04B
:1004D000222339F0233001F1A8F4213019F1223020
:1004E00029F1F0E0EE0FFF1FE45FFD4FA591B491FD
:1004F0008FB7F894EC91611126C030953E233C9360
:100500008FBF08952730A9F02830C9F0243049F76B
:10051000809180008F7D03C0809180008F778093D1
:100520008000DFCF84B58F7784BDDBCF84B58F7D2E
:10053000FBCF8091B0008F778093B000D2CF8091B5
:10054000B0008F7DF9CF3E2BDACFCF93DF9390E0D1
:10055000FC01E65DFD4F24918A5E9D4FFC01849174
:100560008823D1F090E0880F991FFC01EC51FE4FD9
:10057000A591B491FC01E45FFD4FC591D491611147
:100580000EC09FB7F8948C91E22FE0958E238C9348
:100590002881E223E8839FBFDF91CF9108958FB731
:1005A000F894EC91E22BEC938FBFF6CF8E3008F0ED
:1005B0008E508770806480937C0080917A00806484
:1005C00080937A0080917A0086FDFCCF809178003C
:1005D0009091790008953FB7F8948091FF01909130
:1005E0000002A0910102B091020226B5A89B05C0AD
:1005F0002F3F19F00196A11DB11D3FBFBA2FA92FA2
:10060000982F8827BC01CD01620F711D811D911D9E
:1006100042E0660F771F881F991F4A95D1F708950A
:100620002091B001260F3327331F21323105ECF41E
:100630002091D401FC0190E080E0243069F082E058
:100640000895A091B0012191AC0140575E4FA40FD5
:10065000B52FB11D2C930196861798F38091B001A8
:10066000680F6093B00180E0089581E008950895D7
:100670008FEF9FEF08958FEF9FEF0895809189018D
:1006800090E09195819591090895CF93DF93CB01E7
:10069000EA01642F0E941003CE01DF91CF910895EB
:1006A000CF93DF931F92CDB7DEB7698361E0CE01B0
:1006B00001960E94100381E090E00F90DF91CF91AE
:1006C000089520910502309106022817390771F428
:1006D0009091030280910402981741F0E091030287
:1006E000F0E0E75BFE4F808190E008958FEF9FEF91
:1006F0000895EF92FF920F931F93CF93DF93DC0146
:100700005C96ED90FC905D97E114F10479F481E042
:1007100090E013969C938E93129790E080E0DF9187
:10072000CF911F910F91FF90EF9008955196ED9109
:10073000FC91529750968C915097982F90950FB7A7
:100740005E962C915E97122F127021FD6095F894A1
:100750002081112319F1282B2083E7012197F1F73C
:1007600028E0462F50E0308160FF1AC0382B3083DC
:10077000E7012197F1F7BA0175956795215089F73F
:10078000112381F08081892380830FBF5C968D9136
:100790009C910197F1F781E090E0C1CF2923DCCF54
:1007A0003923E5CF9081892BEFCF2091050230913D
:1007B00006022817390771F4809104022091030280
:1007C00090E0805C9F4F821B910960E470E00E9482
:1007D0004317089590E080E008952091050230913C
:1007E000060228173907B9F4909103028091040298
:1007F000981789F0E0910302F0E0E75BFE4F8081FB
:100800002091030230E02F5F3F4F2F733327209357
:10081000030290E008958FEF9FEF089590E080E04D
:1008200008954F925F926F927F92AF92BF92CF9254
:10083000DF92EF92FF920F931F93CF93DF93CDB789
:10084000DEB729970FB6F894DEBF0FBECDBF8A0181
:10085000AB01770F660B770B762F652F542F44274C
:10086000012E000C220B330B402B512B622B732BD0
:10087000092E000CAA0BBB0BDC0199278827842BBF
:10088000952BA62BB72B6D01EE24FF24AC2C092F42
:10089000182FF12CE12C88E0B82E8091C3039091A1
:1008A000C403E816F90608F006C18091C903412F78
:1008B000502F6A2D882371F08C9D90018D9D300DF5
:1008C0001124632F809F90011124532F819FC00119
:1008D0001124492FE091CF038091CA039091CB035B
:1008E0002091CC03E213A3C09701220F331F2E0DDA
:1008F0003F1D820F931FE091CC03E80FF92FF11DEC
:100900006083E091CD03E80FF92FF11D5083209112
:10091000CE03820F911DFC0140838091CA03909108
:10092000CB03892B09F47FC04090D0035090D103B2
:100930006090D2037090D3030E94EB02641575059A
:100940008605970550F40E94EB026093D0037093E4
:10095000D1038093D2039093D3030E94EB02409083
:10096000D0035090D1036090D2037090D3036419E8
:100970007509860997096C32714081059105A0F2CD
:10098000F8948091C5039091C6039A838983E0917E
:10099000CA03F091CB03DF01119680818987909182
:1009A000C103E091D403F091D5038091D60399233C
:1009B00009F449C09081982B98879081809589236C
:1009C0008F838F818C83BB8258856F8149853B8162
:1009D0002C8189819A81508347FD252F3A95208368
:1009E000262F39F0441F00C000006083000000C0C3
:1009F000F2CF38E04D9160830000019761F7F093EA
:100A0000D503E093D40349873B832C839A8389835E
:100A100078940E94EB026093D0037093D10380938B
:100A2000D2039093D3032FEFE21AF20A36CF970145
:100A3000220F331F220F331F820F931FE80FF92F4E
:100A4000F11D108258CF9081982B988790818095C6
:100A500089238F838F818E83BD8258856F814985DD
:100A60003D812E8189819A81508347FD252F00C0C9
:100A700000C0208300C000C000C000C000C0608370
:100A80000000262F3A9541F0441F000000C000C02E
:100A900000C000C000C0E8CF38E04D9100C06083C6
:100AA00000C0019709F7F093D503E093D403498779
:100AB0003D832E83ABCF29960FB6F894DEBF0FBED1
:100AC000CDBFDF91CF911F910F91FF90EF90DF90FD
:100AD000CF90BF90AF907F906F905F904F900895B0
:100AE000CF93DF93EC0188819981009711F00E94E8
:100AF000F917198218821D821C821B821A82DF91CB
:100B0000CF910895FC0180819181009711F00C94A0
:100B1000F9170895CF93DF93FC01248135814217A3
:100B2000530788F4C081D181FB0160817181CE01BE
:100B3000840F951F0E945F19009729F08C1B9D0B55
:100B4000DF91CF9108958FEF9FEFFACFFC012481C1
:100B50003581232B39F421E0FB018081882349F082
:100B600020E007C0808191810E944F1921E0892BEC
:100B7000B9F7822F08950F931F93CF93DF938C01C2
:100B8000EB01FC01808191810097E1F0688179811E
:100B900061157105A9F0428153812C813D81421775
:100BA000530770F00E9458198C819D81F80195833C
:100BB00084831D821C82DF91CF911F910F91089534
:100BC0000E94F91788819981F801918380838A8135
:100BD0009B81938382838C819D81958384831982F9
:100BE00018821B821A82E5CF0F931F93CF93DF9356
:100BF000EC0188819981009759F02A813B81261761
:100C0000370730F081E0DF91CF911F910F91089568
:100C10008B016F5F7F4F0E948218009759F0998374
:100C200088831B830A832C813D81232B59F7FC0188
:100C30001082E8CF80E0E7CFEF92FF920F931F93EF
:100C4000CF93DF936115710541F480E0DF91CF917F
:100C50001F910F91FF90EF90089541155105B1F04C
:100C60007B01EC010C811D81040F151FB8010E944E
:100C7000F405882351F3288139818C819D81B70146
:100C8000820F931F0E9458191D830C8381E0DECFD1
:100C9000CF93DF93EC01FB0101900020E9F731973E
:100CA000AF01461B570B0E941C06811103C0CE01E9
:100CB0000E947005CE01DF91CF910895CF93DF930D
:100CC000EC01FB0144815581608171810E941C0609
:100CD000811103C0CE010E947005CE01DF91CF913A
:100CE0000895EF92FF920F931F93CF93DF93EC0140
:100CF0007B018A01BA010E94F40581110BC0CE016B
:100D00000E947005CE01DF91CF911F910F91FF904E
:100D1000EF9008951D830C83B701888199810E940B
:100D20005819F0CFFB0101900020E9F73197AF018E
:100D3000461B570B0C947106FC0111821082138222
:100D4000128215821482FB0101900020E9F731978D
:100D5000AF01461B570B0C9471061F93CF93DF9383
:100D600085ED8093BC0080918C0190918D01A091C4
:100D70008E01B0918F010796A11DB11D23E0B6959C
:100D8000A795979587952A95D1F72091BC0024FDCA
:100D900003C01092D40152C040918C0150918D013A
:100DA00060918E0170918F01452B462B472B69F383
:100DB0000097A105B10541F025E32A95F1F7000060
:100DC0000197A109B109E1CF80918B01C1E0C093E6
:100DD0008A01882399F1D091B8001091BA008091CE
:100DE000BC008A7B8093BC0060E082E10E945902D3
:100DF00060E083E10E9459021092D401C093D601B1
:100E00001092D50161E082E10E94590261E083E124
:100E10000E9459028091B9008E7F8093B900809121
:100E2000B9008D7F8093B90088E48093B80085E491
:100E30008093BC001093BA00D093B800DF91CF919B
:100E40001F9108950F931F93CF93DF93CDB7DEB714
:100E5000E4970FB6F894DEBF0FBECDBF18AA1FA649
:100E60001AAA19AA1CAA1BAA2AE0AE014F5F5F4F5B
:100E70006FEF71E183E090E00E940711BE016F5FA8
:100E80007F4FCE018F960E94920680911F03909112
:100E900020031AA619A61CA61BA61EA61DA64AE07C
:100EA000BE016F5F7F4F0E943811BE016F5F7F4FA1
:100EB000CE0189960E9492066091140270911502EB
:100EC00080911602909117021CA21BA21EA21DA2C5
:100ED00018A61FA28E010F5F1F4F21E043E00E9462
:100EE000E910009709F475C0BC01CE0183960E94F9
:100EF00092066AE271E0CE0101960E949C06BE0154
:100F00006D5D7F4FCE0101960E945E066EE271E03C
:100F10000E944806BE01675D7F4F0E945E066EE23A
:100F200071E00E944806BE01615D7F4F0E945E062F
:100F300060E371E00E944806FC01448155816081B4
:100F4000718184E293E00E944C01CE0101960E94DF
:100F50008205CE0183960E948205CE0189960E9469
:100F60008205CE018F960E948205809121038823FD
:100F700029F0809148018F5F80934801809148015A
:100F80008231E0F0809121038823C1F04091C503B4
:100F90005091C60370E060E08091CA039091CB034A
:100FA0000E9448194FEF50E06FEF70E08FEF90E034
:100FB0000E9411041092210310924801E4960FB68A
:100FC000F894DEBF0FBECDBFDF91CF911F910F917F
:100FD0000895CE0183960E9470058BCF1F920F92C9
:100FE0000FB60F9211242F933F934F935F936F93FC
:100FF0007F938F939F93AF93BF93EF93FF9384E27D
:1010000093E00E94CA01FF91EF91BF91AF919F9130
:101010008F917F916F915F914F913F912F910F90A1
:101020000FBE0F901F9018951F920F920FB60F9240
:1010300011242F938F939F93EF93FF93E0913403A9
:10104000F09135038081E0913A03F0913B0382FDFA
:101050001BC0908180913D038F5F8F7320913E0371
:10106000821741F0E0913D03F0E0EC5DFC4F958F7D
:1010700080933D03FF91EF919F918F912F910F905E
:101080000FBE0F901F9018958081F4CF1F920F9282
:101090000FB60F9211242F933F938F939F93AF938B
:1010A000BF938091FB019091FC01A091FD01B09153
:1010B000FE013091FA0123E0230F2D3758F50196F8
:1010C000A11DB11D2093FA018093FB019093FC01B7
:1010D000A093FD01B093FE018091FF019091000269
:1010E000A0910102B09102020196A11DB11D809351
:1010F000FF0190930002A0930102B0930202BF91FE
:10110000AF919F918F913F912F910F900FBE0F90B4
:101110001F90189526E8230F0296A11DB11DD2CF6E
:101120001F920F920FB60F9211242F933F934F935C
:101130005F936F937F938F939F93AF93BF93EF933F
:10114000FF938091B900887F803609F44AC0F0F59A
:10115000883209F4A5C018F5803109F499C0B8F4B3
:10116000882309F4F5C0883009F492C0FF91EF910B
:10117000BF91AF919F918F917F916F915F914F91AF
:101180003F912F910F900FBE0F901F9018958831AF
:1011900009F486C0803251F78093D30114C08034A3
:1011A00009F49BC040F48033B9F38833F9F6809397
:1011B000D30185ECAEC0803509F483C0883509F4CD
:1011C00094C0883499F60E94AD06D0CF883909F4CE
:1011D0008AC038F5883729F050F4883611F0803706
:1011E00029F683E08093D4011092D20155C088384B
:1011F00009F479C0803919F0803809F0B7CF8091AF
:10120000D201803208F06FC0E091D20181E08E0FF0
:101210008093D2018091BB00F0E0EE54FE4F8083BA
:101220003BC0803B39F0D0F4803A09F477C0883A6B
:1012300009F09CCF84E08093D4011092B101109208
:10124000B001F0E0E0E009958091B00181110FC09C
:1012500081E08093B0011092900109C0803C09F4B4
:10126000A8CF883C09F4A5CF883B09F07FCFE09157
:10127000B10181E08E0F8093B101F0E0E057FE4FA5
:1012800080818093BB009091B1018091B00129C011
:101290008091F9018093BB0085EC8093BC0066CF00
:1012A0009091F8018091F701981758F5E091F801B5
:1012B00081E08E0F8093F801F0E0E952FE4F8081CB
:1012C000E9CFE091F80181E08E0F8093F8018091E1
:1012D000BB00F0E0E952FE4F80839091F8018091CD
:1012E000F7019817C8F285E8D8CFE091F80181E0BE
:1012F0008E0F8093F8018091BB00F0E0E952FE4F21
:1013000080838091D60181115ECF81E08093D501E9
:1013100084EA8093BC001092D40128CF85EC80939E
:10132000BC001092D4018091D201803230F4E0915F
:10133000D201F0E0EE54FE4F10826091D20170E0D5
:1013400082EB91E0F0E0E0E009951092D2010ECF3F
:101350001092D30138CF1F920F920FB60F92112423
:101360002F933F934F935F936F937F938F939F93AD
:10137000AF93BF93EF93FF93E0910502F0910602C4
:10138000309749F0A685B7858585968D91FF14C065
:101390009C918923A1F4FF91EF91BF91AF919F910F
:1013A0008F917F916F915F914F913F912F910F900E
:1013B0000FBE0F901F9018959C91892361F7A38908
:1013C000B4899C918589809589238C938689978996
:1013D0000197F1F7608D718DA685B785558538E049
:1013E00020E0CB010197F1F7822F90E0959587954A
:1013F000282F4C91452309F02068315091F7868DB4
:1014000081FD20958091040290E001968F739927C9
:1014100030910302381799F0A0910402B0E0A75B65
:10142000BE4F2C9380930402828D938D0197F1F728
:10143000A389B4898C919589892B8C93ACCF868DA7
:101440008160868FF1CF1F920F920FB60F921124F9
:101450002F933F934F935F936F937F938F939F93BC
:10146000AF93BF93EF93FF9380910D0290910E0283
:101470008093B2008091100290911102A09112020B
:10148000B09113020196A11DB11D8093100290939B
:101490001102A0931202B093130280911002909156
:1014A0001102A0911202B0911302409109025091D1
:1014B0000A0260910B0270910C0284179507A6072F
:1014C000B70710F180910F0281111EC081E0809357
:1014D0000F028091100290911102A0911202B0911E
:1014E0001302841B950BA60BB70B809310029093ED
:1014F0001102A0931202B0931302E0910702F0913F
:101500000802099510920F02FF91EF91BF91AF91E0
:101510009F918F917F916F915F914F913F912F910B
:101520000F900FBE0F901F901895CF92DF92EF9201
:10153000FF92109227031092260328EEC22E23E07A
:10154000D22EE12CF12CC0922803D0922903E092F4
:101550002A03F0922B038AE091E090932503809375
:10156000240385EC90E0909331038093300384EC66
:1015700090E0909333038093320380EC90E090935B
:1015800035038093340381EC90E09093370380938C
:10159000360382EC90E0909339038093380386EC15
:1015A00090E090933B0380933A0310923D03109296
:1015B0003E0310923F031092400362E371E082E029
:1015C00094E00E949C0662E371E08CEF93E00E943D
:1015D0009C061092F9031092F8031092FB031092EC
:1015E000FA031092DA031092D903C092DB03D0926F
:1015F000DC03E092DD03F092DE038CE191E0909356
:10160000D8038093D7031092EE031092ED0310924B
:10161000F0031092EF031092F2031092F103109274
:10162000F4031092F3036091F5036E7F6D7F609376
:10163000F5036695617081E0682787E00E94590292
:1016400061E087E00E94A502E1E3F2E0E491E0932B
:10165000E703EDE1F2E0E491F0E0EE0FFF1FE45F5D
:10166000FD4F859194919093E9038093E80360E0A6
:1016700088E00E94A5028091F50381FD04C061E02D
:1016800088E00E94590288E08093E303E2E3F2E0FD
:10169000E491E093E403EEE1F2E0E491F0E0EE0F98
:1016A000FF1FEE5FFD4F859194919093E603809329
:1016B000E5031092C2031092C9031092D003109256
:1016C000D1031092D2031092D30381E08093CF0311
:1016D0008093CC031092CD0392E09093CE0380933D
:1016E000C1038BE490E09093C6038093C5030E94EE
:1016F0005D179093CB038093CA03009709F435C01C
:101700002BE4FC0111922A95E9F789E190E090938E
:10171000C4038093C30386E090E09093C803809352
:10172000C7038091C203882341F061E086E00E94F4
:10173000A50260E086E00E945902ECE1F2E0E4914B
:10174000F0E0EE0FFF1FE45FFD4F859194919093C1
:10175000D5038093D403E0E3F2E0E491E093D60371
:10176000FF90EF90DF90CF9008951092C6031092F3
:10177000C5031092C4031092C303CDCFCF93DF9360
:10178000CDB7DEB76D970FB6F894DEBF0FBECDBFF5
:10179000789484B5826084BD84B5816084BD85B54C
:1017A000826085BD85B5816085BD80916E00816058
:1017B00080936E00109281008091810082608093FE
:1017C0008100809181008160809381008091800000
:1017D0008160809380008091B10084608093B1002B
:1017E0008091B00081608093B00080917A00846025
:1017F00080937A0080917A00826080937A00809151
:101800007A00816080937A0080917A00806880936A
:101810007A001092C10050E040E070E060E090E09B
:1018200080E00E941104E0913403F091350382E0DE
:101830008083E0913003F09131031082E091320314
:10184000F091330380E1808310923C03E0913803F0
:10185000F091390386E08083E0913603F0913703FD
:10186000808180618083E0913603F091370380812D
:1018700088608083E0913603F0913703808180682F
:101880008083E0913603F091370380818F7D8083E0
:101890008091C7039091C80397FD08C061E00E9442
:1018A000A50260E08091C7030E94590281E0809305
:1018B000C2034091C5035091C60370E060E080917F
:1018C000CA039091CB030E9448196091C903603804
:1018D00029F12091CA033091CB036150C9F070E027
:1018E0008FEF9FE70E942F17F9014091C503509198
:1018F000C603CF01821B930B8417950760F44081C8
:10190000469FC001479F900D112490833196EDCFE3
:1019100070E060E0E9CF80E88093C90387ED93E051
:101920009093F7038093F6031092F2031092F10361
:101930001092F0031092EF031092EE031092ED0359
:101940008FE190E09093F4038093F3039091E3038D
:10195000963108F047C021E030E03093EE03209349
:10196000ED032DE130E03093F0032093EF032DE001
:1019700030E03093F2032093F1032091680084E07B
:10198000983048F031E09E3008F430E081E001C04A
:10199000880F3A95EAF7822B809368002DE630E0B5
:1019A000983050F02BE630E09E3030F02CE630E0FE
:1019B000963110F030E020E03093EB032093EA03FF
:1019C000292F30E0983008F01EC281E001C0880F56
:1019D0009A95EAF78093EC038091F3039091F403D6
:1019E0000197F1F78091F1039091F203892B49F16E
:1019F000E0910502F091060223E0E73DF20709F1CC
:101A0000309739F0A389B4899C9185898095892381
:101A10008C938091F5038E7F8093F50310920402DE
:101A20001092030287ED93E09093060280930502E3
:101A3000E091EA03F091EB0380819091EC03892B14
:101A40008083EEE1F2E080E0119211928F5F8038A6
:101A5000D9F784E690E0A0E0B0E08093090290938B
:101A60000A02A0930B02B0930C0282E297E09093DB
:101A7000080280930702809170008E7F809370002F
:101A80008091B0008C7F8093B0008091B100877FFF
:101A90008093B1008091B6008F7D8093B6008091D5
:101AA00070008D7F809370008091B100846080937E
:101AB000B1008091B1008C7F8093B10086E090E00E
:101AC00090930E0280930D02109210021092110258
:101AD000109212021092130210920F0280910D02C6
:101AE00090910E028093B20080917000816080938B
:101AF00070008E010F5F1F4FCE0109969D8F8C8F56
:101B000078EC272E312C80911E0380901A02909041
:101B10001B02A0901C02B0901D02811181C10E9485
:101B2000D602EEE1F2E081939193AEE1B3E0AE171D
:101B3000BF07C9F7EEE1F2E080E041915191052E37
:101B4000000C660B770B840E951EA61EB71E8F5FCA
:101B5000803899F780921A0290921B02A0921C0280
:101B6000B0921D02809118029091190201969093F3
:101B7000190280931802B1E0B0931E0360911A021B
:101B800070911B0280911C0290911D020E9499137A
:101B900020E030E040E05CE30E94D6134B015C01A2
:101BA00020E030E44CE156E40E94D6132B013C01C6
:101BB000A501940160E070E080E894E40E94CB14F9
:101BC0009B01AC01C301B2010E94381520E030E452
:101BD0004CE156E40E9438150E94B2154B015C019D
:101BE00020E030E040E450E40E94FA152B013C0173
:101BF0002DEF39EB49E657E5C501B4010E94D61334
:101C00002DE537EA4EE359E50E94CC146B017C01C7
:101C1000A5019401C501B4010E94D6132DEF32E84D
:101C200048E154E50E94D6139B01AC01C701B601FF
:101C30000E94CC144B015C0126EE39EC4DE651E5D7
:101C4000C301B2010E94D6139B01AC01C501B401CE
:101C50000E94CC142BE63BE04EE55DE50E94381572
:101C60009B01AC0160E070E080E89FE30E943815C2
:101C700023E333E948E853E40E94CB146093140251
:101C8000709315028093160290931702F80129E0D1
:101C900011922A95E9F78091F6039091F703DC0100
:101CA000ED91FC910084F185E02D0995892B71F36C
:101CB0008091F6039091F703DC01ED91FC91028491
:101CC000F385E02D0995893531F78091F6039091E0
:101CD000F703DC01ED91FC910284F385E02D099579
:101CE0008935C9F67E01B3E0EB0EF11C52EB852E6F
:101CF000912CA12CB12C8091F6039091F703DC017B
:101D0000ED91FC910284F385E02D0995F701819313
:101D10007F01880E911CA11CB11C2C8D3D8D2E17AE
:101D20003F0749F78091F6039091F703DC01ED91AD
:101D3000FC910284F385E02D09959924AA24BB2403
:101D400090E0B0E0A0E088169906AA06BB0609F06C
:101D5000A2CF8C8190E0982F88272B81820F911D34
:101D60009093F9038093F8032E8130E0322F2227DD
:101D70004D81240F311D3093FB032093FA038B30E8
:101D800091050CF489C09093200380931F038091E8
:101D90001F0390912003883C910520F0309220038E
:101DA00020921F0384E293E00E94AA01892B09F488
:101DB0004AC184E293E00E94390262E371E0CE01FD
:101DC00046960E949C0662E371E0CE0140960E9416
:101DD0009C06B12CA12C84E293E00E94AA01892BDD
:101DE00009F45FC084E293E00E94880189831A822B
:101DF00041E050E0B801CE0140960E941C06BFEFC2
:101E0000AB1ABB0AE8CF9E3040F42850310981E07C
:101E100001C0880F2A95EAF7DDCD2E503109F7CFA2
:101E200080911E03882309F4A9CE80E00E94D60287
:101E30002091180230911902F901EE0FFF1FE25EA6
:101E4000FD4F40815181052E000C660B770B841AE3
:101E5000950AA60AB70A91838083092E000CAA0B63
:101E6000BB0B880D991DAA1DBB1D80931A02909370
:101E70001B02A0931C02B0931D022F5F3F4F20381E
:101E800031052CF4309319022093180277CE10926A
:101E900019021092180272CE3092200320921F0372
:101EA00076CF63E371E0C8010E949C0650E040E0F9
:101EB000B801CE0140960E948A057C01C8010E94AB
:101EC00082056EE271E0C8010E949C06A701B8017C
:101ED000CE0140960E948A057C0190932303809353
:101EE0002203C8010E94820562E371E0C8010E94DA
:101EF0009C068C899D890097D1F047018E159F051E
:101F000008F44C01E889F989E80DF91D7080108208
:101F100068897989C8016115710509F4C5C00E94F5
:101F2000920688899989880E991EF4017082B801F9
:101F3000CE0146960E94BB05C8010E94820565E35A
:101F400071E0CE0146960E94A605882309F473C06D
:101F5000FAE0AF16B10409F06EC01B861A861D8622
:101F60001C861F861E86688979896115710531F086
:101F70004C895D89CE010A960E9471062FEFE21A04
:101F8000F20A6AE371E0C8010E949C06A701B80149
:101F9000CE010A960E948A055C01C8010E94820552
:101FA0004501AE14BF0410F04701750162E371E012
:101FB000C8010E949C06AE84BF848A149B04D8F496
:101FC000EA14FB0408F45701EA85FB85EA0DFB1DC2
:101FD000F08010826A857B85680D791DC8016115C6
:101FE000710509F464C00E9492068A859B85A80E3B
:101FF000B91ED501FC92B8018CEF93E00E94BB059D
:10200000C8010E9482056CE371E08CEF93E00E94AE
:10201000A605882309F44EC050E040E070E060E07F
:102020008FEF90E00E941104B1E0B0932103CE0144
:102030000A960E948205CE0140960E948205CE013A
:1020400046960E9482050E94EB022B013C018AE029
:10205000882E912CA12CB12C0E94EB0264197509D9
:1020600086099709683E734081059105A8F331E020
:10207000831A9108A108B10888EE480E83E0581E23
:10208000611C711C81149104A104B10429F7E0E0E2
:10209000F0E0EF2B09F437CD0E94B601882309F454
:1020A00032CD0E9400002FCD0E9470053ACF0E94D1
:1020B00070059BCF6EE371E08CEF93E00E94A60564
:1020C000882361F050E040E06FEF70E090E080E046
:1020D0000E941104E1E0E0932103A9CF60E471E0E4
:1020E0008CEF93E00E94A605882361F04FEF50E04B
:1020F00070E060E090E080E00E941104F1E0F09375
:10210000210395CF62E471E08CEF93E00E94A60575
:10211000882361F050E040E068E270E08FEF90E0EB
:102120000E94110421E02093210381CF64E471E037
:102130008CEF93E00E94A605882349F04FEF50E012
:102140006FEF70E08FEF90E00E94110470CF66E4B3
:1021500071E08CEF93E00E94A605882309F467CF15
:1021600050E040E070E060E090E080E0EDCF8091F2
:10217000CA039091CB030E94F9178091C7039091F5
:10218000C80397FD03C060E00E94A5028CE191E0C6
:102190009093D8038093D703809105029091060213
:1021A000875D934071F4E091EA03F091EB03908135
:1021B0008091EC038095892380831092060210920F
:1021C00005028CEF93E00E94820582E094E00C947B
:1021D0008205EF920F931F93CF93DF93E80134E0D2
:1021E00047FD34E1042E000C550B57FF03C05195F9
:1021F00041955109E32E022F242FAE010E94521166
:10220000CE01DF91CF911F910F91EF900895BB27E1
:102210002A3051F4992342F4BDE29095809570954F
:1022200061957F4F8F4F9F4F0C941711BB27FA0179
:10223000A62F6217710581059105330B30FB66F0FF
:10224000AA27660F771F881F991FAA1FA21710F0D1
:10225000A21B63953850A9F7A05DAA3308F0A95DC9
:10226000A19336F7B111B1931082CA010C9489136E
:10227000BB27FB015527AA27880F991FAA1FA41760
:1022800010F0A41B83955051B9F7A05DAA3308F054
:10229000A95DA193009779F7B111B1931192CB0188
:1022A0000C948913A9E0B0E0E8E5F1E10C949A14EC
:1022B0006A01F22EB02E102FFBE3AF2EA01608F409
:1022C0001BE31F5F012F27E0AE014F5F5F4F0E94AE
:1022D000B112BC018981982F9970913009F43FC0E7
:1022E0009BE2E1FC04C09E2D9170E0FC3AC05E2DA3
:1022F0005071E82FE87083FF46C084E0911101C05F
:1023000083E0EF2DE81B8F1508F0E0E0D6018E2F5B
:1023100020E2552351F1992329F0D6019C93C6015F
:1023200001966C0196012D5F3F4FE2FE24C08EE4C2
:10233000D6018C9391E411969C93119712968C93ED
:10234000D9018E2F90E281111BC0E20FF32FF11DF6
:1023500010828EEF9FEF2996ECE00C94B6149DE26C
:10236000C6CF90E2C4CF2D9381508111FCCFCE0E09
:10237000D11CE0E0D0CF8EE6D6018C9391E6DBCF86
:102380009D938150E0CF482F447082FF3DC084E090
:10239000911101C083E08F1510F4EF2DE81BD601D9
:1023A0008E2F20E2552309F1992329F0D6019C9321
:1023B000C60101966C0196012D5F3F4FE2FE1BC0E6
:1023C00089E4D6018C938EE411968C93119786E460
:1023D00012968C93D9018E2F90E2882309F4B5CF01
:1023E0009D938150FACF2D9381508111FCCFCE0E59
:1023F000D11CE0E0D9CF89E6D6018C938EE6119608
:102400008C93119786E6E4CF9B0177FF02C030E002
:1024100020E0A1E0B0E0911102C0B0E0A0E0F9013D
:102420003196AE0FBF1F8B2C912CBB2009F461C0DD
:102430005401EFEFAE1ABE0AAA0DBB1DFA161B0619
:1024400019F014F04F2D4A1B511188C0E3FC59C0FC
:102450007601A42FB0E2A1114FC0C40ED11C992364
:1024600009F45BC040E0D6011196F60190836D013E
:10247000552309F448C0012F060F9A81582F507137
:1024800084FF03C0913309F4015010160CF047C0CB
:10249000093008F008E0EEE2FE2E5B01A01AB10858
:1024A00085019194819491082F3F320729F4D60138
:1024B000FC92F60131966F016217730794F10217CF
:1024C00013077CF5DB01A21BB30BAA24A394B12C48
:1024D000AC0EBD1EAA0DBB1D11968C912150310969
:1024E000D601119628153905F4F0F60180836D01A7
:1024F000DBCFB12CA12CA0CFF701B1937F01A1506C
:10250000AACF9111B0CFD601942F50E302C05D93B2
:1025100091509111FCCFC40ED11C40E0ACCF01E032
:10252000BACF80E3DBCF6217730731F4963388F4B8
:10253000953311F4552369F0F6018083FD01842F52
:1025400090E2811108C0A40FB11D1C9290E080E0C0
:1025500002CF81E3F1CF91938150F3CF911183CFDB
:102560008ACF283008F027E03327DA01990F311D90
:1025700087FD916000966105710539F432602E5F28
:102580003D9330E32A95E1F708959F3F30F080387E
:102590007105610509F03C5F3C5F3D93913008F0A7
:1025A0008068911DDF93CF931F930F93FF92EF925B
:1025B000192F987F9695E92F96959695E90FFF2705
:1025C000EC5BFE4F99273327EE24FF24A701E70198
:1025D00005900894079428F4360FE71EF81E491F4B
:1025E000511D660F771F881F991F0694A1F705904C
:1025F000079428F4E70EF81E491F561FC11D770FD8
:10260000881F991F661F0694A1F70590079428F468
:10261000F80E491F561FC71FD11D880F991F661F2F
:10262000771F0694A1F70590079420F4490F561FD1
:10263000C71FD81F990F661F771F881F0694A9F719
:1026400084911095177041F0D695C7955795479589
:10265000F794E7941A95C1F7EAEEF0E068941590C4
:10266000159135916591959105907FE27395E118EB
:10267000F10A430B560BC90BD009C0F7E10CF11E50
:10268000431F561FC91FD01D7EF4703311F48A9565
:10269000E6CFE894015030F0080F0AF40027021743
:1026A00008F4202F2395022F7A3328F079E37D93C5
:1026B0002A95E9F710C07D932A9589F60694979597
:1026C0006795379517951794E118F10A430B560B48
:1026D000C90BD00998F023957E9173957A3308F051
:1026E00070E37C932013B8F77E9170617D9330F096
:1026F000839571E37D9370E32A95E1F71124EF90C0
:10270000FF900F911F91CF91DF91992787FD9095B1
:102710000895DC01FC01672F71917723E1F732976F
:1027200004C07C916D9370836291AE17BF07C8F3AC
:102730000895E89409C097FB3EF4909580957095B4
:1027400061957F4F8F4F9F4F9923A9F0F92F96E9FD
:10275000BB279395F695879577956795B795F11172
:10276000F8CFFAF4BB0F11F460FF1BC06F5F7F4F0F
:102770008F4F9F4F16C0882311F096E911C0772321
:1027800021F09EE8872F762F05C0662371F096E82A
:10279000862F70E060E02AF09A95660F771F881FF9
:1027A000DAF7880F9695879597F908950E94E913AF
:1027B0000C945A140E944C1438F00E94531420F0C8
:1027C000952311F00C9443140C94491411240C9487
:1027D0008E140E946B1470F3959FC1F3950F50E017
:1027E000551F629FF001729FBB27F00DB11D639FC3
:1027F000AA27F00DB11DAA1F649F6627B00DA11D69
:10280000661F829F2227B00DA11D621F739FB00D0E
:10281000A11D621F839FA00D611D221F749F33277E
:10282000A00D611D231F849F600D211D822F762F17
:102830006A2F11249F5750409AF0F1F088234AF0F4
:10284000EE0FFF1FBB1F661F771F881F9150504060
:10285000A9F79E3F510580F00C9443140C948E14FC
:102860005F3FE4F3983ED4F3869577956795B795E7
:10287000F795E7959F5FC1F7FE2B880F911D969501
:10288000879597F9089597F99F6780E870E060E071
:1028900008959FEF80EC089500240A9416161706F9
:1028A00018060906089500240A9412161306140641
:1028B00005060895092E0394000C11F4882352F0A4
:1028C000BB0F40F4BF2B11F460FF04C06F5F7F4F5C
:1028D0008F4F9F4F089557FD9058440F551F59F043
:1028E0005F3F71F04795880F97FB991F61F09F3FFD
:1028F00079F087950895121613061406551FF2CF26
:102900004695F1DF08C0161617061806991FF1CF75
:1029100086957105610508940895E894BB2766279C
:102920007727CB0197F908952F923F924F925F92AC
:102930006F927F928F929F92AF92BF92CF92DF92CF
:10294000EF92FF920F931F93CF93DF93CDB7DEB734
:10295000CA1BDB0B0FB6F894DEBF0FBECDBF0994C8
:102960002A88398848885F846E847D848C849B841F
:10297000AA84B984C884DF80EE80FD800C811B812D
:10298000AA81B981CE0FD11D0FB6F894DEBF0FBE5C
:10299000CDBFED0108955058BB27AA270E94E3142C
:1029A0000C945A140E944C1438F00E94531420F0D6
:1029B00039F49F3F19F426F40C9449140EF4E09571
:1029C000E7FB0C944314E92F0E946B1458F3BA17D9
:1029D000620773078407950720F079F4A6F50C9435
:1029E0008D140EF4E0950B2EBA2FA02D0B01B9011A
:1029F00090010C01CA01A0011124FF27591B99F075
:102A0000593F50F4503E68F11A16F040A22F232F80
:102A1000342F4427585FF3CF469537952795A795D0
:102A2000F0405395C9F77EF41F16BA0B620B730B77
:102A3000840BBAF09150A1F0FF0FBB1F661F771FE8
:102A4000881FC2F70EC0BA0F621F731F841F48F49D
:102A5000879577956795B795F7959E3F08F0B0CF26
:102A60009395880F08F09927EE0F9795879508950D
:102A70000E944C150C945A140E94531458F00E9452
:102A80004C1440F029F45F3F29F00C944314511189
:102A90000C948E140C9449140E946B1468F39923BF
:102AA000B1F3552391F3951B550BBB27AA2762174A
:102AB0007307840738F09F5F5F4F220F331F441F57
:102AC000AA1FA9F335D00E2E3AF0E0E832D091508B
:102AD0005040E695001CCAF72BD0FE2F29D0660F78
:102AE000771F881FBB1F261737074807AB07B0E8BB
:102AF00009F0BB0B802DBF01FF2793585F4F3AF0C1
:102B00009E3F510578F00C9443140C948E145F3F53
:102B1000E4F3983ED4F3869577956795B795F79546
:102B20009F5FC9F7880F911D9695879597F908952E
:102B3000E1E0660F771F881FBB1F621773078407CA
:102B4000BA0720F0621B730B840BBA0BEE1F88F7D9
:102B5000E095089516F00C9484160C94491468942A
:102B60000C9443140E947314A8F39923C1F3AEF399
:102B7000DF93CF931F930F93FF92C92FDD278823F5
:102B80002AF02197660F771F881FDAF720E030E0E0
:102B900040E85FEB9FE3883920F0803E38F02196D3
:102BA0008F770E94CC14E8E6F0E004C00E94CC14B9
:102BB000E5E9F0E00E9492168B01BE01EC01FB2ECC
:102BC0006F5771097595771F880B990B0E949B139E
:102BD00028E132E741E35FE30E94E913AF2D98015A
:102BE000AE01FF900F911F91CF91DF910E94E314EE
:102BF0000C945A14FA01EE0FFF1F3096210531058F
:102C0000A1F16115710561F48038BFE39B0749F1BB
:102C100068949038810561F08038BFEF9B0741F0E0
:102C200099234AF5FF3FE1053105210519F1E894A3
:102C30000894E795D901AA2329F4AB2FBE2FF85F9A
:102C4000D0F310C0FF5F70F4A695E0F7F73950F0AD
:102C500019F0FF3A38F49F779F930DD00F9007FC3F
:102C60009058089546F00C94491460E070E080E8B4
:102C70009FE308954FE79F775F934F933F932F9381
:102C80000E94B2152F913F914F915F910E94D613F0
:102C90000C94521629F416F00C9443140C948D14D1
:102CA0000C9449140E947314A8F39638A0F707F8FF
:102CB0000F92E8942BE33AEA48EB5FE70E94EC13AB
:102CC0000F920F920F924DB75EB70F920E94FB16B4
:102CD000E2ECF0E00E9492164F915F91EF91FF912C
:102CE000E595EE1FFF1F49F0FE57E0684427EE0F01
:102CF000441FFA95E1F74195550B0E94C5160F90B8
:102D000007FE0C94B91608959F3F31F0915020F4BE
:102D1000879577956795B795880F911D96958795B7
:102D200097F90895DF93CF931F930F93FF92EF923C
:102D3000DF927B018C01689406C0DA2EEF010E94BD
:102D4000E913FE01E894A59125913591459155919E
:102D5000A6F3EF010E94E314FE019701A801DA94A3
:102D600069F7DF90EF90FF900F911F91CF91DF9166
:102D700008959B01AC0160E070E080E89FE30C9453
:102D800038150C9443140C9484160E947314D8F3D1
:102D90009923C9F3940F511DA3F39150504094F01F
:102DA00059F0882332F0660F771F881F91505040EA
:102DB000C1F79E3F51052CF7880F911D9695879579
:102DC00097F908955F3FACF0983E9CF0BB2786953D
:102DD00077956795B79508F4B1609395C1F7BB0FE8
:102DE00058F711F460FFE8CF6F5F7F4F8F4F9F4F11
:102DF000E3CF0C948E14FA01DC01AA0FBB1F9B01D8
:102E0000AC01BF5728F4222733274427507820C02D
:102E1000B75190F4AB2F0024469537952795011CA8
:102E2000A395D2F3002071F0220F331F441FB395F6
:102E3000DAF30ED00C94CB1461307105A0E88A0748
:102E4000B94630F49B01AC01662777278827907834
:102E5000309621F020833183428353830895AA1B47
:102E6000BB1B51E107C0AA1FBB1FA617B70710F075
:102E7000A61BB70B881F991F5A95A9F780959095A7
:102E8000BC01CD01089597FB072E16F4009407D0DE
:102E900077FD09D00E942F1707FC05D03EF49095CE
:102EA00081959F4F0895709561957F4F0895EE0F1E
:102EB000FF1F0590F491E02D09940F931F93CF937A
:102EC000DF938230910510F482E090E0E0910A04F3
:102ED000F0910B0430E020E0B0E0A0E0309799F4EE
:102EE0002115310509F44AC0281B390B243031055E
:102EF000D8F58A819B816115710589F1FB01938366
:102F00008283FE0111C040815181028113814817E3
:102F10005907E0F04817590799F4109761F0129695
:102F20000C93129713961C933296CF01DF91CF9199
:102F30001F910F91089500930A0410930B04F4CF8E
:102F40002115310551F04217530738F0A901DB0173
:102F50009A01BD01DF01F801C1CFEF01F9CF9093D4
:102F60000B0480930A04CDCFFE01E20FF31F81937F
:102F700091932250310939832883D7CF20910804B7
:102F800030910904232B41F4209102013091030177
:102F9000309309042093080420910001309101012D
:102FA0002115310541F42DB73EB7409104015091F0
:102FB0000501241B350BE0910804F0910904E21788
:102FC000F307A0F42E1B3F0B2817390778F0AC014C
:102FD0004E5F5F4F2417350748F04E0F5F1F509329
:102FE000090440930804819391939FCFF0E0E0E0BF
:102FF0009CCFCF93DF930097E9F0FC0132971382C7
:103000001282A0910A04B0910B04ED0130E020E09F
:103010001097A1F420813181820F931F2091080421
:10302000309109042817390709F061C0F0930904A9
:10303000E0930804DF91CF910895EA01CE17DF07EE
:10304000E8F54A815B819E0141155105B1F7E9011F
:10305000FB83EA8349915991C40FD51FEC17FD07F3
:1030600061F4808191810296840F951FE901998313
:103070008883828193819B838A83F0E0E0E01296CB
:103080008D919C9113970097B9F52D913C911197D3
:10309000CD010296820F931F2091080430910904FC
:1030A0002817390739F6309751F510920B04109212
:1030B0000A04B0930904A0930804BCCFD383C2834D
:1030C00040815181840F951FC817D90761F44E5F65
:1030D0005F4F88819981480F591F518340838A81AE
:1030E0009B81938382832115310509F0B0CFF09342
:1030F0000B04E0930A049ECFFD01DC01C0CF1382D4
:103100001282D7CFB0E0A0E0E8E8F8E10C94961482
:103110008C01009751F4CB010E945D178C01C8010E
:10312000CDB7DEB7E0E10C94B214FC01E60FF71F57
:103130009C0122503109E217F30708F49DC0D90120
:10314000CD91DC911197C617D70798F0C530D105FE
:1031500030F3CE0104978617970708F3C61BD70BE9
:103160002297C193D1936D937C93CF010E94F9175D
:10317000D6CF5B01AC1ABD0A4C018C0E9D1EA091EE
:103180000A04B0910B04512C412CF12CE12C109726
:1031900031F580910804909109048815990509F08A
:1031A0005CC04616570608F058C080910001909107
:1031B0000101009741F48DB79EB7409104015091F1
:1031C0000501841B950BE817F90708F055C0F0932B
:1031D0000904E0930804F90171836083A0CF8D9105
:1031E0009C91119712966C90129713967C9013975E
:1031F000A815B90559F56C0142E0C40ED11CCA14DA
:10320000DB0420F1AC014A195B09DA01129615972B
:1032100080F06282738251834083D9016D937C93E5
:10322000E114F10471F0D7011396FC93EE93129719
:1032300076CF22968C0F9D1FF90191838083F30135
:10324000EFCFF0930B04E0930A0469CF48165906B8
:1032500008F42C017D01D3019ACFCB010E945D17A8
:103260007C01009749F0AE01B8010E943F19C801E6
:103270000E94F917870153CF10E000E050CFFB0107
:10328000DC0102C001900D9241505040D8F70895E2
:10329000DC0101C06D9341505040E0F70895FB01FF
:1032A000DC018D91019080190110D9F3990B0895DB
:1032B000FB01DC0101900D920020E1F70895FB0174
:1032C00051915523A9F0BF01DC014D9145174111E2
:1032D000E1F759F4CD010190002049F04D914015DE
:1032E0004111C9F3FB014111EFCF81E090E001975B
:1032F000089511E0C0E2D1E004C0FE010E9457171A
:0C3300002196C132D107C9F7F894FFCF25
:10330C0000000C04800000000000EC014C0179016D
:10331C003902AA0188019C010000000079034C01CC
:10332C000E043703D503ED03610323434E542C00E5
:10333C000D0A00230023434E54005C00520047004A
:08334C0042004F00570046004B
:00000001FF
